{
	"userRegistration.sol": {
		"userRegistration": {
			"abi": [
				{
					"inputs": [],
					"stateMutability": "nonpayable",
					"type": "constructor"
				},
				{
					"anonymous": false,
					"inputs": [
						{
							"indexed": true,
							"internalType": "address",
							"name": "userAddress",
							"type": "address"
						},
						{
							"indexed": false,
							"internalType": "string",
							"name": "userID",
							"type": "string"
						},
						{
							"indexed": false,
							"internalType": "string",
							"name": "fullName",
							"type": "string"
						},
						{
							"indexed": false,
							"internalType": "string",
							"name": "email",
							"type": "string"
						}
					],
					"name": "UserRegistered",
					"type": "event"
				},
				{
					"inputs": [],
					"name": "admin",
					"outputs": [
						{
							"internalType": "address",
							"name": "",
							"type": "address"
						}
					],
					"stateMutability": "view",
					"type": "function"
				},
				{
					"inputs": [
						{
							"internalType": "address",
							"name": "_userAddress",
							"type": "address"
						}
					],
					"name": "getUserInfo",
					"outputs": [
						{
							"internalType": "string",
							"name": "",
							"type": "string"
						},
						{
							"internalType": "string",
							"name": "",
							"type": "string"
						}
					],
					"stateMutability": "view",
					"type": "function"
				},
				{
					"inputs": [
						{
							"internalType": "address",
							"name": "_userAddress",
							"type": "address"
						}
					],
					"name": "isUserRegistered",
					"outputs": [
						{
							"internalType": "bool",
							"name": "",
							"type": "bool"
						}
					],
					"stateMutability": "view",
					"type": "function"
				},
				{
					"inputs": [
						{
							"internalType": "string",
							"name": "_userID",
							"type": "string"
						},
						{
							"internalType": "string",
							"name": "_fullName",
							"type": "string"
						},
						{
							"internalType": "uint256",
							"name": "_dateOfBirth",
							"type": "uint256"
						},
						{
							"internalType": "string",
							"name": "_gender",
							"type": "string"
						},
						{
							"internalType": "string",
							"name": "_userType",
							"type": "string"
						},
						{
							"internalType": "string",
							"name": "_orgAddress",
							"type": "string"
						},
						{
							"internalType": "string",
							"name": "_instituteRole",
							"type": "string"
						},
						{
							"internalType": "string",
							"name": "_KYCstatus",
							"type": "string"
						},
						{
							"internalType": "string",
							"name": "_userStatus",
							"type": "string"
						},
						{
							"internalType": "string",
							"name": "_addressLine",
							"type": "string"
						},
						{
							"internalType": "string",
							"name": "_phoneNumber",
							"type": "string"
						},
						{
							"internalType": "string",
							"name": "_email",
							"type": "string"
						},
						{
							"internalType": "string",
							"name": "_country",
							"type": "string"
						},
						{
							"internalType": "string",
							"name": "_nationality",
							"type": "string"
						},
						{
							"internalType": "string",
							"name": "_nid",
							"type": "string"
						},
						{
							"internalType": "string",
							"name": "_maritalStatus",
							"type": "string"
						},
						{
							"internalType": "string",
							"name": "_educationLevel",
							"type": "string"
						},
						{
							"internalType": "string",
							"name": "_incomeLevel",
							"type": "string"
						},
						{
							"internalType": "string",
							"name": "_employmentStatus",
							"type": "string"
						},
						{
							"internalType": "string",
							"name": "_taxStatus",
							"type": "string"
						},
						{
							"internalType": "string",
							"name": "_communicationPref",
							"type": "string"
						},
						{
							"internalType": "bool",
							"name": "_consentPermission",
							"type": "bool"
						}
					],
					"name": "registerUser",
					"outputs": [],
					"stateMutability": "nonpayable",
					"type": "function"
				},
				{
					"inputs": [
						{
							"internalType": "address",
							"name": "_newAdmin",
							"type": "address"
						}
					],
					"name": "transferAdmin",
					"outputs": [],
					"stateMutability": "nonpayable",
					"type": "function"
				},
				{
					"inputs": [],
					"name": "unregisterUser",
					"outputs": [],
					"stateMutability": "nonpayable",
					"type": "function"
				},
				{
					"inputs": [
						{
							"internalType": "string",
							"name": "_name",
							"type": "string"
						},
						{
							"internalType": "string",
							"name": "_email",
							"type": "string"
						}
					],
					"name": "updateUser",
					"outputs": [],
					"stateMutability": "nonpayable",
					"type": "function"
				},
				{
					"inputs": [
						{
							"internalType": "address",
							"name": "",
							"type": "address"
						}
					],
					"name": "users",
					"outputs": [
						{
							"internalType": "address",
							"name": "userAddress",
							"type": "address"
						},
						{
							"internalType": "string",
							"name": "userID",
							"type": "string"
						},
						{
							"internalType": "string",
							"name": "fullName",
							"type": "string"
						},
						{
							"internalType": "uint256",
							"name": "dateOfBirth",
							"type": "uint256"
						},
						{
							"internalType": "string",
							"name": "gender",
							"type": "string"
						},
						{
							"internalType": "string",
							"name": "userType",
							"type": "string"
						},
						{
							"internalType": "string",
							"name": "orgAddress",
							"type": "string"
						},
						{
							"internalType": "string",
							"name": "instituteRole",
							"type": "string"
						},
						{
							"internalType": "string",
							"name": "KYCstatus",
							"type": "string"
						},
						{
							"internalType": "string",
							"name": "userStatus",
							"type": "string"
						},
						{
							"internalType": "string",
							"name": "addressLine",
							"type": "string"
						},
						{
							"internalType": "string",
							"name": "phoneNumber",
							"type": "string"
						},
						{
							"internalType": "string",
							"name": "email",
							"type": "string"
						},
						{
							"internalType": "string",
							"name": "country",
							"type": "string"
						},
						{
							"internalType": "string",
							"name": "nationality",
							"type": "string"
						},
						{
							"internalType": "string",
							"name": "nid",
							"type": "string"
						},
						{
							"internalType": "string",
							"name": "maritalStatus",
							"type": "string"
						},
						{
							"internalType": "string",
							"name": "educationLevel",
							"type": "string"
						},
						{
							"internalType": "string",
							"name": "incomeLevel",
							"type": "string"
						},
						{
							"internalType": "string",
							"name": "employmentStatus",
							"type": "string"
						},
						{
							"internalType": "string",
							"name": "taxStatus",
							"type": "string"
						},
						{
							"internalType": "string",
							"name": "communicationPref",
							"type": "string"
						},
						{
							"internalType": "bool",
							"name": "consentPermission",
							"type": "bool"
						},
						{
							"internalType": "bool",
							"name": "isRegistered",
							"type": "bool"
						}
					],
					"stateMutability": "view",
					"type": "function"
				}
			],
			"devdoc": {
				"kind": "dev",
				"methods": {},
				"version": 1
			},
			"evm": {
				"assembly": "    /* \"userRegistration.sol\":60:5248  contract userRegistration {... */\n  0x80\n  dup1\n  0x40\n  mstore\n  jumpi(tag_1, callvalue)\n    /* \"userRegistration.sol\":1600:1618  admin = msg.sender */\n  0x00\n    /* \"userRegistration.sol\":60:5248  contract userRegistration {... */\n  dup1\n  sload\n  not(sub(shl(0xa0, 0x01), 0x01))\n  and\n    /* \"userRegistration.sol\":1608:1618  msg.sender */\n  caller\n    /* \"userRegistration.sol\":60:5248  contract userRegistration {... */\n  or\n  swap1\n  sstore\n  dataSize(sub_0)\n  swap1\n  dup2\n  dataOffset(sub_0)\n  dup3\n  codecopy\n  return\ntag_1:\n  0x00\n  dup1\n  revert\nstop\n\nsub_0: assembly {\n        /* \"userRegistration.sol\":60:5248  contract userRegistration {... */\n      0x0300\n      dup1\n      0x40\n      mstore\n      jumpi(tag_10, iszero(lt(calldatasize, 0x04)))\n      0x00\n      dup1\n      revert\n    tag_10:\n      shr(0xe0, calldataload(0x00))\n      swap1\n      dup2\n      0x163f7522\n      eq\n      tag_12\n      jumpi\n      pop\n      dup1\n      0x1bb71db2\n      eq\n      tag_14\n      jumpi\n      dup1\n      0x1e2a1932\n      eq\n      tag_16\n      jumpi\n      dup1\n      0x6386c1c7\n      eq\n      tag_18\n      jumpi\n      dup1\n      0x75829def\n      eq\n      tag_20\n      jumpi\n      dup1\n      0xa87430ba\n      eq\n      tag_22\n      jumpi\n      dup1\n      0xdd4a2425\n      eq\n      tag_24\n      jumpi\n      0xf851a440\n      eq\n      tag_26\n      jumpi\n      0x00\n      dup1\n      revert\n    tag_26:\n      jumpi(tag_30, callvalue)\n      jumpi(tag_30, slt(add(not(0x03), calldatasize), 0x00))\n      sload(0x00)\n      mload(0x40)\n      sub(shl(0xa0, 0x01), 0x01)\n      swap1\n      swap2\n      and\n      dup2\n      mstore\n      0x20\n      swap1\n      return\n    tag_30:\n      0x00\n      dup1\n      revert\n    tag_24:\n      jumpi(tag_30, callvalue)\n      jumpi(tag_30, slt(add(not(0x03), calldatasize), 0x40))\n      sub(shl(0x40, 0x01), 0x01)\n      calldataload(0x04)\n      dup2\n      dup2\n      gt\n      tag_30\n      jumpi\n      tag_38\n      swap1\n      calldatasize\n      swap1\n      0x04\n      add\n      tag_2\n      jump\t// in\n    tag_38:\n      calldataload(0x24)\n      dup3\n      dup2\n      gt\n      tag_30\n      jumpi\n      tag_41\n      swap1\n      calldatasize\n      swap1\n      0x04\n      add\n      tag_2\n      jump\t// in\n    tag_41:\n        /* \"userRegistration.sol\":1489:1499  msg.sender */\n      swap2\n      caller\n        /* \"userRegistration.sol\":60:5248  contract userRegistration {... */\n      0x00\n      mstore\n        /* \"userRegistration.sol\":1483:1488  users */\n      0x01\n        /* \"userRegistration.sol\":60:5248  contract userRegistration {... */\n      swap2\n      0x20\n      swap4\n      dup4\n      dup6\n      mstore\n        /* \"userRegistration.sol\":1475:1547  require(users[msg.sender].isRegistered, \"You are not a registered user\") */\n      tag_42\n        /* \"userRegistration.sol\":60:5248  contract userRegistration {... */\n      0xff\n        /* \"userRegistration.sol\":1483:1513  users[msg.sender].isRegistered */\n      0x16\n        /* \"userRegistration.sol\":60:5248  contract userRegistration {... */\n      keccak256(0x00, 0x40)\n        /* \"userRegistration.sol\":1483:1513  users[msg.sender].isRegistered */\n      add\n        /* \"userRegistration.sol\":60:5248  contract userRegistration {... */\n      sload\n      0x08\n      shr\n      and\n        /* \"userRegistration.sol\":1475:1547  require(users[msg.sender].isRegistered, \"You are not a registered user\") */\n      tag_8\n      jump\t// in\n    tag_42:\n        /* \"userRegistration.sol\":60:5248  contract userRegistration {... */\n      dup2\n      mload\n        /* \"userRegistration.sol\":4090:4113  bytes(_name).length > 0 */\n      iszero\n        /* \"userRegistration.sol\":60:5248  contract userRegistration {... */\n      tag_43\n      jumpi\n        /* \"userRegistration.sol\":4151:4211  require(bytes(_email).length > 0, \"Email must not be empty\") */\n      tag_45\n        /* \"userRegistration.sol\":60:5248  contract userRegistration {... */\n      dup2\n      mload\n        /* \"userRegistration.sol\":4159:4183  bytes(_email).length > 0 */\n      iszero\n      iszero\n        /* \"userRegistration.sol\":4151:4211  require(bytes(_email).length > 0, \"Email must not be empty\") */\n      tag_6\n      jump\t// in\n    tag_45:\n        /* \"userRegistration.sol\":1489:1499  msg.sender */\n      caller\n        /* \"userRegistration.sol\":60:5248  contract userRegistration {... */\n      0x00\n      mstore\n      dup4\n      dup6\n      mstore\n      keccak256(0x00, 0x40)\n        /* \"userRegistration.sol\":4272:4285  user.fullName */\n      0x02\n      dup2\n      add\n        /* \"userRegistration.sol\":60:5248  contract userRegistration {... */\n      dup4\n      mload\n      dup6\n      dup2\n      gt\n      tag_56\n      jumpi\n      tag_48\n      dup3\n      sload\n      tag_4\n      jump\t// in\n    tag_48:\n      swap5\n      0x1f\n      swap6\n      dup7\n      dup2\n      gt\n      tag_49\n      jumpi\n    tag_50:\n      pop\n      dup9\n      swap1\n      dup7\n      dup4\n      gt\n      0x01\n      eq\n      tag_51\n      jumpi\n        /* \"userRegistration.sol\":4304:4314  user.email */\n      0x0c\n      swap5\n        /* \"userRegistration.sol\":60:5248  contract userRegistration {... */\n      swap4\n      swap3\n      swap2\n      0x00\n      swap2\n      dup4\n      tag_53\n      jumpi\n    tag_54:\n      pop\n      pop\n      not(0x00)\n      0x03\n      dup4\n      swap1\n      shl\n      shr\n      not\n      and\n      swap1\n      dup9\n      shl\n      or\n      swap1\n      sstore\n    tag_55:\n        /* \"userRegistration.sol\":4304:4314  user.email */\n      add\n        /* \"userRegistration.sol\":60:5248  contract userRegistration {... */\n      swap5\n      dup2\n      mload\n      swap4\n      dup5\n      gt\n      tag_56\n      jumpi\n      tag_58\n      dup7\n      sload\n      tag_4\n      jump\t// in\n    tag_58:\n      dup4\n      dup2\n      gt\n      tag_59\n      jumpi\n    tag_60:\n      pop\n      dup1\n      swap3\n      dup5\n      gt\n      0x01\n      eq\n      tag_61\n      jumpi\n      pop\n      swap3\n      dup3\n      swap4\n      swap2\n      dup4\n      swap3\n      0x00\n      swap5\n      tag_63\n      jumpi\n    tag_64:\n      pop\n      pop\n      shl\n      swap2\n      not(0x00)\n      swap1\n      0x03\n      shl\n      shr\n      not\n      and\n      or\n      swap1\n      sstore\n      0x00\n      dup1\n      return\n    tag_63:\n      add\n      mload\n      swap3\n      pop\n      dup6\n      dup1\n      jump(tag_64)\n    tag_61:\n      swap2\n      swap1\n      dup4\n      not(0x1f)\n      dup2\n      and\n      dup8\n      0x00\n      mstore\n      dup5\n      0x00\n      keccak256\n      swap5\n      0x00\n      swap1\n    tag_66:\n      dup9\n      dup4\n      dup4\n      lt\n      tag_67\n      jumpi\n      pop\n      pop\n      pop\n      lt\n      tag_69\n      jumpi\n    tag_70:\n      pop\n      pop\n      pop\n      dup2\n      shl\n      add\n      swap1\n      sstore\n      stop\n    tag_69:\n      add\n      mload\n      not(0x00)\n      0xf8\n      dup5\n      0x03\n      shl\n      and\n      shr\n      not\n      and\n      swap1\n      sstore\n      dup4\n      dup1\n      dup1\n      jump(tag_70)\n    tag_67:\n      dup6\n      dup8\n      add\n      mload\n      dup9\n      sstore\n      swap1\n      swap7\n      add\n      swap6\n      swap5\n      dup6\n      add\n      swap5\n      dup8\n      swap4\n      pop\n      swap1\n      dup2\n      add\n      swap1\n      jump(tag_66)\n    tag_59:\n      tag_71\n      swap1\n      dup8\n      0x00\n      mstore\n      dup3\n      0x00\n      keccak256\n      dup6\n      dup1\n      dup9\n      add\n      0x05\n      shr\n      dup3\n      add\n      swap3\n      dup6\n      dup10\n      lt\n      tag_72\n      jumpi\n    tag_73:\n      add\n      0x05\n      shr\n      add\n      swap1\n      tag_7\n      jump\t// in\n    tag_71:\n      dup7\n      jump(tag_60)\n    tag_72:\n      swap3\n      pop\n      dup2\n      swap3\n      jump(tag_73)\n    tag_56:\n      mstore(0x00, shl(0xe0, 0x4e487b71))\n      mstore(0x04, 0x41)\n      revert(0x00, 0x24)\n    tag_53:\n      add\n      mload\n      swap1\n      pop\n      dup11\n      dup1\n      jump(tag_54)\n    tag_51:\n      swap4\n      swap3\n      swap2\n      dup9\n      swap2\n      not(0x1f)\n      dup3\n      and\n      swap1\n      dup5\n      0x00\n      mstore\n      dup12\n      0x00\n      keccak256\n      swap2\n      0x00\n    tag_74:\n      dup14\n      dup3\n      dup3\n      lt\n      tag_75\n      jumpi\n      pop\n      pop\n      swap7\n      dup4\n        /* \"userRegistration.sol\":4304:4314  user.email */\n      0x0c\n        /* \"userRegistration.sol\":60:5248  contract userRegistration {... */\n      swap9\n      lt\n      tag_77\n      jumpi\n    tag_78:\n      pop\n      pop\n      pop\n      dup2\n      shl\n      add\n      swap1\n      sstore\n      jump(tag_55)\n    tag_77:\n      add\n      mload\n      not(0x00)\n      0xf8\n      dup5\n      0x03\n      shl\n      and\n      shr\n      not\n      and\n      swap1\n      sstore\n      dup11\n      dup1\n      dup1\n      jump(tag_78)\n    tag_75:\n      dup4\n      dup11\n      add\n      mload\n      dup6\n      sstore\n      dup14\n      swap7\n      swap1\n      swap5\n      add\n      swap4\n      swap3\n      dup4\n      add\n      swap3\n      add\n      jump(tag_74)\n    tag_49:\n      tag_79\n      swap1\n      dup5\n      0x00\n      mstore\n      dup11\n      0x00\n      keccak256\n      dup9\n      dup1\n      dup7\n      add\n      0x05\n      shr\n      dup3\n      add\n      swap3\n      dup14\n      dup8\n      lt\n      tag_72\n      jumpi\n      add\n      0x05\n      shr\n      add\n      swap1\n      tag_7\n      jump\t// in\n    tag_79:\n      dup10\n      jump(tag_50)\n    tag_43:\n      mload(0x40)\n      shl(0xe5, 0x461bcd)\n      dup2\n      mstore\n      0x04\n      dup2\n      add\n      dup7\n      swap1\n      mstore\n        /* \"userRegistration.sol\":1483:1513  users[msg.sender].isRegistered */\n      0x16\n        /* \"userRegistration.sol\":60:5248  contract userRegistration {... */\n      0x24\n      dup3\n      add\n      mstore\n      shl(0x50, 0x4e616d65206d757374206e6f7420626520656d707479)\n      0x44\n      dup3\n      add\n      mstore\n      0x64\n      swap1\n      revert\n    tag_22:\n      jumpi(tag_30, callvalue)\n      jumpi(tag_30, slt(add(not(0x03), calldatasize), 0x20))\n      sub(shl(0xa0, 0x01), 0x01)\n      calldataload(0x04)\n      dup2\n      dup2\n      and\n      swap1\n      dup2\n      swap1\n      sub\n      tag_30\n      jumpi\n      0x00\n      mstore\n      mstore(0x20, 0x01)\n      keccak256(0x00, 0x40)\n      swap1\n      dup2\n      0x0200\n      mstore\n      dup2\n      sload\n      and\n        /* \"userRegistration.sol\":979:1016  mapping(address => User) public users */\n      swap1\n        /* \"userRegistration.sol\":60:5248  contract userRegistration {... */\n      0x01\n        /* \"userRegistration.sol\":979:1016  mapping(address => User) public users */\n      add\n      tag_88\n      swap1\n      tag_5\n      jump\t// in\n    tag_88:\n        /* \"userRegistration.sol\":60:5248  contract userRegistration {... */\n      0xe0\n        /* \"userRegistration.sol\":979:1016  mapping(address => User) public users */\n      mstore\n        /* \"userRegistration.sol\":60:5248  contract userRegistration {... */\n      0x0200\n        /* \"userRegistration.sol\":979:1016  mapping(address => User) public users */\n      mload\n      0x02\n      add\n      tag_89\n      swap1\n      tag_5\n      jump\t// in\n    tag_89:\n      0x0100\n      mstore\n        /* \"userRegistration.sol\":60:5248  contract userRegistration {... */\n      0x0200\n        /* \"userRegistration.sol\":979:1016  mapping(address => User) public users */\n      mload\n        /* \"userRegistration.sol\":60:5248  contract userRegistration {... */\n      0x03\n        /* \"userRegistration.sol\":979:1016  mapping(address => User) public users */\n      dup2\n      add\n        /* \"userRegistration.sol\":60:5248  contract userRegistration {... */\n      sload\n      0xc0\n      mstore\n      0x04\n        /* \"userRegistration.sol\":979:1016  mapping(address => User) public users */\n      add\n      tag_90\n      swap1\n      tag_5\n      jump\t// in\n    tag_90:\n        /* \"userRegistration.sol\":60:5248  contract userRegistration {... */\n      0x0200\n        /* \"userRegistration.sol\":979:1016  mapping(address => User) public users */\n      mload\n      0x05\n      add\n      tag_91\n      swap1\n      tag_5\n      jump\t// in\n    tag_91:\n        /* \"userRegistration.sol\":60:5248  contract userRegistration {... */\n      0x0200\n        /* \"userRegistration.sol\":979:1016  mapping(address => User) public users */\n      mload\n      0x06\n      add\n      tag_92\n      swap1\n      tag_5\n      jump\t// in\n    tag_92:\n        /* \"userRegistration.sol\":60:5248  contract userRegistration {... */\n      0x0200\n        /* \"userRegistration.sol\":979:1016  mapping(address => User) public users */\n      mload\n      0x07\n      add\n      tag_93\n      swap1\n      tag_5\n      jump\t// in\n    tag_93:\n        /* \"userRegistration.sol\":60:5248  contract userRegistration {... */\n      0x0200\n        /* \"userRegistration.sol\":979:1016  mapping(address => User) public users */\n      mload\n      0x08\n      add\n      tag_94\n      swap1\n      tag_5\n      jump\t// in\n    tag_94:\n        /* \"userRegistration.sol\":60:5248  contract userRegistration {... */\n      0x0200\n        /* \"userRegistration.sol\":979:1016  mapping(address => User) public users */\n      mload\n      0x09\n      add\n      tag_95\n      swap1\n      tag_5\n      jump\t// in\n    tag_95:\n        /* \"userRegistration.sol\":60:5248  contract userRegistration {... */\n      0x0200\n        /* \"userRegistration.sol\":979:1016  mapping(address => User) public users */\n      mload\n      0x0a\n      add\n      tag_96\n      swap1\n      tag_5\n      jump\t// in\n    tag_96:\n      swap2\n        /* \"userRegistration.sol\":60:5248  contract userRegistration {... */\n      0x0200\n        /* \"userRegistration.sol\":979:1016  mapping(address => User) public users */\n      mload\n      0x0b\n      add\n      tag_97\n      swap1\n      tag_5\n      jump\t// in\n    tag_97:\n      swap4\n        /* \"userRegistration.sol\":60:5248  contract userRegistration {... */\n      0x0200\n        /* \"userRegistration.sol\":979:1016  mapping(address => User) public users */\n      mload\n      0x0c\n      add\n      tag_98\n      swap1\n      tag_5\n      jump\t// in\n    tag_98:\n      swap6\n        /* \"userRegistration.sol\":60:5248  contract userRegistration {... */\n      0x0200\n        /* \"userRegistration.sol\":979:1016  mapping(address => User) public users */\n      mload\n      0x0d\n      add\n      tag_99\n      swap1\n      tag_5\n      jump\t// in\n    tag_99:\n      swap8\n        /* \"userRegistration.sol\":60:5248  contract userRegistration {... */\n      0x0200\n        /* \"userRegistration.sol\":979:1016  mapping(address => User) public users */\n      mload\n      0x0e\n      add\n      tag_100\n      swap1\n      tag_5\n      jump\t// in\n    tag_100:\n      swap10\n        /* \"userRegistration.sol\":60:5248  contract userRegistration {... */\n      0x0200\n        /* \"userRegistration.sol\":979:1016  mapping(address => User) public users */\n      mload\n      0x0f\n      add\n      tag_101\n      swap1\n      tag_5\n      jump\t// in\n    tag_101:\n      swap12\n        /* \"userRegistration.sol\":60:5248  contract userRegistration {... */\n      0x0200\n        /* \"userRegistration.sol\":979:1016  mapping(address => User) public users */\n      mload\n      0x10\n      add\n      tag_102\n      swap1\n      tag_5\n      jump\t// in\n    tag_102:\n      0x0280\n      mstore\n        /* \"userRegistration.sol\":60:5248  contract userRegistration {... */\n      0x0200\n        /* \"userRegistration.sol\":979:1016  mapping(address => User) public users */\n      mload\n      0x11\n      add\n      tag_103\n      swap1\n      tag_5\n      jump\t// in\n    tag_103:\n      0x01c0\n      mstore\n        /* \"userRegistration.sol\":60:5248  contract userRegistration {... */\n      0x0200\n        /* \"userRegistration.sol\":979:1016  mapping(address => User) public users */\n      mload\n      0x12\n      add\n      tag_104\n      swap1\n      tag_5\n      jump\t// in\n    tag_104:\n      0x0120\n      mstore\n        /* \"userRegistration.sol\":60:5248  contract userRegistration {... */\n      0x0200\n        /* \"userRegistration.sol\":979:1016  mapping(address => User) public users */\n      mload\n      0x13\n      add\n      tag_105\n      swap1\n      tag_5\n      jump\t// in\n    tag_105:\n      0x02c0\n      mstore\n        /* \"userRegistration.sol\":60:5248  contract userRegistration {... */\n      0x0200\n        /* \"userRegistration.sol\":979:1016  mapping(address => User) public users */\n      mload\n      0x14\n      add\n      tag_106\n      swap1\n      tag_5\n      jump\t// in\n    tag_106:\n      0x01e0\n      mstore\n        /* \"userRegistration.sol\":60:5248  contract userRegistration {... */\n      0x0200\n        /* \"userRegistration.sol\":979:1016  mapping(address => User) public users */\n      mload\n      0x15\n      add\n      tag_107\n      swap1\n      tag_5\n      jump\t// in\n    tag_107:\n      0x01a0\n      mstore\n        /* \"userRegistration.sol\":60:5248  contract userRegistration {... */\n      0x0200\n        /* \"userRegistration.sol\":979:1016  mapping(address => User) public users */\n      mload\n      0x16\n      add\n        /* \"userRegistration.sol\":60:5248  contract userRegistration {... */\n      sload\n      0x80\n      mstore\n      mload(0x40)\n      dup1\n      0x0140\n      mstore\n      mstore\n      0x0300\n      dup1\n      add(0x20, mload(0x0140))\n      mstore\n      mload(0x0140)\n      add\n      mload(0xe0)\n      swap1\n      tag_108\n      swap2\n      tag_3\n      jump\t// in\n    tag_108:\n      mload(0x0140)\n      dup1\n      dup3\n      sub\n      swap1\n      0x40\n      add\n      mstore\n        /* \"userRegistration.sol\":979:1016  mapping(address => User) public users */\n      0x0100\n        /* \"userRegistration.sol\":60:5248  contract userRegistration {... */\n      mload\n      swap1\n      tag_109\n      swap2\n      tag_3\n      jump\t// in\n    tag_109:\n      mstore(add(0x60, mload(0x0140)), mload(0xc0))\n      mload(0x0140)\n      dup1\n      dup3\n      sub\n      swap1\n      0x80\n      add\n      mstore\n      tag_110\n      swap2\n      tag_3\n      jump\t// in\n    tag_110:\n      mload(0x0140)\n      dup1\n      dup3\n      sub\n      swap1\n      0xa0\n      add\n      mstore\n      tag_111\n      swap2\n      tag_3\n      jump\t// in\n    tag_111:\n      mload(0x0140)\n      dup1\n      dup3\n      sub\n      swap1\n      0xc0\n      add\n      mstore\n      tag_112\n      swap2\n      tag_3\n      jump\t// in\n    tag_112:\n      mload(0x0140)\n      dup1\n      dup3\n      sub\n      swap1\n      0xe0\n      add\n      mstore\n      tag_113\n      swap2\n      tag_3\n      jump\t// in\n    tag_113:\n      mload(0x0140)\n      dup1\n      dup3\n      sub\n      swap1\n        /* \"userRegistration.sol\":979:1016  mapping(address => User) public users */\n      0x0100\n        /* \"userRegistration.sol\":60:5248  contract userRegistration {... */\n      add\n      mstore\n      tag_114\n      swap2\n      tag_3\n      jump\t// in\n    tag_114:\n      mload(0x0140)\n      dup1\n      dup3\n      sub\n      swap1\n        /* \"userRegistration.sol\":979:1016  mapping(address => User) public users */\n      0x0120\n        /* \"userRegistration.sol\":60:5248  contract userRegistration {... */\n      add\n      mstore\n      tag_115\n      swap2\n      tag_3\n      jump\t// in\n    tag_115:\n      mload(0x0140)\n      dup1\n      dup3\n      sub\n      swap1\n      0x0140\n      add\n      mstore\n      tag_116\n      swap2\n      tag_3\n      jump\t// in\n    tag_116:\n      mload(0x0140)\n      dup1\n      dup3\n      sub\n      swap1\n      0x0160\n      add\n      mstore\n      tag_117\n      swap2\n      tag_3\n      jump\t// in\n    tag_117:\n      mload(0x0140)\n      dup1\n      dup3\n      sub\n      swap1\n      0x0180\n      add\n      mstore\n      tag_118\n      swap2\n      tag_3\n      jump\t// in\n    tag_118:\n      mload(0x0140)\n      dup1\n      dup3\n      sub\n      swap1\n        /* \"userRegistration.sol\":979:1016  mapping(address => User) public users */\n      0x01a0\n        /* \"userRegistration.sol\":60:5248  contract userRegistration {... */\n      add\n      mstore\n      tag_119\n      swap2\n      tag_3\n      jump\t// in\n    tag_119:\n      mload(0x0140)\n      dup1\n      dup3\n      sub\n      swap1\n        /* \"userRegistration.sol\":979:1016  mapping(address => User) public users */\n      0x01c0\n        /* \"userRegistration.sol\":60:5248  contract userRegistration {... */\n      add\n      mstore\n      tag_120\n      swap2\n      tag_3\n      jump\t// in\n    tag_120:\n      mload(0x0140)\n      dup1\n      dup3\n      sub\n      swap1\n        /* \"userRegistration.sol\":979:1016  mapping(address => User) public users */\n      0x01e0\n        /* \"userRegistration.sol\":60:5248  contract userRegistration {... */\n      add\n      mstore\n      tag_121\n      swap2\n      tag_3\n      jump\t// in\n    tag_121:\n      mload(0x0140)\n      dup1\n      dup3\n      sub\n      swap1\n      0x0200\n      add\n      mstore\n        /* \"userRegistration.sol\":979:1016  mapping(address => User) public users */\n      0x0280\n        /* \"userRegistration.sol\":60:5248  contract userRegistration {... */\n      mload\n      swap1\n      tag_122\n      swap2\n      tag_3\n      jump\t// in\n    tag_122:\n      mload(0x0140)\n      dup1\n      dup3\n      sub\n      swap1\n      0x0220\n      add\n      mstore\n        /* \"userRegistration.sol\":979:1016  mapping(address => User) public users */\n      0x01c0\n        /* \"userRegistration.sol\":60:5248  contract userRegistration {... */\n      mload\n      swap1\n      tag_123\n      swap2\n      tag_3\n      jump\t// in\n    tag_123:\n      mload(0x0140)\n      dup1\n      dup3\n      sub\n      swap1\n      0x0240\n      add\n      mstore\n        /* \"userRegistration.sol\":979:1016  mapping(address => User) public users */\n      0x0120\n        /* \"userRegistration.sol\":60:5248  contract userRegistration {... */\n      mload\n      swap1\n      tag_124\n      swap2\n      tag_3\n      jump\t// in\n    tag_124:\n      mload(0x0140)\n      dup1\n      dup3\n      sub\n      swap1\n      0x0260\n      add\n      mstore\n        /* \"userRegistration.sol\":979:1016  mapping(address => User) public users */\n      0x02c0\n        /* \"userRegistration.sol\":60:5248  contract userRegistration {... */\n      mload\n      swap1\n      tag_125\n      swap2\n      tag_3\n      jump\t// in\n    tag_125:\n      mload(0x0140)\n      dup1\n      dup3\n      sub\n      swap1\n        /* \"userRegistration.sol\":979:1016  mapping(address => User) public users */\n      0x0280\n        /* \"userRegistration.sol\":60:5248  contract userRegistration {... */\n      add\n      mstore\n        /* \"userRegistration.sol\":979:1016  mapping(address => User) public users */\n      0x01e0\n        /* \"userRegistration.sol\":60:5248  contract userRegistration {... */\n      mload\n      swap1\n      tag_126\n      swap2\n      tag_3\n      jump\t// in\n    tag_126:\n      mload(0x0140)\n      dup1\n      dup3\n      sub\n      swap1\n      0x02a0\n      add\n      mstore\n        /* \"userRegistration.sol\":979:1016  mapping(address => User) public users */\n      0x01a0\n        /* \"userRegistration.sol\":60:5248  contract userRegistration {... */\n      mload\n      swap1\n      tag_127\n      swap2\n      tag_3\n      jump\t// in\n    tag_127:\n      iszero(iszero(and(0xff, mload(0x80))))\n      mload(0x0140)\n        /* \"userRegistration.sol\":979:1016  mapping(address => User) public users */\n      0x02c0\n        /* \"userRegistration.sol\":60:5248  contract userRegistration {... */\n      add\n      mstore\n      mload(0x80)\n        /* \"userRegistration.sol\":979:1016  mapping(address => User) public users */\n      0x08\n        /* \"userRegistration.sol\":60:5248  contract userRegistration {... */\n      shr\n      0xff\n      and\n      iszero\n      iszero\n      add(0x02e0, mload(0x0140))\n      mstore\n      mload(0x0140)\n      dup1\n      swap2\n      sub\n      swap1\n      return\n    tag_20:\n      jumpi(tag_30, callvalue)\n      jumpi(tag_30, slt(add(not(0x03), calldatasize), 0x20))\n      calldataload(0x04)\n      sub(shl(0xa0, 0x01), 0x01)\n      dup2\n      dup2\n      and\n      swap2\n      dup3\n      swap1\n      sub\n      tag_30\n      jumpi\n      sload(0x00)\n      swap1\n      dup2\n      and\n        /* \"userRegistration.sol\":1282:1292  msg.sender */\n      caller\n        /* \"userRegistration.sol\":1282:1301  msg.sender == admin */\n      sub\n        /* \"userRegistration.sol\":60:5248  contract userRegistration {... */\n      tag_134\n      jumpi\n        /* \"userRegistration.sol\":5164:5187  _newAdmin != address(0) */\n      dup2\n      iszero\n        /* \"userRegistration.sol\":60:5248  contract userRegistration {... */\n      tag_136\n      jumpi\n      not(sub(shl(0xa0, 0x01), 0x01))\n      and\n      or\n      0x00\n      sstore\n      stop\n    tag_136:\n      mload(0x40)\n      shl(0xe5, 0x461bcd)\n      dup2\n      mstore\n      0x20\n      0x04\n      dup3\n      add\n      mstore\n      0x0f\n      0x24\n      dup3\n      add\n      mstore\n      shl(0x88, 0x496e76616c69642061646472657373)\n      0x44\n      dup3\n      add\n      mstore\n      0x64\n      swap1\n      revert\n    tag_134:\n      mload(0x40)\n      shl(0xe5, 0x461bcd)\n      dup2\n      mstore\n      0x20\n      0x04\n      dup3\n      add\n      mstore\n      0x26\n      0x24\n      dup3\n      add\n      mstore\n      0x4f6e6c79207468652061646d696e2063616e20706572666f726d207468697320\n      0x44\n      dup3\n      add\n      mstore\n      shl(0xd1, 0x30b1ba34b7b7)\n      0x64\n      dup3\n      add\n      mstore\n      0x84\n      swap1\n      revert\n    tag_18:\n      jumpi(tag_30, callvalue)\n      jumpi(tag_30, slt(add(not(0x03), calldatasize), 0x20))\n      calldataload(0x04)\n      sub(shl(0xa0, 0x01), 0x01)\n      dup2\n      and\n      swap1\n      dup2\n      swap1\n      sub\n      tag_30\n      jumpi\n      dup1\n      0x00\n      mstore\n      mstore(0x20, 0x01)\n      0xff\n        /* \"userRegistration.sol\":4832:4864  users[_userAddress].isRegistered */\n      0x16\n        /* \"userRegistration.sol\":60:5248  contract userRegistration {... */\n      keccak256(0x00, 0x40)\n        /* \"userRegistration.sol\":4832:4864  users[_userAddress].isRegistered */\n      add\n        /* \"userRegistration.sol\":60:5248  contract userRegistration {... */\n      sload\n      0x08\n      shr\n      and\n      iszero\n      tag_144\n      jumpi\n      0x00\n      mstore\n      mstore(0x20, 0x01)\n      tag_146\n      keccak256(0x00, 0x40)\n      tag_147\n      tag_148\n        /* \"userRegistration.sol\":4940:4965  users[_userAddress].email */\n      0x0c\n        /* \"userRegistration.sol\":60:5248  contract userRegistration {... */\n      tag_149\n        /* \"userRegistration.sol\":4910:4938  users[_userAddress].fullName */\n      0x02\n      dup6\n      add\n        /* \"userRegistration.sol\":60:5248  contract userRegistration {... */\n      tag_5\n      jump\t// in\n    tag_149:\n        /* \"userRegistration.sol\":4940:4965  users[_userAddress].email */\n      swap4\n      add\n        /* \"userRegistration.sol\":60:5248  contract userRegistration {... */\n      tag_5\n      jump\t// in\n    tag_148:\n      mload(0x40)\n      swap4\n      dup5\n      swap4\n      0x40\n      dup6\n      mstore\n      0x40\n      dup6\n      add\n      swap1\n      tag_3\n      jump\t// in\n    tag_146:\n      swap1\n      dup4\n      dup3\n      sub\n      0x20\n      dup6\n      add\n      mstore\n      tag_3\n      jump\t// in\n    tag_147:\n      sub\n      swap1\n      return\n    tag_144:\n      mload(0x40)\n      shl(0xe5, 0x461bcd)\n      dup2\n      mstore\n      0x20\n      0x04\n      dup3\n      add\n      mstore\n        /* \"userRegistration.sol\":4832:4864  users[_userAddress].isRegistered */\n      0x16\n        /* \"userRegistration.sol\":60:5248  contract userRegistration {... */\n      0x24\n      dup3\n      add\n      mstore\n      shl(0x52, 0x155cd95c881a5cc81b9bdd081c9959da5cdd195c9959)\n      0x44\n      dup3\n      add\n      mstore\n      0x64\n      swap1\n      revert\n    tag_16:\n      jumpi(tag_30, callvalue)\n      jumpi(tag_30, slt(add(not(0x03), calldatasize), 0x02c0))\n      calldataload(0x04)\n      sub(shl(0x40, 0x01), 0x01)\n      dup2\n      gt\n      tag_30\n      jumpi\n      tag_156\n      swap1\n      calldatasize\n      swap1\n      0x04\n      add\n      tag_2\n      jump\t// in\n    tag_156:\n      0x02e0\n      mstore\n      calldataload(0x24)\n      sub(shl(0x40, 0x01), 0x01)\n      dup2\n      gt\n      tag_30\n      jumpi\n      tag_159\n      swap1\n      calldatasize\n      swap1\n      0x04\n      add\n      tag_2\n      jump\t// in\n    tag_159:\n      0x0180\n      mstore\n      calldataload(0x64)\n      sub(shl(0x40, 0x01), 0x01)\n      dup2\n      gt\n      tag_30\n      jumpi\n      tag_162\n      swap1\n      calldatasize\n      swap1\n      0x04\n      add\n      tag_2\n      jump\t// in\n    tag_162:\n      0x02a0\n      mstore\n      calldataload(0x84)\n      sub(shl(0x40, 0x01), 0x01)\n      dup2\n      gt\n      tag_30\n      jumpi\n      tag_165\n      swap1\n      calldatasize\n      swap1\n      0x04\n      add\n      tag_2\n      jump\t// in\n    tag_165:\n      calldataload(0xa4)\n      sub(shl(0x40, 0x01), 0x01)\n      dup2\n      gt\n      tag_30\n      jumpi\n      tag_168\n      swap1\n      calldatasize\n      swap1\n      0x04\n      add\n      tag_2\n      jump\t// in\n    tag_168:\n      calldataload(0xc4)\n      sub(shl(0x40, 0x01), 0x01)\n      dup2\n      gt\n      tag_30\n      jumpi\n      tag_171\n      swap1\n      calldatasize\n      swap1\n      0x04\n      add\n      tag_2\n      jump\t// in\n    tag_171:\n      calldataload(0xe4)\n      sub(shl(0x40, 0x01), 0x01)\n      dup2\n      gt\n      tag_30\n      jumpi\n      tag_174\n      swap1\n      calldatasize\n      swap1\n      0x04\n      add\n      tag_2\n      jump\t// in\n    tag_174:\n      calldataload(0x0104)\n      sub(shl(0x40, 0x01), 0x01)\n      dup2\n      gt\n      tag_30\n      jumpi\n      tag_177\n      swap1\n      calldatasize\n      swap1\n      0x04\n      add\n      tag_2\n      jump\t// in\n    tag_177:\n      calldataload(0x0124)\n      sub(shl(0x40, 0x01), 0x01)\n      dup2\n      gt\n      tag_30\n      jumpi\n      tag_180\n      swap1\n      calldatasize\n      swap1\n      0x04\n      add\n      tag_2\n      jump\t// in\n    tag_180:\n      jumpi(tag_30, gt(calldataload(0x0144), sub(shl(0x40, 0x01), 0x01)))\n      tag_183\n      calldatasize\n      add(0x04, calldataload(0x0144))\n      tag_2\n      jump\t// in\n    tag_183:\n      jumpi(tag_30, gt(calldataload(0x0164), sub(shl(0x40, 0x01), 0x01)))\n      tag_186\n      calldatasize\n      add(0x04, calldataload(0x0164))\n      tag_2\n      jump\t// in\n    tag_186:\n      0x0160\n      mstore\n      jumpi(tag_30, gt(calldataload(0x0184), sub(shl(0x40, 0x01), 0x01)))\n      tag_189\n      calldatasize\n      add(0x04, calldataload(0x0184))\n      tag_2\n      jump\t// in\n    tag_189:\n      swap1\n      jumpi(tag_30, gt(calldataload(0x01a4), sub(shl(0x40, 0x01), 0x01)))\n      tag_192\n      calldatasize\n      add(0x04, calldataload(0x01a4))\n      tag_2\n      jump\t// in\n    tag_192:\n      swap3\n      jumpi(tag_30, gt(calldataload(0x01c4), sub(shl(0x40, 0x01), 0x01)))\n      tag_195\n      calldatasize\n      add(0x04, calldataload(0x01c4))\n      tag_2\n      jump\t// in\n    tag_195:\n      swap5\n      jumpi(tag_30, gt(calldataload(0x01e4), sub(shl(0x40, 0x01), 0x01)))\n      tag_198\n      calldatasize\n      add(0x04, calldataload(0x01e4))\n      tag_2\n      jump\t// in\n    tag_198:\n      swap7\n      jumpi(tag_30, gt(calldataload(0x0204), sub(shl(0x40, 0x01), 0x01)))\n      tag_201\n      calldatasize\n      add(0x04, calldataload(0x0204))\n      tag_2\n      jump\t// in\n    tag_201:\n      swap9\n      jumpi(tag_30, gt(calldataload(0x0224), sub(shl(0x40, 0x01), 0x01)))\n      tag_204\n      calldatasize\n      add(0x04, calldataload(0x0224))\n      tag_2\n      jump\t// in\n    tag_204:\n      swap11\n      jumpi(tag_30, gt(calldataload(0x0244), sub(shl(0x40, 0x01), 0x01)))\n      tag_207\n      calldatasize\n      add(0x04, calldataload(0x0244))\n      tag_2\n      jump\t// in\n    tag_207:\n      0x0260\n      mstore\n      jumpi(tag_30, gt(calldataload(0x0264), sub(shl(0x40, 0x01), 0x01)))\n      tag_210\n      calldatasize\n      add(0x04, calldataload(0x0264))\n      tag_2\n      jump\t// in\n    tag_210:\n      0xa0\n      mstore\n      jumpi(tag_30, gt(calldataload(0x0284), sub(shl(0x40, 0x01), 0x01)))\n      tag_213\n      calldatasize\n      add(0x04, calldataload(0x0284))\n      tag_2\n      jump\t// in\n    tag_213:\n      0x0240\n      mstore\n      calldataload(0x02a4)\n      swap13\n      dup14\n      dup1\n      iszero\n      iszero\n      sub\n      tag_30\n      jumpi\n        /* \"userRegistration.sol\":2521:2531  msg.sender */\n      caller\n        /* \"userRegistration.sol\":60:5248  contract userRegistration {... */\n      0x00\n      mstore\n      mstore(0x20, 0x01)\n      0xff\n        /* \"userRegistration.sol\":2515:2545  users[msg.sender].isRegistered */\n      0x16\n        /* \"userRegistration.sol\":60:5248  contract userRegistration {... */\n      keccak256(0x00, 0x40)\n        /* \"userRegistration.sol\":2515:2545  users[msg.sender].isRegistered */\n      add\n        /* \"userRegistration.sol\":60:5248  contract userRegistration {... */\n      sload\n      0x08\n      shr\n      and\n      tag_216\n      jumpi\n      0x0180\n        /* \"userRegistration.sol\":2595:2611  bytes(_fullName) */\n      mload\n        /* \"userRegistration.sol\":60:5248  contract userRegistration {... */\n      mload\n        /* \"userRegistration.sol\":2595:2622  bytes(_fullName).length > 0 */\n      iszero\n        /* \"userRegistration.sol\":60:5248  contract userRegistration {... */\n      tag_218\n      jumpi\n      calldataload(0x44)\n        /* \"userRegistration.sol\":2673:2689  _dateOfBirth > 0 */\n      iszero\n        /* \"userRegistration.sol\":60:5248  contract userRegistration {... */\n      tag_220\n      jumpi\n        /* \"userRegistration.sol\":2726:2786  require(bytes(_email).length > 0, \"Email must not be empty\") */\n      tag_222\n        /* \"userRegistration.sol\":60:5248  contract userRegistration {... */\n      0x0160\n        /* \"userRegistration.sol\":2734:2747  bytes(_email) */\n      mload\n        /* \"userRegistration.sol\":60:5248  contract userRegistration {... */\n      mload\n        /* \"userRegistration.sol\":2734:2758  bytes(_email).length > 0 */\n      iszero\n      iszero\n        /* \"userRegistration.sol\":2726:2786  require(bytes(_email).length > 0, \"Email must not be empty\") */\n      tag_6\n      jump\t// in\n    tag_222:\n        /* \"userRegistration.sol\":60:5248  contract userRegistration {... */\n      mload(0x40)\n      dup1\n      0x0220\n      mstore\n      dup1\n      0x0300\n      dup2\n      add\n      lt\n      sub(shl(0x40, 0x01), 0x01)\n      0x0300\n      dup4\n      add\n      gt\n      or\n      tag_56\n      jumpi\n      0x0300\n      dup2\n      add\n      0x40\n      mstore\n        /* \"userRegistration.sol\":2521:2531  msg.sender */\n      caller\n        /* \"userRegistration.sol\":60:5248  contract userRegistration {... */\n      swap1\n      mstore\n      mload(0x02e0)\n      0x20\n      0x0220\n        /* \"userRegistration.sol\":2821:3757  User({... */\n      mload\n      add\n        /* \"userRegistration.sol\":60:5248  contract userRegistration {... */\n      mstore\n      mload(0x0180)\n      0x40\n      0x0220\n        /* \"userRegistration.sol\":2821:3757  User({... */\n      mload\n      add\n        /* \"userRegistration.sol\":60:5248  contract userRegistration {... */\n      mstore\n      calldataload(0x44)\n      0x60\n      0x0220\n        /* \"userRegistration.sol\":2821:3757  User({... */\n      mload\n      add\n        /* \"userRegistration.sol\":60:5248  contract userRegistration {... */\n      mstore\n      mload(0x02a0)\n      0x80\n      0x0220\n        /* \"userRegistration.sol\":2821:3757  User({... */\n      mload\n      add\n        /* \"userRegistration.sol\":60:5248  contract userRegistration {... */\n      mstore\n      0xa0\n      0x0220\n        /* \"userRegistration.sol\":2821:3757  User({... */\n      mload\n      add\n        /* \"userRegistration.sol\":60:5248  contract userRegistration {... */\n      mstore\n      0xc0\n      0x0220\n        /* \"userRegistration.sol\":2821:3757  User({... */\n      mload\n      add\n        /* \"userRegistration.sol\":60:5248  contract userRegistration {... */\n      mstore\n      0xe0\n      0x0220\n        /* \"userRegistration.sol\":2821:3757  User({... */\n      mload\n      add\n        /* \"userRegistration.sol\":60:5248  contract userRegistration {... */\n      mstore\n      0x0100\n      0x0220\n        /* \"userRegistration.sol\":2821:3757  User({... */\n      mload\n      add\n        /* \"userRegistration.sol\":60:5248  contract userRegistration {... */\n      mstore\n      0x0120\n      0x0220\n        /* \"userRegistration.sol\":2821:3757  User({... */\n      mload\n      add\n        /* \"userRegistration.sol\":60:5248  contract userRegistration {... */\n      mstore\n      0x0140\n      0x0220\n        /* \"userRegistration.sol\":2821:3757  User({... */\n      mload\n      add\n        /* \"userRegistration.sol\":60:5248  contract userRegistration {... */\n      mstore\n      0x0160\n      0x0220\n        /* \"userRegistration.sol\":2821:3757  User({... */\n      mload\n      add\n        /* \"userRegistration.sol\":60:5248  contract userRegistration {... */\n      mstore\n      mload(0x0160)\n      0x0180\n      0x0220\n        /* \"userRegistration.sol\":2821:3757  User({... */\n      mload\n      add\n        /* \"userRegistration.sol\":60:5248  contract userRegistration {... */\n      mstore\n      0x01a0\n      0x0220\n        /* \"userRegistration.sol\":2821:3757  User({... */\n      mload\n      add\n        /* \"userRegistration.sol\":60:5248  contract userRegistration {... */\n      mstore\n      0x01c0\n      0x0220\n        /* \"userRegistration.sol\":2821:3757  User({... */\n      mload\n      add\n        /* \"userRegistration.sol\":60:5248  contract userRegistration {... */\n      mstore\n      0x01e0\n      0x0220\n        /* \"userRegistration.sol\":2821:3757  User({... */\n      mload\n      add\n        /* \"userRegistration.sol\":60:5248  contract userRegistration {... */\n      mstore\n      0x0200\n      0x0220\n        /* \"userRegistration.sol\":2821:3757  User({... */\n      mload\n      add\n        /* \"userRegistration.sol\":60:5248  contract userRegistration {... */\n      mstore\n      0x0220\n        /* \"userRegistration.sol\":2821:3757  User({... */\n      dup1\n      mload\n      add\n        /* \"userRegistration.sol\":60:5248  contract userRegistration {... */\n      mstore\n      0x0240\n      0x0220\n        /* \"userRegistration.sol\":2821:3757  User({... */\n      mload\n      add\n        /* \"userRegistration.sol\":60:5248  contract userRegistration {... */\n      mstore\n      mload(0x0260)\n      0x0260\n      0x0220\n        /* \"userRegistration.sol\":2821:3757  User({... */\n      mload\n      add\n        /* \"userRegistration.sol\":60:5248  contract userRegistration {... */\n      mstore\n      mload(0xa0)\n      0x0280\n      0x0220\n        /* \"userRegistration.sol\":2821:3757  User({... */\n      mload\n      add\n        /* \"userRegistration.sol\":60:5248  contract userRegistration {... */\n      mstore\n      mload(0x0240)\n      0x02a0\n      0x0220\n        /* \"userRegistration.sol\":2821:3757  User({... */\n      mload\n      add\n        /* \"userRegistration.sol\":60:5248  contract userRegistration {... */\n      mstore\n      iszero\n      iszero\n      0x02c0\n      0x0220\n        /* \"userRegistration.sol\":2821:3757  User({... */\n      mload\n      add\n        /* \"userRegistration.sol\":60:5248  contract userRegistration {... */\n      mstore\n      0x01\n      0x02e0\n      0x0220\n        /* \"userRegistration.sol\":2821:3757  User({... */\n      mload\n      add\n        /* \"userRegistration.sol\":60:5248  contract userRegistration {... */\n      mstore\n        /* \"userRegistration.sol\":2521:2531  msg.sender */\n      caller\n        /* \"userRegistration.sol\":60:5248  contract userRegistration {... */\n      0x00\n      mstore\n      mstore(0x20, 0x01)\n      keccak256(0x00, 0x40)\n      0x20\n      mload(0x0220)\n      0x01\n      dup1\n      0xa0\n      shl\n      sub\n      dup2\n      mload\n      and\n      shl(0xa0, 0xffffffffffffffffffffffff)\n      dup5\n      sload\n      and\n      or\n      dup4\n      sstore\n        /* \"userRegistration.sol\":2821:3757  User({... */\n      add\n        /* \"userRegistration.sol\":60:5248  contract userRegistration {... */\n      mload\n      dup1\n      mload\n      swap1\n      sub(shl(0x40, 0x01), 0x01)\n      dup3\n      gt\n      tag_56\n      jumpi\n      dup2\n      swap1\n      tag_227\n      0x01\n      dup6\n      add\n      sload\n      tag_4\n      jump\t// in\n    tag_227:\n      0x1f\n      dup2\n      gt\n      tag_228\n      jumpi\n    tag_229:\n      pop\n      0x20\n      swap1\n      0x1f\n      dup4\n      gt\n      0x01\n      eq\n      tag_230\n      jumpi\n      0x00\n      swap3\n      tag_232\n      jumpi\n    tag_233:\n      pop\n      pop\n      dup2\n      0x01\n      shl\n      swap2\n      not(0x00)\n      swap1\n      0x03\n      shl\n      shr\n      not\n      and\n      or\n      0x01\n      dup3\n      add\n      sstore\n    tag_234:\n      0x40\n      0x0220\n        /* \"userRegistration.sol\":2821:3757  User({... */\n      mload\n      add\n        /* \"userRegistration.sol\":60:5248  contract userRegistration {... */\n      mload\n      dup1\n      mload\n      swap1\n      sub(shl(0x40, 0x01), 0x01)\n      dup3\n      gt\n      tag_56\n      jumpi\n      dup2\n      swap1\n      tag_237\n      0x02\n      dup6\n      add\n      sload\n      tag_4\n      jump\t// in\n    tag_237:\n      0x1f\n      dup2\n      gt\n      tag_238\n      jumpi\n    tag_239:\n      pop\n      0x20\n      swap1\n      0x1f\n      dup4\n      gt\n      0x01\n      eq\n      tag_240\n      jumpi\n      0x00\n      swap3\n      tag_242\n      jumpi\n    tag_243:\n      pop\n      pop\n      dup2\n      0x01\n      shl\n      swap2\n      not(0x00)\n      swap1\n      0x03\n      shl\n      shr\n      not\n      and\n      or\n      0x02\n      dup3\n      add\n      sstore\n    tag_244:\n      0x80\n      0x0220\n        /* \"userRegistration.sol\":2821:3757  User({... */\n      mload\n        /* \"userRegistration.sol\":60:5248  contract userRegistration {... */\n      0x60\n        /* \"userRegistration.sol\":2821:3757  User({... */\n      dup2\n      add\n        /* \"userRegistration.sol\":60:5248  contract userRegistration {... */\n      mload\n      0x03\n      dup5\n      add\n      sstore\n        /* \"userRegistration.sol\":2821:3757  User({... */\n      add\n        /* \"userRegistration.sol\":60:5248  contract userRegistration {... */\n      mload\n      dup1\n      mload\n      swap1\n      sub(shl(0x40, 0x01), 0x01)\n      dup3\n      gt\n      tag_56\n      jumpi\n      dup2\n      swap1\n      tag_247\n      0x04\n      dup6\n      add\n      sload\n      tag_4\n      jump\t// in\n    tag_247:\n      0x1f\n      dup2\n      gt\n      tag_248\n      jumpi\n    tag_249:\n      pop\n      0x20\n      swap1\n      0x1f\n      dup4\n      gt\n      0x01\n      eq\n      tag_250\n      jumpi\n      0x00\n      swap3\n      tag_252\n      jumpi\n    tag_253:\n      pop\n      pop\n      dup2\n      0x01\n      shl\n      swap2\n      not(0x00)\n      swap1\n      0x03\n      shl\n      shr\n      not\n      and\n      or\n      0x04\n      dup3\n      add\n      sstore\n    tag_254:\n      0xa0\n      0x0220\n        /* \"userRegistration.sol\":2821:3757  User({... */\n      mload\n      add\n        /* \"userRegistration.sol\":60:5248  contract userRegistration {... */\n      mload\n      dup1\n      mload\n      swap1\n      sub(shl(0x40, 0x01), 0x01)\n      dup3\n      gt\n      tag_56\n      jumpi\n      dup2\n      swap1\n      tag_257\n      0x05\n      dup6\n      add\n      sload\n      tag_4\n      jump\t// in\n    tag_257:\n      0x1f\n      dup2\n      gt\n      tag_258\n      jumpi\n    tag_259:\n      pop\n      0x20\n      swap1\n      0x1f\n      dup4\n      gt\n      0x01\n      eq\n      tag_260\n      jumpi\n      0x00\n      swap3\n      tag_262\n      jumpi\n    tag_263:\n      pop\n      pop\n      dup2\n      0x01\n      shl\n      swap2\n      not(0x00)\n      swap1\n      0x03\n      shl\n      shr\n      not\n      and\n      or\n      0x05\n      dup3\n      add\n      sstore\n    tag_264:\n      0xc0\n      0x0220\n        /* \"userRegistration.sol\":2821:3757  User({... */\n      mload\n      add\n        /* \"userRegistration.sol\":60:5248  contract userRegistration {... */\n      mload\n      dup1\n      mload\n      swap1\n      sub(shl(0x40, 0x01), 0x01)\n      dup3\n      gt\n      tag_56\n      jumpi\n      dup2\n      swap1\n      tag_267\n      0x06\n      dup6\n      add\n      sload\n      tag_4\n      jump\t// in\n    tag_267:\n      0x1f\n      dup2\n      gt\n      tag_268\n      jumpi\n    tag_269:\n      pop\n      0x20\n      swap1\n      0x1f\n      dup4\n      gt\n      0x01\n      eq\n      tag_270\n      jumpi\n      0x00\n      swap3\n      tag_272\n      jumpi\n    tag_273:\n      pop\n      pop\n      dup2\n      0x01\n      shl\n      swap2\n      not(0x00)\n      swap1\n      0x03\n      shl\n      shr\n      not\n      and\n      or\n      0x06\n      dup3\n      add\n      sstore\n    tag_274:\n      0xe0\n      0x0220\n        /* \"userRegistration.sol\":2821:3757  User({... */\n      mload\n      add\n        /* \"userRegistration.sol\":60:5248  contract userRegistration {... */\n      mload\n      dup1\n      mload\n      swap1\n      sub(shl(0x40, 0x01), 0x01)\n      dup3\n      gt\n      tag_56\n      jumpi\n      dup2\n      swap1\n      tag_277\n      0x07\n      dup6\n      add\n      sload\n      tag_4\n      jump\t// in\n    tag_277:\n      0x1f\n      dup2\n      gt\n      tag_278\n      jumpi\n    tag_279:\n      pop\n      0x20\n      swap1\n      0x1f\n      dup4\n      gt\n      0x01\n      eq\n      tag_280\n      jumpi\n      0x00\n      swap3\n      tag_282\n      jumpi\n    tag_283:\n      pop\n      pop\n      dup2\n      0x01\n      shl\n      swap2\n      not(0x00)\n      swap1\n      0x03\n      shl\n      shr\n      not\n      and\n      or\n      0x07\n      dup3\n      add\n      sstore\n    tag_284:\n      0x0100\n      0x0220\n        /* \"userRegistration.sol\":2821:3757  User({... */\n      mload\n      add\n        /* \"userRegistration.sol\":60:5248  contract userRegistration {... */\n      mload\n      dup1\n      mload\n      swap1\n      sub(shl(0x40, 0x01), 0x01)\n      dup3\n      gt\n      tag_56\n      jumpi\n      dup2\n      swap1\n      tag_287\n      0x08\n      dup6\n      add\n      sload\n      tag_4\n      jump\t// in\n    tag_287:\n      0x1f\n      dup2\n      gt\n      tag_288\n      jumpi\n    tag_289:\n      pop\n      0x20\n      swap1\n      0x1f\n      dup4\n      gt\n      0x01\n      eq\n      tag_290\n      jumpi\n      0x00\n      swap3\n      tag_292\n      jumpi\n    tag_293:\n      pop\n      pop\n      dup2\n      0x01\n      shl\n      swap2\n      not(0x00)\n      swap1\n      0x03\n      shl\n      shr\n      not\n      and\n      or\n      0x08\n      dup3\n      add\n      sstore\n    tag_294:\n      0x0120\n      0x0220\n        /* \"userRegistration.sol\":2821:3757  User({... */\n      mload\n      add\n        /* \"userRegistration.sol\":60:5248  contract userRegistration {... */\n      mload\n      dup1\n      mload\n      swap1\n      sub(shl(0x40, 0x01), 0x01)\n      dup3\n      gt\n      tag_56\n      jumpi\n      dup2\n      swap1\n      tag_297\n      0x09\n      dup6\n      add\n      sload\n      tag_4\n      jump\t// in\n    tag_297:\n      0x1f\n      dup2\n      gt\n      tag_298\n      jumpi\n    tag_299:\n      pop\n      0x20\n      swap1\n      0x1f\n      dup4\n      gt\n      0x01\n      eq\n      tag_300\n      jumpi\n      0x00\n      swap3\n      tag_302\n      jumpi\n    tag_303:\n      pop\n      pop\n      dup2\n      0x01\n      shl\n      swap2\n      not(0x00)\n      swap1\n      0x03\n      shl\n      shr\n      not\n      and\n      or\n      0x09\n      dup3\n      add\n      sstore\n    tag_304:\n      0x0140\n      0x0220\n        /* \"userRegistration.sol\":2821:3757  User({... */\n      mload\n      add\n        /* \"userRegistration.sol\":60:5248  contract userRegistration {... */\n      mload\n      dup1\n      mload\n      swap1\n      sub(shl(0x40, 0x01), 0x01)\n      dup3\n      gt\n      tag_56\n      jumpi\n      dup2\n      swap1\n      tag_307\n      0x0a\n      dup6\n      add\n      sload\n      tag_4\n      jump\t// in\n    tag_307:\n      0x1f\n      dup2\n      gt\n      tag_308\n      jumpi\n    tag_309:\n      pop\n      0x20\n      swap1\n      0x1f\n      dup4\n      gt\n      0x01\n      eq\n      tag_310\n      jumpi\n      0x00\n      swap3\n      tag_312\n      jumpi\n    tag_313:\n      pop\n      pop\n      dup2\n      0x01\n      shl\n      swap2\n      not(0x00)\n      swap1\n      0x03\n      shl\n      shr\n      not\n      and\n      or\n      0x0a\n      dup3\n      add\n      sstore\n    tag_314:\n      0x0160\n      0x0220\n        /* \"userRegistration.sol\":2821:3757  User({... */\n      mload\n      add\n        /* \"userRegistration.sol\":60:5248  contract userRegistration {... */\n      mload\n      dup1\n      mload\n      swap1\n      sub(shl(0x40, 0x01), 0x01)\n      dup3\n      gt\n      tag_56\n      jumpi\n      dup2\n      swap1\n      tag_317\n      0x0b\n      dup6\n      add\n      sload\n      tag_4\n      jump\t// in\n    tag_317:\n      0x1f\n      dup2\n      gt\n      tag_318\n      jumpi\n    tag_319:\n      pop\n      0x20\n      swap1\n      0x1f\n      dup4\n      gt\n      0x01\n      eq\n      tag_320\n      jumpi\n      0x00\n      swap3\n      tag_322\n      jumpi\n    tag_323:\n      pop\n      pop\n      dup2\n      0x01\n      shl\n      swap2\n      not(0x00)\n      swap1\n      0x03\n      shl\n      shr\n      not\n      and\n      or\n      0x0b\n      dup3\n      add\n      sstore\n    tag_324:\n      0x0180\n      0x0220\n        /* \"userRegistration.sol\":2821:3757  User({... */\n      mload\n      add\n        /* \"userRegistration.sol\":60:5248  contract userRegistration {... */\n      mload\n      dup1\n      mload\n      swap1\n      sub(shl(0x40, 0x01), 0x01)\n      dup3\n      gt\n      tag_56\n      jumpi\n      dup2\n      swap1\n      tag_327\n      0x0c\n      dup6\n      add\n      sload\n      tag_4\n      jump\t// in\n    tag_327:\n      0x1f\n      dup2\n      gt\n      tag_328\n      jumpi\n    tag_329:\n      pop\n      0x20\n      swap1\n      0x1f\n      dup4\n      gt\n      0x01\n      eq\n      tag_330\n      jumpi\n      0x00\n      swap3\n      tag_332\n      jumpi\n    tag_333:\n      pop\n      pop\n      dup2\n      0x01\n      shl\n      swap2\n      not(0x00)\n      swap1\n      0x03\n      shl\n      shr\n      not\n      and\n      or\n      0x0c\n      dup3\n      add\n      sstore\n    tag_334:\n      0x01a0\n      0x0220\n        /* \"userRegistration.sol\":2821:3757  User({... */\n      mload\n      add\n        /* \"userRegistration.sol\":60:5248  contract userRegistration {... */\n      mload\n      dup1\n      mload\n      swap1\n      sub(shl(0x40, 0x01), 0x01)\n      dup3\n      gt\n      tag_56\n      jumpi\n      dup2\n      swap1\n      tag_337\n      0x0d\n      dup6\n      add\n      sload\n      tag_4\n      jump\t// in\n    tag_337:\n      0x1f\n      dup2\n      gt\n      tag_338\n      jumpi\n    tag_339:\n      pop\n      0x20\n      swap1\n      0x1f\n      dup4\n      gt\n      0x01\n      eq\n      tag_340\n      jumpi\n      0x00\n      swap3\n      tag_342\n      jumpi\n    tag_343:\n      pop\n      pop\n      dup2\n      0x01\n      shl\n      swap2\n      not(0x00)\n      swap1\n      0x03\n      shl\n      shr\n      not\n      and\n      or\n      0x0d\n      dup3\n      add\n      sstore\n    tag_344:\n      0x01c0\n      0x0220\n        /* \"userRegistration.sol\":2821:3757  User({... */\n      mload\n      add\n        /* \"userRegistration.sol\":60:5248  contract userRegistration {... */\n      mload\n      dup1\n      mload\n      swap1\n      sub(shl(0x40, 0x01), 0x01)\n      dup3\n      gt\n      tag_56\n      jumpi\n      dup2\n      swap1\n      tag_347\n      0x0e\n      dup6\n      add\n      sload\n      tag_4\n      jump\t// in\n    tag_347:\n      0x1f\n      dup2\n      gt\n      tag_348\n      jumpi\n    tag_349:\n      pop\n      0x20\n      swap1\n      0x1f\n      dup4\n      gt\n      0x01\n      eq\n      tag_350\n      jumpi\n      0x00\n      swap3\n      tag_352\n      jumpi\n    tag_353:\n      pop\n      pop\n      dup2\n      0x01\n      shl\n      swap2\n      not(0x00)\n      swap1\n      0x03\n      shl\n      shr\n      not\n      and\n      or\n      0x0e\n      dup3\n      add\n      sstore\n    tag_354:\n      0x01e0\n      0x0220\n        /* \"userRegistration.sol\":2821:3757  User({... */\n      mload\n      add\n        /* \"userRegistration.sol\":60:5248  contract userRegistration {... */\n      mload\n      dup1\n      mload\n      swap1\n      sub(shl(0x40, 0x01), 0x01)\n      dup3\n      gt\n      tag_56\n      jumpi\n      dup2\n      swap1\n      tag_357\n      0x0f\n      dup6\n      add\n      sload\n      tag_4\n      jump\t// in\n    tag_357:\n      0x1f\n      dup2\n      gt\n      tag_358\n      jumpi\n    tag_359:\n      pop\n      0x20\n      swap1\n      0x1f\n      dup4\n      gt\n      0x01\n      eq\n      tag_360\n      jumpi\n      0x00\n      swap3\n      tag_362\n      jumpi\n    tag_363:\n      pop\n      pop\n      dup2\n      0x01\n      shl\n      swap2\n      not(0x00)\n      swap1\n      0x03\n      shl\n      shr\n      not\n      and\n      or\n      0x0f\n      dup3\n      add\n      sstore\n    tag_364:\n      0x0200\n      0x0220\n        /* \"userRegistration.sol\":2821:3757  User({... */\n      mload\n      add\n        /* \"userRegistration.sol\":60:5248  contract userRegistration {... */\n      mload\n      dup1\n      mload\n      swap1\n      sub(shl(0x40, 0x01), 0x01)\n      dup3\n      gt\n      tag_56\n      jumpi\n      dup2\n      swap1\n      tag_367\n      0x10\n      dup6\n      add\n      sload\n      tag_4\n      jump\t// in\n    tag_367:\n      0x1f\n      dup2\n      gt\n      tag_368\n      jumpi\n    tag_369:\n      pop\n      0x20\n      swap1\n      0x1f\n      dup4\n      gt\n      0x01\n      eq\n      tag_370\n      jumpi\n      0x00\n      swap3\n      tag_372\n      jumpi\n    tag_373:\n      pop\n      pop\n      dup2\n      0x01\n      shl\n      swap2\n      not(0x00)\n      swap1\n      0x03\n      shl\n      shr\n      not\n      and\n      or\n      0x10\n      dup3\n      add\n      sstore\n    tag_374:\n      0x0220\n        /* \"userRegistration.sol\":2821:3757  User({... */\n      dup1\n      mload\n      add\n        /* \"userRegistration.sol\":60:5248  contract userRegistration {... */\n      mload\n      dup1\n      mload\n      swap1\n      sub(shl(0x40, 0x01), 0x01)\n      dup3\n      gt\n      tag_56\n      jumpi\n      dup2\n      swap1\n      tag_377\n      0x11\n      dup6\n      add\n      sload\n      tag_4\n      jump\t// in\n    tag_377:\n      0x1f\n      dup2\n      gt\n      tag_378\n      jumpi\n    tag_379:\n      pop\n      0x20\n      swap1\n      0x1f\n      dup4\n      gt\n      0x01\n      eq\n      tag_380\n      jumpi\n      0x00\n      swap3\n      tag_382\n      jumpi\n    tag_383:\n      pop\n      pop\n      dup2\n      0x01\n      shl\n      swap2\n      not(0x00)\n      swap1\n      0x03\n      shl\n      shr\n      not\n      and\n      or\n      0x11\n      dup3\n      add\n      sstore\n    tag_384:\n      0x0240\n      0x0220\n        /* \"userRegistration.sol\":2821:3757  User({... */\n      mload\n      add\n        /* \"userRegistration.sol\":60:5248  contract userRegistration {... */\n      mload\n      dup1\n      mload\n      swap1\n      sub(shl(0x40, 0x01), 0x01)\n      dup3\n      gt\n      tag_56\n      jumpi\n      dup2\n      swap1\n      tag_387\n      0x12\n      dup6\n      add\n      sload\n      tag_4\n      jump\t// in\n    tag_387:\n      0x1f\n      dup2\n      gt\n      tag_388\n      jumpi\n    tag_389:\n      pop\n      0x20\n      swap1\n      0x1f\n      dup4\n      gt\n      0x01\n      eq\n      tag_390\n      jumpi\n      0x00\n      swap3\n      tag_392\n      jumpi\n    tag_393:\n      pop\n      pop\n      dup2\n      0x01\n      shl\n      swap2\n      not(0x00)\n      swap1\n      0x03\n      shl\n      shr\n      not\n      and\n      or\n      0x12\n      dup3\n      add\n      sstore\n    tag_394:\n      0x0260\n      0x0220\n        /* \"userRegistration.sol\":2821:3757  User({... */\n      mload\n      add\n        /* \"userRegistration.sol\":60:5248  contract userRegistration {... */\n      mload\n      dup1\n      mload\n      swap1\n      sub(shl(0x40, 0x01), 0x01)\n      dup3\n      gt\n      tag_56\n      jumpi\n      dup2\n      swap1\n      tag_397\n      0x13\n      dup6\n      add\n      sload\n      tag_4\n      jump\t// in\n    tag_397:\n      0x1f\n      dup2\n      gt\n      tag_398\n      jumpi\n    tag_399:\n      pop\n      0x20\n      swap1\n      0x1f\n      dup4\n      gt\n      0x01\n      eq\n      tag_400\n      jumpi\n      0x00\n      swap3\n      tag_402\n      jumpi\n    tag_403:\n      pop\n      pop\n      dup2\n      0x01\n      shl\n      swap2\n      not(0x00)\n      swap1\n      0x03\n      shl\n      shr\n      not\n      and\n      or\n      0x13\n      dup3\n      add\n      sstore\n    tag_404:\n      0x0280\n      0x0220\n        /* \"userRegistration.sol\":2821:3757  User({... */\n      mload\n      add\n        /* \"userRegistration.sol\":60:5248  contract userRegistration {... */\n      mload\n      dup1\n      mload\n      swap1\n      sub(shl(0x40, 0x01), 0x01)\n      dup3\n      gt\n      tag_56\n      jumpi\n      dup2\n      swap1\n      tag_407\n      0x14\n      dup6\n      add\n      sload\n      tag_4\n      jump\t// in\n    tag_407:\n      0x1f\n      dup2\n      gt\n      tag_408\n      jumpi\n    tag_409:\n      pop\n      0x20\n      swap1\n      0x1f\n      dup4\n      gt\n      0x01\n      eq\n      tag_410\n      jumpi\n      0x00\n      swap3\n      tag_412\n      jumpi\n    tag_413:\n      pop\n      pop\n      dup2\n      0x01\n      shl\n      swap2\n      not(0x00)\n      swap1\n      0x03\n      shl\n      shr\n      not\n      and\n      or\n      0x14\n      dup3\n      add\n      sstore\n    tag_414:\n      0x15\n      dup2\n      add\n        /* \"userRegistration.sol\":2821:3757  User({... */\n      swap1\n        /* \"userRegistration.sol\":60:5248  contract userRegistration {... */\n      0x02a0\n      0x0220\n        /* \"userRegistration.sol\":2821:3757  User({... */\n      mload\n      add\n        /* \"userRegistration.sol\":60:5248  contract userRegistration {... */\n      mload\n      swap2\n      dup3\n      mload\n      swap3\n      sub(shl(0x40, 0x01), 0x01)\n      dup5\n      gt\n      tag_56\n      jumpi\n      tag_417\n      dup3\n      sload\n      tag_4\n      jump\t// in\n    tag_417:\n      0x1f\n      dup2\n      gt\n      tag_418\n      jumpi\n    tag_419:\n      pop\n      0x20\n      swap1\n      0x1f\n      dup6\n      gt\n      0x01\n      eq\n      tag_420\n      jumpi\n        /* \"userRegistration.sol\":2515:2545  users[msg.sender].isRegistered */\n      0x16\n      swap5\n        /* \"userRegistration.sol\":60:5248  contract userRegistration {... */\n      swap2\n      0x00\n      swap2\n      dup4\n      tag_422\n      jumpi\n    tag_423:\n      pop\n      pop\n      dup2\n      0x01\n      shl\n      swap2\n      not(0x00)\n      swap1\n      0x03\n      shl\n      shr\n      not\n      and\n      or\n      swap1\n      sstore\n    tag_424:\n      add\n      0x0220\n        /* \"userRegistration.sol\":2821:3757  User({... */\n      mload\n        /* \"userRegistration.sol\":60:5248  contract userRegistration {... */\n      0x02c0\n        /* \"userRegistration.sol\":2821:3757  User({... */\n      dup2\n      add\n        /* \"userRegistration.sol\":60:5248  contract userRegistration {... */\n      mload\n      iszero\n      iszero\n      swap1\n      0xff\n      0xff00\n      0x02e0\n      dup6\n      sload\n        /* \"userRegistration.sol\":2821:3757  User({... */\n      swap4\n      add\n        /* \"userRegistration.sol\":60:5248  contract userRegistration {... */\n      mload\n      iszero\n      iszero\n      0x08\n      shl\n      and\n      swap3\n      and\n      swap1\n      not(0xffff)\n      and\n      or\n      or\n      swap1\n      sstore\n      mload(0x40)\n      0x60\n      dup2\n      mstore\n        /* \"userRegistration.sol\":3813:3867  UserRegistered(msg.sender, _userID, _fullName, _email) */\n      0x509c70f523067009f7db7f46db6956d7af8b679323680dc3821a8bad001ac1e1\n        /* \"userRegistration.sol\":60:5248  contract userRegistration {... */\n      tag_425\n      tag_426\n      0x60\n      dup5\n      add\n      mload(0x02e0)\n      tag_3\n      jump\t// in\n    tag_426:\n      dup4\n      dup2\n      sub\n      0x20\n      dup6\n      add\n      mstore\n      mload(0x0180)\n      tag_3\n      jump\t// in\n    tag_425:\n      swap2\n      dup1\n      dup4\n      sub\n      0x40\n      dup3\n      add\n      mstore\n        /* \"userRegistration.sol\":2521:2531  msg.sender */\n      dup1\n        /* \"userRegistration.sol\":60:5248  contract userRegistration {... */\n      tag_427\n        /* \"userRegistration.sol\":2521:2531  msg.sender */\n      caller\n        /* \"userRegistration.sol\":60:5248  contract userRegistration {... */\n      swap5\n      mload(0x0160)\n      tag_3\n      jump\t// in\n    tag_427:\n        /* \"userRegistration.sol\":3813:3867  UserRegistered(msg.sender, _userID, _fullName, _email) */\n      sub\n      swap1\n      log2\n        /* \"userRegistration.sol\":60:5248  contract userRegistration {... */\n      stop\n    tag_422:\n      add\n      mload\n      swap1\n      pop\n      dup6\n      dup1\n      jump(tag_423)\n    tag_420:\n      swap1\n      not(0x1f)\n      dup6\n      and\n      swap2\n      dup4\n      0x00\n      mstore\n      keccak256(0x00, 0x20)\n      swap3\n      0x00\n    tag_428:\n      dup2\n      dup2\n      lt\n      tag_429\n      jumpi\n      pop\n      swap2\n      0x01\n      swap4\n      swap2\n      dup8\n        /* \"userRegistration.sol\":2515:2545  users[msg.sender].isRegistered */\n      0x16\n        /* \"userRegistration.sol\":60:5248  contract userRegistration {... */\n      swap9\n      swap5\n      lt\n      tag_431\n      jumpi\n    tag_432:\n      pop\n      pop\n      pop\n      dup2\n      shl\n      add\n      swap1\n      sstore\n      jump(tag_424)\n    tag_431:\n      add\n      mload\n      not(0x00)\n      0xf8\n      dup5\n      0x03\n      shl\n      and\n      shr\n      not\n      and\n      swap1\n      sstore\n      dup6\n      dup1\n      dup1\n      jump(tag_432)\n    tag_429:\n      swap3\n      swap4\n      0x20\n      0x01\n      dup2\n      swap3\n      dup8\n      dup7\n      add\n      mload\n      dup2\n      sstore\n      add\n      swap6\n      add\n      swap4\n      add\n      jump(tag_428)\n    tag_418:\n      tag_433\n      swap1\n      dup4\n      0x00\n      mstore\n      keccak256(0x00, 0x20)\n      0x1f\n      dup8\n      add\n      0x05\n      shr\n      dup2\n      add\n      swap2\n      0x20\n      dup9\n      lt\n      tag_434\n      jumpi\n    tag_435:\n      0x1f\n      add\n      0x05\n      shr\n      add\n      swap1\n      tag_7\n      jump\t// in\n    tag_433:\n      dup5\n      jump(tag_419)\n    tag_434:\n      swap1\n      swap2\n      pop\n      dup2\n      swap1\n      jump(tag_435)\n    tag_412:\n      add\n      mload\n      swap1\n      pop\n      dup4\n      dup1\n      jump(tag_413)\n    tag_410:\n      swap3\n      pop\n      0x14\n      dup5\n      add\n      0x00\n      mstore\n      keccak256(0x00, 0x20)\n      swap1\n      0x00\n      swap4\n    tag_436:\n      not(0x1f)\n      dup5\n      and\n      dup6\n      lt\n      tag_437\n      jumpi\n      0x01\n      swap5\n      pop\n      dup4\n      not(0x1f)\n      dup2\n      and\n      lt\n      tag_439\n      jumpi\n    tag_440:\n      pop\n      pop\n      pop\n      dup2\n      shl\n      add\n      0x14\n      dup3\n      add\n      sstore\n      jump(tag_414)\n    tag_439:\n      add\n      mload\n      not(0x00)\n      0xf8\n      dup5\n      0x03\n      shl\n      and\n      shr\n      not\n      and\n      swap1\n      sstore\n      dup4\n      dup1\n      dup1\n      jump(tag_440)\n    tag_437:\n      dup2\n      dup2\n      add\n      mload\n      dup4\n      sstore\n      0x20\n      swap5\n      dup6\n      add\n      swap5\n      0x01\n      swap1\n      swap4\n      add\n      swap3\n      swap1\n      swap2\n      add\n      swap1\n      jump(tag_436)\n    tag_408:\n      tag_441\n      swap1\n      0x14\n      dup7\n      add\n      0x00\n      mstore\n      keccak256(0x00, 0x20)\n      0x1f\n      dup6\n      add\n      0x05\n      shr\n      dup2\n      add\n      swap2\n      0x20\n      dup7\n      lt\n      tag_434\n      jumpi\n      0x1f\n      add\n      0x05\n      shr\n      add\n      swap1\n      tag_7\n      jump\t// in\n    tag_441:\n      dup5\n      jump(tag_409)\n    tag_402:\n      add\n      mload\n      swap1\n      pop\n      dup4\n      dup1\n      jump(tag_403)\n    tag_400:\n      swap3\n      pop\n      0x13\n      dup5\n      add\n      0x00\n      mstore\n      keccak256(0x00, 0x20)\n      swap1\n      0x00\n      swap4\n    tag_444:\n      not(0x1f)\n      dup5\n      and\n      dup6\n      lt\n      tag_445\n      jumpi\n      0x01\n      swap5\n      pop\n      dup4\n      not(0x1f)\n      dup2\n      and\n      lt\n      tag_447\n      jumpi\n    tag_448:\n      pop\n      pop\n      pop\n      dup2\n      shl\n      add\n      0x13\n      dup3\n      add\n      sstore\n      jump(tag_404)\n    tag_447:\n      add\n      mload\n      not(0x00)\n      0xf8\n      dup5\n      0x03\n      shl\n      and\n      shr\n      not\n      and\n      swap1\n      sstore\n      dup4\n      dup1\n      dup1\n      jump(tag_448)\n    tag_445:\n      dup2\n      dup2\n      add\n      mload\n      dup4\n      sstore\n      0x20\n      swap5\n      dup6\n      add\n      swap5\n      0x01\n      swap1\n      swap4\n      add\n      swap3\n      swap1\n      swap2\n      add\n      swap1\n      jump(tag_444)\n    tag_398:\n      tag_449\n      swap1\n      0x13\n      dup7\n      add\n      0x00\n      mstore\n      keccak256(0x00, 0x20)\n      0x1f\n      dup6\n      add\n      0x05\n      shr\n      dup2\n      add\n      swap2\n      0x20\n      dup7\n      lt\n      tag_434\n      jumpi\n      0x1f\n      add\n      0x05\n      shr\n      add\n      swap1\n      tag_7\n      jump\t// in\n    tag_449:\n      dup5\n      jump(tag_399)\n    tag_392:\n      add\n      mload\n      swap1\n      pop\n      dup4\n      dup1\n      jump(tag_393)\n    tag_390:\n      swap3\n      pop\n      0x12\n      dup5\n      add\n      0x00\n      mstore\n      keccak256(0x00, 0x20)\n      swap1\n      0x00\n      swap4\n    tag_452:\n      not(0x1f)\n      dup5\n      and\n      dup6\n      lt\n      tag_453\n      jumpi\n      0x01\n      swap5\n      pop\n      dup4\n      not(0x1f)\n      dup2\n      and\n      lt\n      tag_455\n      jumpi\n    tag_456:\n      pop\n      pop\n      pop\n      dup2\n      shl\n      add\n      0x12\n      dup3\n      add\n      sstore\n      jump(tag_394)\n    tag_455:\n      add\n      mload\n      not(0x00)\n      0xf8\n      dup5\n      0x03\n      shl\n      and\n      shr\n      not\n      and\n      swap1\n      sstore\n      dup4\n      dup1\n      dup1\n      jump(tag_456)\n    tag_453:\n      dup2\n      dup2\n      add\n      mload\n      dup4\n      sstore\n      0x20\n      swap5\n      dup6\n      add\n      swap5\n      0x01\n      swap1\n      swap4\n      add\n      swap3\n      swap1\n      swap2\n      add\n      swap1\n      jump(tag_452)\n    tag_388:\n      tag_457\n      swap1\n      0x12\n      dup7\n      add\n      0x00\n      mstore\n      keccak256(0x00, 0x20)\n      0x1f\n      dup6\n      add\n      0x05\n      shr\n      dup2\n      add\n      swap2\n      0x20\n      dup7\n      lt\n      tag_434\n      jumpi\n      0x1f\n      add\n      0x05\n      shr\n      add\n      swap1\n      tag_7\n      jump\t// in\n    tag_457:\n      dup5\n      jump(tag_389)\n    tag_382:\n      add\n      mload\n      swap1\n      pop\n      dup4\n      dup1\n      jump(tag_383)\n    tag_380:\n      swap3\n      pop\n      0x11\n      dup5\n      add\n      0x00\n      mstore\n      keccak256(0x00, 0x20)\n      swap1\n      0x00\n      swap4\n    tag_460:\n      not(0x1f)\n      dup5\n      and\n      dup6\n      lt\n      tag_461\n      jumpi\n      0x01\n      swap5\n      pop\n      dup4\n      not(0x1f)\n      dup2\n      and\n      lt\n      tag_463\n      jumpi\n    tag_464:\n      pop\n      pop\n      pop\n      dup2\n      shl\n      add\n      0x11\n      dup3\n      add\n      sstore\n      jump(tag_384)\n    tag_463:\n      add\n      mload\n      not(0x00)\n      0xf8\n      dup5\n      0x03\n      shl\n      and\n      shr\n      not\n      and\n      swap1\n      sstore\n      dup4\n      dup1\n      dup1\n      jump(tag_464)\n    tag_461:\n      dup2\n      dup2\n      add\n      mload\n      dup4\n      sstore\n      0x20\n      swap5\n      dup6\n      add\n      swap5\n      0x01\n      swap1\n      swap4\n      add\n      swap3\n      swap1\n      swap2\n      add\n      swap1\n      jump(tag_460)\n    tag_378:\n      tag_465\n      swap1\n      0x11\n      dup7\n      add\n      0x00\n      mstore\n      keccak256(0x00, 0x20)\n      0x1f\n      dup6\n      add\n      0x05\n      shr\n      dup2\n      add\n      swap2\n      0x20\n      dup7\n      lt\n      tag_434\n      jumpi\n      0x1f\n      add\n      0x05\n      shr\n      add\n      swap1\n      tag_7\n      jump\t// in\n    tag_465:\n      dup5\n      jump(tag_379)\n    tag_372:\n      add\n      mload\n      swap1\n      pop\n      dup4\n      dup1\n      jump(tag_373)\n    tag_370:\n      swap3\n      pop\n      0x10\n      dup5\n      add\n      0x00\n      mstore\n      keccak256(0x00, 0x20)\n      swap1\n      0x00\n      swap4\n    tag_468:\n      not(0x1f)\n      dup5\n      and\n      dup6\n      lt\n      tag_469\n      jumpi\n      0x01\n      swap5\n      pop\n      dup4\n      not(0x1f)\n      dup2\n      and\n      lt\n      tag_471\n      jumpi\n    tag_472:\n      pop\n      pop\n      pop\n      dup2\n      shl\n      add\n      0x10\n      dup3\n      add\n      sstore\n      jump(tag_374)\n    tag_471:\n      add\n      mload\n      not(0x00)\n      0xf8\n      dup5\n      0x03\n      shl\n      and\n      shr\n      not\n      and\n      swap1\n      sstore\n      dup4\n      dup1\n      dup1\n      jump(tag_472)\n    tag_469:\n      dup2\n      dup2\n      add\n      mload\n      dup4\n      sstore\n      0x20\n      swap5\n      dup6\n      add\n      swap5\n      0x01\n      swap1\n      swap4\n      add\n      swap3\n      swap1\n      swap2\n      add\n      swap1\n      jump(tag_468)\n    tag_368:\n      tag_473\n      swap1\n      0x10\n      dup7\n      add\n      0x00\n      mstore\n      keccak256(0x00, 0x20)\n      0x1f\n      dup6\n      add\n      0x05\n      shr\n      dup2\n      add\n      swap2\n      0x20\n      dup7\n      lt\n      tag_434\n      jumpi\n      0x1f\n      add\n      0x05\n      shr\n      add\n      swap1\n      tag_7\n      jump\t// in\n    tag_473:\n      dup5\n      jump(tag_369)\n    tag_362:\n      add\n      mload\n      swap1\n      pop\n      dup4\n      dup1\n      jump(tag_363)\n    tag_360:\n      swap3\n      pop\n      0x0f\n      dup5\n      add\n      0x00\n      mstore\n      keccak256(0x00, 0x20)\n      swap1\n      0x00\n      swap4\n    tag_476:\n      not(0x1f)\n      dup5\n      and\n      dup6\n      lt\n      tag_477\n      jumpi\n      0x01\n      swap5\n      pop\n      dup4\n      not(0x1f)\n      dup2\n      and\n      lt\n      tag_479\n      jumpi\n    tag_480:\n      pop\n      pop\n      pop\n      dup2\n      shl\n      add\n      0x0f\n      dup3\n      add\n      sstore\n      jump(tag_364)\n    tag_479:\n      add\n      mload\n      not(0x00)\n      0xf8\n      dup5\n      0x03\n      shl\n      and\n      shr\n      not\n      and\n      swap1\n      sstore\n      dup4\n      dup1\n      dup1\n      jump(tag_480)\n    tag_477:\n      dup2\n      dup2\n      add\n      mload\n      dup4\n      sstore\n      0x20\n      swap5\n      dup6\n      add\n      swap5\n      0x01\n      swap1\n      swap4\n      add\n      swap3\n      swap1\n      swap2\n      add\n      swap1\n      jump(tag_476)\n    tag_358:\n      tag_481\n      swap1\n      0x0f\n      dup7\n      add\n      0x00\n      mstore\n      keccak256(0x00, 0x20)\n      0x1f\n      dup6\n      add\n      0x05\n      shr\n      dup2\n      add\n      swap2\n      0x20\n      dup7\n      lt\n      tag_434\n      jumpi\n      0x1f\n      add\n      0x05\n      shr\n      add\n      swap1\n      tag_7\n      jump\t// in\n    tag_481:\n      dup5\n      jump(tag_359)\n    tag_352:\n      add\n      mload\n      swap1\n      pop\n      dup4\n      dup1\n      jump(tag_353)\n    tag_350:\n      swap3\n      pop\n      0x0e\n      dup5\n      add\n      0x00\n      mstore\n      keccak256(0x00, 0x20)\n      swap1\n      0x00\n      swap4\n    tag_484:\n      not(0x1f)\n      dup5\n      and\n      dup6\n      lt\n      tag_485\n      jumpi\n      0x01\n      swap5\n      pop\n      dup4\n      not(0x1f)\n      dup2\n      and\n      lt\n      tag_487\n      jumpi\n    tag_488:\n      pop\n      pop\n      pop\n      dup2\n      shl\n      add\n      0x0e\n      dup3\n      add\n      sstore\n      jump(tag_354)\n    tag_487:\n      add\n      mload\n      not(0x00)\n      0xf8\n      dup5\n      0x03\n      shl\n      and\n      shr\n      not\n      and\n      swap1\n      sstore\n      dup4\n      dup1\n      dup1\n      jump(tag_488)\n    tag_485:\n      dup2\n      dup2\n      add\n      mload\n      dup4\n      sstore\n      0x20\n      swap5\n      dup6\n      add\n      swap5\n      0x01\n      swap1\n      swap4\n      add\n      swap3\n      swap1\n      swap2\n      add\n      swap1\n      jump(tag_484)\n    tag_348:\n      tag_489\n      swap1\n      0x0e\n      dup7\n      add\n      0x00\n      mstore\n      keccak256(0x00, 0x20)\n      0x1f\n      dup6\n      add\n      0x05\n      shr\n      dup2\n      add\n      swap2\n      0x20\n      dup7\n      lt\n      tag_434\n      jumpi\n      0x1f\n      add\n      0x05\n      shr\n      add\n      swap1\n      tag_7\n      jump\t// in\n    tag_489:\n      dup5\n      jump(tag_349)\n    tag_342:\n      add\n      mload\n      swap1\n      pop\n      dup4\n      dup1\n      jump(tag_343)\n    tag_340:\n      swap3\n      pop\n      0x0d\n      dup5\n      add\n      0x00\n      mstore\n      keccak256(0x00, 0x20)\n      swap1\n      0x00\n      swap4\n    tag_492:\n      not(0x1f)\n      dup5\n      and\n      dup6\n      lt\n      tag_493\n      jumpi\n      0x01\n      swap5\n      pop\n      dup4\n      not(0x1f)\n      dup2\n      and\n      lt\n      tag_495\n      jumpi\n    tag_496:\n      pop\n      pop\n      pop\n      dup2\n      shl\n      add\n      0x0d\n      dup3\n      add\n      sstore\n      jump(tag_344)\n    tag_495:\n      add\n      mload\n      not(0x00)\n      0xf8\n      dup5\n      0x03\n      shl\n      and\n      shr\n      not\n      and\n      swap1\n      sstore\n      dup4\n      dup1\n      dup1\n      jump(tag_496)\n    tag_493:\n      dup2\n      dup2\n      add\n      mload\n      dup4\n      sstore\n      0x20\n      swap5\n      dup6\n      add\n      swap5\n      0x01\n      swap1\n      swap4\n      add\n      swap3\n      swap1\n      swap2\n      add\n      swap1\n      jump(tag_492)\n    tag_338:\n      tag_497\n      swap1\n      0x0d\n      dup7\n      add\n      0x00\n      mstore\n      keccak256(0x00, 0x20)\n      0x1f\n      dup6\n      add\n      0x05\n      shr\n      dup2\n      add\n      swap2\n      0x20\n      dup7\n      lt\n      tag_434\n      jumpi\n      0x1f\n      add\n      0x05\n      shr\n      add\n      swap1\n      tag_7\n      jump\t// in\n    tag_497:\n      dup5\n      jump(tag_339)\n    tag_332:\n      add\n      mload\n      swap1\n      pop\n      dup4\n      dup1\n      jump(tag_333)\n    tag_330:\n      swap3\n      pop\n      0x0c\n      dup5\n      add\n      0x00\n      mstore\n      keccak256(0x00, 0x20)\n      swap1\n      0x00\n      swap4\n    tag_500:\n      not(0x1f)\n      dup5\n      and\n      dup6\n      lt\n      tag_501\n      jumpi\n      0x01\n      swap5\n      pop\n      dup4\n      not(0x1f)\n      dup2\n      and\n      lt\n      tag_503\n      jumpi\n    tag_504:\n      pop\n      pop\n      pop\n      dup2\n      shl\n      add\n      0x0c\n      dup3\n      add\n      sstore\n      jump(tag_334)\n    tag_503:\n      add\n      mload\n      not(0x00)\n      0xf8\n      dup5\n      0x03\n      shl\n      and\n      shr\n      not\n      and\n      swap1\n      sstore\n      dup4\n      dup1\n      dup1\n      jump(tag_504)\n    tag_501:\n      dup2\n      dup2\n      add\n      mload\n      dup4\n      sstore\n      0x20\n      swap5\n      dup6\n      add\n      swap5\n      0x01\n      swap1\n      swap4\n      add\n      swap3\n      swap1\n      swap2\n      add\n      swap1\n      jump(tag_500)\n    tag_328:\n      tag_505\n      swap1\n      0x0c\n      dup7\n      add\n      0x00\n      mstore\n      keccak256(0x00, 0x20)\n      0x1f\n      dup6\n      add\n      0x05\n      shr\n      dup2\n      add\n      swap2\n      0x20\n      dup7\n      lt\n      tag_434\n      jumpi\n      0x1f\n      add\n      0x05\n      shr\n      add\n      swap1\n      tag_7\n      jump\t// in\n    tag_505:\n      dup5\n      jump(tag_329)\n    tag_322:\n      add\n      mload\n      swap1\n      pop\n      dup4\n      dup1\n      jump(tag_323)\n    tag_320:\n      swap3\n      pop\n      0x0b\n      dup5\n      add\n      0x00\n      mstore\n      keccak256(0x00, 0x20)\n      swap1\n      0x00\n      swap4\n    tag_508:\n      not(0x1f)\n      dup5\n      and\n      dup6\n      lt\n      tag_509\n      jumpi\n      0x01\n      swap5\n      pop\n      dup4\n      not(0x1f)\n      dup2\n      and\n      lt\n      tag_511\n      jumpi\n    tag_512:\n      pop\n      pop\n      pop\n      dup2\n      shl\n      add\n      0x0b\n      dup3\n      add\n      sstore\n      jump(tag_324)\n    tag_511:\n      add\n      mload\n      not(0x00)\n      0xf8\n      dup5\n      0x03\n      shl\n      and\n      shr\n      not\n      and\n      swap1\n      sstore\n      dup4\n      dup1\n      dup1\n      jump(tag_512)\n    tag_509:\n      dup2\n      dup2\n      add\n      mload\n      dup4\n      sstore\n      0x20\n      swap5\n      dup6\n      add\n      swap5\n      0x01\n      swap1\n      swap4\n      add\n      swap3\n      swap1\n      swap2\n      add\n      swap1\n      jump(tag_508)\n    tag_318:\n      tag_513\n      swap1\n      0x0b\n      dup7\n      add\n      0x00\n      mstore\n      keccak256(0x00, 0x20)\n      0x1f\n      dup6\n      add\n      0x05\n      shr\n      dup2\n      add\n      swap2\n      0x20\n      dup7\n      lt\n      tag_434\n      jumpi\n      0x1f\n      add\n      0x05\n      shr\n      add\n      swap1\n      tag_7\n      jump\t// in\n    tag_513:\n      dup5\n      jump(tag_319)\n    tag_312:\n      add\n      mload\n      swap1\n      pop\n      dup4\n      dup1\n      jump(tag_313)\n    tag_310:\n      swap3\n      pop\n      0x0a\n      dup5\n      add\n      0x00\n      mstore\n      keccak256(0x00, 0x20)\n      swap1\n      0x00\n      swap4\n    tag_516:\n      not(0x1f)\n      dup5\n      and\n      dup6\n      lt\n      tag_517\n      jumpi\n      0x01\n      swap5\n      pop\n      dup4\n      not(0x1f)\n      dup2\n      and\n      lt\n      tag_519\n      jumpi\n    tag_520:\n      pop\n      pop\n      pop\n      dup2\n      shl\n      add\n      0x0a\n      dup3\n      add\n      sstore\n      jump(tag_314)\n    tag_519:\n      add\n      mload\n      not(0x00)\n      0xf8\n      dup5\n      0x03\n      shl\n      and\n      shr\n      not\n      and\n      swap1\n      sstore\n      dup4\n      dup1\n      dup1\n      jump(tag_520)\n    tag_517:\n      dup2\n      dup2\n      add\n      mload\n      dup4\n      sstore\n      0x20\n      swap5\n      dup6\n      add\n      swap5\n      0x01\n      swap1\n      swap4\n      add\n      swap3\n      swap1\n      swap2\n      add\n      swap1\n      jump(tag_516)\n    tag_308:\n      tag_521\n      swap1\n      0x0a\n      dup7\n      add\n      0x00\n      mstore\n      keccak256(0x00, 0x20)\n      0x1f\n      dup6\n      add\n      0x05\n      shr\n      dup2\n      add\n      swap2\n      0x20\n      dup7\n      lt\n      tag_434\n      jumpi\n      0x1f\n      add\n      0x05\n      shr\n      add\n      swap1\n      tag_7\n      jump\t// in\n    tag_521:\n      dup5\n      jump(tag_309)\n    tag_302:\n      add\n      mload\n      swap1\n      pop\n      dup4\n      dup1\n      jump(tag_303)\n    tag_300:\n      swap3\n      pop\n      0x09\n      dup5\n      add\n      0x00\n      mstore\n      keccak256(0x00, 0x20)\n      swap1\n      0x00\n      swap4\n    tag_524:\n      not(0x1f)\n      dup5\n      and\n      dup6\n      lt\n      tag_525\n      jumpi\n      0x01\n      swap5\n      pop\n      dup4\n      not(0x1f)\n      dup2\n      and\n      lt\n      tag_527\n      jumpi\n    tag_528:\n      pop\n      pop\n      pop\n      dup2\n      shl\n      add\n      0x09\n      dup3\n      add\n      sstore\n      jump(tag_304)\n    tag_527:\n      add\n      mload\n      not(0x00)\n      0xf8\n      dup5\n      0x03\n      shl\n      and\n      shr\n      not\n      and\n      swap1\n      sstore\n      dup4\n      dup1\n      dup1\n      jump(tag_528)\n    tag_525:\n      dup2\n      dup2\n      add\n      mload\n      dup4\n      sstore\n      0x20\n      swap5\n      dup6\n      add\n      swap5\n      0x01\n      swap1\n      swap4\n      add\n      swap3\n      swap1\n      swap2\n      add\n      swap1\n      jump(tag_524)\n    tag_298:\n      tag_529\n      swap1\n      0x09\n      dup7\n      add\n      0x00\n      mstore\n      keccak256(0x00, 0x20)\n      0x1f\n      dup6\n      add\n      0x05\n      shr\n      dup2\n      add\n      swap2\n      0x20\n      dup7\n      lt\n      tag_434\n      jumpi\n      0x1f\n      add\n      0x05\n      shr\n      add\n      swap1\n      tag_7\n      jump\t// in\n    tag_529:\n      dup5\n      jump(tag_299)\n    tag_292:\n      add\n      mload\n      swap1\n      pop\n      dup4\n      dup1\n      jump(tag_293)\n    tag_290:\n      swap3\n      pop\n      0x08\n      dup5\n      add\n      0x00\n      mstore\n      keccak256(0x00, 0x20)\n      swap1\n      0x00\n      swap4\n    tag_532:\n      not(0x1f)\n      dup5\n      and\n      dup6\n      lt\n      tag_533\n      jumpi\n      0x01\n      swap5\n      pop\n      dup4\n      not(0x1f)\n      dup2\n      and\n      lt\n      tag_535\n      jumpi\n    tag_536:\n      pop\n      pop\n      pop\n      dup2\n      shl\n      add\n      0x08\n      dup3\n      add\n      sstore\n      jump(tag_294)\n    tag_535:\n      add\n      mload\n      not(0x00)\n      0xf8\n      dup5\n      0x03\n      shl\n      and\n      shr\n      not\n      and\n      swap1\n      sstore\n      dup4\n      dup1\n      dup1\n      jump(tag_536)\n    tag_533:\n      dup2\n      dup2\n      add\n      mload\n      dup4\n      sstore\n      0x20\n      swap5\n      dup6\n      add\n      swap5\n      0x01\n      swap1\n      swap4\n      add\n      swap3\n      swap1\n      swap2\n      add\n      swap1\n      jump(tag_532)\n    tag_288:\n      tag_537\n      swap1\n      0x08\n      dup7\n      add\n      0x00\n      mstore\n      keccak256(0x00, 0x20)\n      0x1f\n      dup6\n      add\n      0x05\n      shr\n      dup2\n      add\n      swap2\n      0x20\n      dup7\n      lt\n      tag_434\n      jumpi\n      0x1f\n      add\n      0x05\n      shr\n      add\n      swap1\n      tag_7\n      jump\t// in\n    tag_537:\n      dup5\n      jump(tag_289)\n    tag_282:\n      add\n      mload\n      swap1\n      pop\n      dup4\n      dup1\n      jump(tag_283)\n    tag_280:\n      swap3\n      pop\n      0x07\n      dup5\n      add\n      0x00\n      mstore\n      keccak256(0x00, 0x20)\n      swap1\n      0x00\n      swap4\n    tag_540:\n      not(0x1f)\n      dup5\n      and\n      dup6\n      lt\n      tag_541\n      jumpi\n      0x01\n      swap5\n      pop\n      dup4\n      not(0x1f)\n      dup2\n      and\n      lt\n      tag_543\n      jumpi\n    tag_544:\n      pop\n      pop\n      pop\n      dup2\n      shl\n      add\n      0x07\n      dup3\n      add\n      sstore\n      jump(tag_284)\n    tag_543:\n      add\n      mload\n      not(0x00)\n      0xf8\n      dup5\n      0x03\n      shl\n      and\n      shr\n      not\n      and\n      swap1\n      sstore\n      dup4\n      dup1\n      dup1\n      jump(tag_544)\n    tag_541:\n      dup2\n      dup2\n      add\n      mload\n      dup4\n      sstore\n      0x20\n      swap5\n      dup6\n      add\n      swap5\n      0x01\n      swap1\n      swap4\n      add\n      swap3\n      swap1\n      swap2\n      add\n      swap1\n      jump(tag_540)\n    tag_278:\n      tag_545\n      swap1\n      0x07\n      dup7\n      add\n      0x00\n      mstore\n      keccak256(0x00, 0x20)\n      0x1f\n      dup6\n      add\n      0x05\n      shr\n      dup2\n      add\n      swap2\n      0x20\n      dup7\n      lt\n      tag_434\n      jumpi\n      0x1f\n      add\n      0x05\n      shr\n      add\n      swap1\n      tag_7\n      jump\t// in\n    tag_545:\n      dup5\n      jump(tag_279)\n    tag_272:\n      add\n      mload\n      swap1\n      pop\n      dup4\n      dup1\n      jump(tag_273)\n    tag_270:\n      swap3\n      pop\n      0x06\n      dup5\n      add\n      0x00\n      mstore\n      keccak256(0x00, 0x20)\n      swap1\n      0x00\n      swap4\n    tag_548:\n      not(0x1f)\n      dup5\n      and\n      dup6\n      lt\n      tag_549\n      jumpi\n      0x01\n      swap5\n      pop\n      dup4\n      not(0x1f)\n      dup2\n      and\n      lt\n      tag_551\n      jumpi\n    tag_552:\n      pop\n      pop\n      pop\n      dup2\n      shl\n      add\n      0x06\n      dup3\n      add\n      sstore\n      jump(tag_274)\n    tag_551:\n      add\n      mload\n      not(0x00)\n      0xf8\n      dup5\n      0x03\n      shl\n      and\n      shr\n      not\n      and\n      swap1\n      sstore\n      dup4\n      dup1\n      dup1\n      jump(tag_552)\n    tag_549:\n      dup2\n      dup2\n      add\n      mload\n      dup4\n      sstore\n      0x20\n      swap5\n      dup6\n      add\n      swap5\n      0x01\n      swap1\n      swap4\n      add\n      swap3\n      swap1\n      swap2\n      add\n      swap1\n      jump(tag_548)\n    tag_268:\n      tag_553\n      swap1\n      0x06\n      dup7\n      add\n      0x00\n      mstore\n      keccak256(0x00, 0x20)\n      0x1f\n      dup6\n      add\n      0x05\n      shr\n      dup2\n      add\n      swap2\n      0x20\n      dup7\n      lt\n      tag_434\n      jumpi\n      0x1f\n      add\n      0x05\n      shr\n      add\n      swap1\n      tag_7\n      jump\t// in\n    tag_553:\n      dup5\n      jump(tag_269)\n    tag_262:\n      add\n      mload\n      swap1\n      pop\n      dup4\n      dup1\n      jump(tag_263)\n    tag_260:\n      swap3\n      pop\n      0x05\n      dup5\n      add\n      0x00\n      mstore\n      keccak256(0x00, 0x20)\n      swap1\n      0x00\n      swap4\n    tag_556:\n      not(0x1f)\n      dup5\n      and\n      dup6\n      lt\n      tag_557\n      jumpi\n      0x01\n      swap5\n      pop\n      dup4\n      not(0x1f)\n      dup2\n      and\n      lt\n      tag_559\n      jumpi\n    tag_560:\n      pop\n      pop\n      pop\n      dup2\n      shl\n      add\n      0x05\n      dup3\n      add\n      sstore\n      jump(tag_264)\n    tag_559:\n      add\n      mload\n      not(0x00)\n      0xf8\n      dup5\n      0x03\n      shl\n      and\n      shr\n      not\n      and\n      swap1\n      sstore\n      dup4\n      dup1\n      dup1\n      jump(tag_560)\n    tag_557:\n      dup2\n      dup2\n      add\n      mload\n      dup4\n      sstore\n      0x20\n      swap5\n      dup6\n      add\n      swap5\n      0x01\n      swap1\n      swap4\n      add\n      swap3\n      swap1\n      swap2\n      add\n      swap1\n      jump(tag_556)\n    tag_258:\n      tag_561\n      swap1\n      0x05\n      dup7\n      add\n      0x00\n      mstore\n      keccak256(0x00, 0x20)\n      0x1f\n      dup6\n      add\n      0x05\n      shr\n      dup2\n      add\n      swap2\n      0x20\n      dup7\n      lt\n      tag_434\n      jumpi\n      0x1f\n      add\n      0x05\n      shr\n      add\n      swap1\n      tag_7\n      jump\t// in\n    tag_561:\n      dup5\n      jump(tag_259)\n    tag_252:\n      add\n      mload\n      swap1\n      pop\n      dup4\n      dup1\n      jump(tag_253)\n    tag_250:\n      swap3\n      pop\n      0x04\n      dup5\n      add\n      0x00\n      mstore\n      keccak256(0x00, 0x20)\n      swap1\n      0x00\n      swap4\n    tag_564:\n      not(0x1f)\n      dup5\n      and\n      dup6\n      lt\n      tag_565\n      jumpi\n      0x01\n      swap5\n      pop\n      dup4\n      not(0x1f)\n      dup2\n      and\n      lt\n      tag_567\n      jumpi\n    tag_568:\n      pop\n      pop\n      pop\n      dup2\n      shl\n      add\n      0x04\n      dup3\n      add\n      sstore\n      jump(tag_254)\n    tag_567:\n      add\n      mload\n      not(0x00)\n      0xf8\n      dup5\n      0x03\n      shl\n      and\n      shr\n      not\n      and\n      swap1\n      sstore\n      dup4\n      dup1\n      dup1\n      jump(tag_568)\n    tag_565:\n      dup2\n      dup2\n      add\n      mload\n      dup4\n      sstore\n      0x20\n      swap5\n      dup6\n      add\n      swap5\n      0x01\n      swap1\n      swap4\n      add\n      swap3\n      swap1\n      swap2\n      add\n      swap1\n      jump(tag_564)\n    tag_248:\n      tag_569\n      swap1\n      0x04\n      dup7\n      add\n      0x00\n      mstore\n      keccak256(0x00, 0x20)\n      0x1f\n      dup6\n      add\n      0x05\n      shr\n      dup2\n      add\n      swap2\n      0x20\n      dup7\n      lt\n      tag_434\n      jumpi\n      0x1f\n      add\n      0x05\n      shr\n      add\n      swap1\n      tag_7\n      jump\t// in\n    tag_569:\n      dup5\n      jump(tag_249)\n    tag_242:\n      add\n      mload\n      swap1\n      pop\n      dup4\n      dup1\n      jump(tag_243)\n    tag_240:\n      swap3\n      pop\n      0x02\n      dup5\n      add\n      0x00\n      mstore\n      keccak256(0x00, 0x20)\n      swap1\n      0x00\n      swap4\n    tag_572:\n      not(0x1f)\n      dup5\n      and\n      dup6\n      lt\n      tag_573\n      jumpi\n      0x01\n      swap5\n      pop\n      dup4\n      not(0x1f)\n      dup2\n      and\n      lt\n      tag_575\n      jumpi\n    tag_576:\n      pop\n      pop\n      pop\n      dup2\n      shl\n      add\n      0x02\n      dup3\n      add\n      sstore\n      jump(tag_244)\n    tag_575:\n      add\n      mload\n      not(0x00)\n      0xf8\n      dup5\n      0x03\n      shl\n      and\n      shr\n      not\n      and\n      swap1\n      sstore\n      dup4\n      dup1\n      dup1\n      jump(tag_576)\n    tag_573:\n      dup2\n      dup2\n      add\n      mload\n      dup4\n      sstore\n      0x20\n      swap5\n      dup6\n      add\n      swap5\n      0x01\n      swap1\n      swap4\n      add\n      swap3\n      swap1\n      swap2\n      add\n      swap1\n      jump(tag_572)\n    tag_238:\n      tag_577\n      swap1\n      0x02\n      dup7\n      add\n      0x00\n      mstore\n      keccak256(0x00, 0x20)\n      0x1f\n      dup6\n      add\n      0x05\n      shr\n      dup2\n      add\n      swap2\n      0x20\n      dup7\n      lt\n      tag_434\n      jumpi\n      0x1f\n      add\n      0x05\n      shr\n      add\n      swap1\n      tag_7\n      jump\t// in\n    tag_577:\n      dup5\n      jump(tag_239)\n    tag_232:\n      add\n      mload\n      swap1\n      pop\n      dup4\n      dup1\n      jump(tag_233)\n    tag_230:\n      swap3\n      pop\n      0x01\n      dup5\n      add\n      0x00\n      mstore\n      keccak256(0x00, 0x20)\n      swap1\n      0x00\n      swap4\n    tag_580:\n      not(0x1f)\n      dup5\n      and\n      dup6\n      lt\n      tag_581\n      jumpi\n      0x01\n      swap5\n      pop\n      dup4\n      not(0x1f)\n      dup2\n      and\n      lt\n      tag_583\n      jumpi\n    tag_584:\n      pop\n      pop\n      pop\n      dup2\n      shl\n      add\n      0x01\n      dup3\n      add\n      sstore\n      jump(tag_234)\n    tag_583:\n      add\n      mload\n      not(0x00)\n      0xf8\n      dup5\n      0x03\n      shl\n      and\n      shr\n      not\n      and\n      swap1\n      sstore\n      dup4\n      dup1\n      dup1\n      jump(tag_584)\n    tag_581:\n      dup2\n      dup2\n      add\n      mload\n      dup4\n      sstore\n      0x20\n      swap5\n      dup6\n      add\n      swap5\n      0x01\n      swap1\n      swap4\n      add\n      swap3\n      swap1\n      swap2\n      add\n      swap1\n      jump(tag_580)\n    tag_228:\n      tag_585\n      swap1\n      0x01\n      dup7\n      add\n      0x00\n      mstore\n      keccak256(0x00, 0x20)\n      0x1f\n      dup6\n      add\n      0x05\n      shr\n      dup2\n      add\n      swap2\n      0x20\n      dup7\n      lt\n      tag_434\n      jumpi\n      0x1f\n      add\n      0x05\n      shr\n      add\n      swap1\n      tag_7\n      jump\t// in\n    tag_585:\n      dup5\n      jump(tag_229)\n    tag_220:\n      mload(0x40)\n      shl(0xe5, 0x461bcd)\n      dup2\n      mstore\n      0x20\n      0x04\n      dup3\n      add\n      mstore\n      0x15\n      0x24\n      dup3\n      add\n      mstore\n      shl(0x5b, 0x092dcecc2d8d2c840c8c2e8ca40decc40c4d2e4e8d)\n      0x44\n      dup3\n      add\n      mstore\n      0x64\n      swap1\n      revert\n    tag_218:\n      mload(0x40)\n      shl(0xe5, 0x461bcd)\n      dup2\n      mstore\n      0x20\n      0x04\n      dup3\n      add\n      mstore\n      0x1b\n      0x24\n      dup3\n      add\n      mstore\n      0x46756c6c206e616d65206d757374206e6f7420626520656d7074790000000000\n      0x44\n      dup3\n      add\n      mstore\n      0x64\n      swap1\n      revert\n    tag_216:\n      mload(0x40)\n      shl(0xe5, 0x461bcd)\n      dup2\n      mstore\n      0x20\n      0x04\n      dup3\n      add\n      mstore\n      0x1a\n      0x24\n      dup3\n      add\n      mstore\n      0x5573657220697320616c72656164792072656769737465726564000000000000\n      0x44\n      dup3\n      add\n      mstore\n      0x64\n      swap1\n      revert\n    tag_14:\n      jumpi(tag_30, callvalue)\n      jumpi(tag_30, slt(add(not(0x03), calldatasize), 0x00))\n        /* \"userRegistration.sol\":1489:1499  msg.sender */\n      caller\n        /* \"userRegistration.sol\":60:5248  contract userRegistration {... */\n      0x00\n      mstore\n        /* \"userRegistration.sol\":1483:1488  users */\n      0x01\n        /* \"userRegistration.sol\":60:5248  contract userRegistration {... */\n      0x20\n      mstore\n        /* \"userRegistration.sol\":1475:1547  require(users[msg.sender].isRegistered, \"You are not a registered user\") */\n      tag_592\n        /* \"userRegistration.sol\":60:5248  contract userRegistration {... */\n      0xff\n        /* \"userRegistration.sol\":1483:1513  users[msg.sender].isRegistered */\n      0x16\n        /* \"userRegistration.sol\":60:5248  contract userRegistration {... */\n      keccak256(0x00, 0x40)\n        /* \"userRegistration.sol\":1483:1513  users[msg.sender].isRegistered */\n      add\n        /* \"userRegistration.sol\":60:5248  contract userRegistration {... */\n      sload\n      0x08\n      shr\n      and\n        /* \"userRegistration.sol\":1475:1547  require(users[msg.sender].isRegistered, \"You are not a registered user\") */\n      tag_8\n      jump\t// in\n    tag_592:\n        /* \"userRegistration.sol\":1489:1499  msg.sender */\n      caller\n        /* \"userRegistration.sol\":60:5248  contract userRegistration {... */\n      0x00\n      mstore\n        /* \"userRegistration.sol\":1483:1488  users */\n      0x01\n        /* \"userRegistration.sol\":60:5248  contract userRegistration {... */\n      0x20\n      mstore\n      0x00\n        /* \"userRegistration.sol\":1483:1513  users[msg.sender].isRegistered */\n      0x16\n        /* \"userRegistration.sol\":60:5248  contract userRegistration {... */\n      0x40\n      dup3\n      keccak256\n      dup3\n      dup2\n      sstore\n      tag_593\n        /* \"userRegistration.sol\":1483:1488  users */\n      0x01\n        /* \"userRegistration.sol\":60:5248  contract userRegistration {... */\n      dup3\n      add\n      tag_9\n      jump\t// in\n    tag_593:\n      tag_594\n      0x02\n      dup3\n      add\n      tag_9\n      jump\t// in\n    tag_594:\n      dup3\n      0x03\n      dup3\n      add\n      sstore\n      tag_595\n      0x04\n      dup3\n      add\n      tag_9\n      jump\t// in\n    tag_595:\n      tag_596\n      0x05\n      dup3\n      add\n      tag_9\n      jump\t// in\n    tag_596:\n      tag_597\n      0x06\n      dup3\n      add\n      tag_9\n      jump\t// in\n    tag_597:\n      tag_598\n      0x07\n      dup3\n      add\n      tag_9\n      jump\t// in\n    tag_598:\n      tag_599\n      0x08\n      dup3\n      add\n      tag_9\n      jump\t// in\n    tag_599:\n      tag_600\n      0x09\n      dup3\n      add\n      tag_9\n      jump\t// in\n    tag_600:\n      tag_601\n      0x0a\n      dup3\n      add\n      tag_9\n      jump\t// in\n    tag_601:\n      tag_602\n      0x0b\n      dup3\n      add\n      tag_9\n      jump\t// in\n    tag_602:\n      tag_603\n      0x0c\n      dup3\n      add\n      tag_9\n      jump\t// in\n    tag_603:\n      tag_604\n      0x0d\n      dup3\n      add\n      tag_9\n      jump\t// in\n    tag_604:\n      tag_605\n      0x0e\n      dup3\n      add\n      tag_9\n      jump\t// in\n    tag_605:\n      tag_606\n      0x0f\n      dup3\n      add\n      tag_9\n      jump\t// in\n    tag_606:\n      tag_607\n      0x10\n      dup3\n      add\n      tag_9\n      jump\t// in\n    tag_607:\n      tag_608\n      0x11\n      dup3\n      add\n      tag_9\n      jump\t// in\n    tag_608:\n      tag_609\n      0x12\n      dup3\n      add\n      tag_9\n      jump\t// in\n    tag_609:\n      tag_610\n      0x13\n      dup3\n      add\n      tag_9\n      jump\t// in\n    tag_610:\n      tag_611\n      0x14\n      dup3\n      add\n      tag_9\n      jump\t// in\n    tag_611:\n      tag_612\n      0x15\n      dup3\n      add\n      tag_9\n      jump\t// in\n    tag_612:\n      add\n      sstore\n      stop\n    tag_12:\n      jumpi(tag_30, callvalue)\n      jumpi(tag_30, slt(add(not(0x03), calldatasize), 0x20))\n      calldataload(0x04)\n      sub(shl(0xa0, 0x01), 0x01)\n      dup2\n      and\n      swap2\n      swap1\n      dup3\n      swap1\n      sub\n      tag_30\n      jumpi\n      0x20\n      swap2\n      0x00\n      mstore\n      0x01\n      dup3\n      mstore\n      0xff\n        /* \"userRegistration.sol\":4628:4660  users[_userAddress].isRegistered */\n      0x16\n        /* \"userRegistration.sol\":60:5248  contract userRegistration {... */\n      keccak256(0x00, 0x40)\n        /* \"userRegistration.sol\":4628:4660  users[_userAddress].isRegistered */\n      add\n        /* \"userRegistration.sol\":60:5248  contract userRegistration {... */\n      sload\n      0x08\n      shr\n      and\n      iszero\n      iszero\n      dup2\n      mstore\n      return\n    tag_1:\n      swap1\n      0x1f\n      dup1\n      not\n      swap2\n      add\n      and\n      dup2\n      add\n      swap1\n      dup2\n      lt\n      sub(shl(0x40, 0x01), 0x01)\n      dup3\n      gt\n      or\n      tag_56\n      jumpi\n      0x40\n      mstore\n      jump\t// out\n    tag_2:\n      dup2\n      0x1f\n      dup3\n      add\n      slt\n      iszero\n      tag_30\n      jumpi\n      dup1\n      calldataload\n      swap1\n      sub(shl(0x40, 0x01), 0x01)\n      dup3\n      gt\n      tag_56\n      jumpi\n      mload(0x40)\n      swap3\n      tag_625\n      0x1f\n      dup5\n      add\n      not(0x1f)\n      and\n      0x20\n      add\n      dup6\n      tag_1\n      jump\t// in\n    tag_625:\n      dup3\n      dup5\n      mstore\n      0x20\n      dup4\n      dup4\n      add\n      add\n      gt\n      tag_30\n      jumpi\n      dup2\n      0x00\n      swap3\n      0x20\n      dup1\n      swap4\n      add\n      dup4\n      dup7\n      add\n      calldatacopy\n      dup4\n      add\n      add\n      mstore\n      swap1\n      jump\t// out\n    tag_3:\n      swap2\n      swap1\n      dup3\n      mload\n      swap3\n      dup4\n      dup3\n      mstore\n      0x00\n    tag_628:\n      dup5\n      dup2\n      lt\n      tag_629\n      jumpi\n      pop\n      pop\n      dup3\n      0x00\n      0x20\n      dup1\n      swap5\n      swap6\n      dup5\n      add\n      add\n      mstore\n      0x1f\n      dup1\n      not\n      swap2\n      add\n      and\n      add\n      add\n      swap1\n      jump\t// out\n    tag_629:\n      0x20\n      dup2\n      dup4\n      add\n      dup2\n      add\n      mload\n      dup5\n      dup4\n      add\n      dup3\n      add\n      mstore\n      add\n      jump(tag_628)\n    tag_4:\n      swap1\n      0x01\n      dup3\n      dup2\n      shr\n      swap3\n      and\n      dup1\n      iszero\n      tag_631\n      jumpi\n    tag_632:\n      0x20\n      dup4\n      lt\n      eq\n      tag_633\n      jumpi\n      jump\t// out\n    tag_633:\n      mstore(0x00, shl(0xe0, 0x4e487b71))\n      mstore(0x04, 0x22)\n      revert(0x00, 0x24)\n    tag_631:\n      swap2\n      0x7f\n      and\n      swap2\n      jump(tag_632)\n    tag_5:\n      swap1\n      mload(0x40)\n      swap2\n      dup3\n      0x00\n      dup3\n      sload\n      swap3\n      tag_635\n      dup5\n      tag_4\n      jump\t// in\n    tag_635:\n      swap1\n      dup2\n      dup5\n      mstore\n      0x01\n      swap5\n      dup6\n      dup2\n      and\n      swap1\n      dup2\n      0x00\n      eq\n      tag_636\n      jumpi\n      pop\n      0x01\n      eq\n      tag_638\n      jumpi\n    tag_639:\n      pop\n      pop\n      tag_640\n      swap3\n      pop\n      sub\n      dup4\n      tag_1\n      jump\t// in\n    tag_640:\n      jump\t// out\n    tag_638:\n      swap1\n      swap4\n      swap2\n      pop\n      0x00\n      mstore\n      0x20\n      swap1\n      dup2\n      0x00\n      keccak256\n      swap4\n      0x00\n      swap2\n    tag_641:\n      dup2\n      dup4\n      lt\n      tag_642\n      jumpi\n      pop\n      pop\n      tag_640\n      swap4\n      pop\n      dup3\n      add\n      add\n      codesize\n      dup1\n      jump(tag_639)\n    tag_642:\n      dup6\n      sload\n      dup9\n      dup5\n      add\n      dup6\n      add\n      mstore\n      swap5\n      dup6\n      add\n      swap5\n      dup8\n      swap5\n      pop\n      swap2\n      dup4\n      add\n      swap2\n      jump(tag_641)\n    tag_636:\n      swap2\n      pop\n      pop\n      tag_640\n      swap5\n      pop\n      0x20\n      swap3\n      pop\n      not(0xff)\n      and\n      dup3\n      dup5\n      add\n      mstore\n      iszero\n      iszero\n      0x05\n      shl\n      dup3\n      add\n      add\n      codesize\n      dup1\n      jump(tag_639)\n    tag_6:\n      iszero\n      tag_644\n      jumpi\n      jump\t// out\n    tag_644:\n      mload(0x40)\n      shl(0xe5, 0x461bcd)\n      dup2\n      mstore\n      0x20\n      0x04\n      dup3\n      add\n      mstore\n      0x17\n      0x24\n      dup3\n      add\n      mstore\n      0x456d61696c206d757374206e6f7420626520656d707479000000000000000000\n      0x44\n      dup3\n      add\n      mstore\n      0x64\n      swap1\n      revert\n    tag_7:\n      dup2\n      dup2\n      lt\n      tag_647\n      jumpi\n      pop\n      pop\n      jump\t// out\n    tag_647:\n      0x00\n      dup2\n      sstore\n      0x01\n      add\n      jump(tag_7)\n    tag_8:\n      iszero\n      tag_649\n      jumpi\n      jump\t// out\n    tag_649:\n      mload(0x40)\n      shl(0xe5, 0x461bcd)\n      dup2\n      mstore\n      0x20\n      0x04\n      dup3\n      add\n      mstore\n      0x1d\n      0x24\n      dup3\n      add\n      mstore\n      0x596f7520617265206e6f74206120726567697374657265642075736572000000\n      0x44\n      dup3\n      add\n      mstore\n      0x64\n      swap1\n      revert\n    tag_9:\n      tag_651\n      dup2\n      sload\n      tag_4\n      jump\t// in\n    tag_651:\n      swap1\n      dup2\n      tag_652\n      jumpi\n      pop\n      pop\n      jump\t// out\n    tag_652:\n      dup2\n      0x1f\n      0x00\n      swap4\n      gt\n      0x01\n      eq\n      tag_654\n      jumpi\n      pop\n      sstore\n      jump\t// out\n    tag_654:\n      swap1\n      dup1\n      dup4\n      swap2\n      dup3\n      mstore\n      tag_657\n      0x1f\n      0x20\n      dup5\n      keccak256\n      swap5\n      add\n      0x05\n      shr\n      dup5\n      add\n      0x01\n      dup6\n      add\n      tag_7\n      jump\t// in\n    tag_657:\n      sstore\n      sstore\n      jump\t// out\n\n    auxdata: 0xa26469706673582212204800373889f142f224e8b2566795d838a1315049f7a57c9d233520da099f495f64736f6c63430008120033\n}\n",
				"bytecode": {
					"linkReferences": {},
					"object": "6080806040523461002857600080546001600160a01b03191633179055612855908161002e8239f35b600080fdfe61030080604052600436101561001457600080fd5b60003560e01c908163163f75221461254a575080631bb71db21461240b5780631e2a1932146108e85780636386c1c71461081657806375829def14610742578063a87430ba1461036f578063dd4a2425146100a65763f851a4401461007857600080fd5b346100a15760003660031901126100a1576000546040516001600160a01b039091168152602090f35b600080fd5b346100a15760403660031901126100a1576001600160401b036004358181116100a1576100d79036906004016125b1565b6024358281116100a1576100ef9036906004016125b1565b913360005260019160209383855261011460ff60166040600020015460081c1661278a565b8151156103315761012781511515612727565b33600052838552604060002060028101835185811161027a5761014a8254612647565b94601f95868111610303575b50889086831160011461029b57600c9493929160009183610290575b5050600019600383901b1c191690881b1790555b0194815193841161027a5761019b8654612647565b838111610242575b50809284116001146101df57509282939183926000946101d4575b50501b916000199060031b1c1916179055600080f35b0151925085806101be565b919083601f1981168760005284600020946000905b88838310610228575050501061020f575b505050811b019055005b015160001960f88460031b161c19169055838080610205565b8587015188559096019594850194879350908101906101f4565b61026b9087600052826000208580880160051c820192858910610271575b0160051c0190612773565b866101a3565b92508192610260565b634e487b7160e01b600052604160045260246000fd5b015190508a80610172565b9392918891601f19821690846000528b6000209160005b8d8282106102ed5750509683600c98106102d4575b505050811b019055610186565b015160001960f88460031b161c191690558a80806102c7565b838a015185558d969094019392830192016102b2565b61032b90846000528a6000208880860160051c8201928d8710610271570160051c0190612773565b89610156565b60405162461bcd60e51b81526004810186905260166024820152754e616d65206d757374206e6f7420626520656d70747960501b6044820152606490fd5b346100a15760203660031901126100a1576001600160a01b03600435818116908190036100a15760005260016020526040600020908161020052815416906001016103b990612681565b60e052610200516002016103cc90612681565b6101005261020051600381015460c0526004016103e890612681565b610200516005016103f890612681565b6102005160060161040890612681565b6102005160070161041890612681565b6102005160080161042890612681565b6102005160090161043890612681565b61020051600a0161044890612681565b9161020051600b0161045990612681565b9361020051600c0161046a90612681565b9561020051600d0161047b90612681565b9761020051600e0161048c90612681565b9961020051600f0161049d90612681565b9b610200516010016104ae90612681565b61028052610200516011016104c290612681565b6101c052610200516012016104d690612681565b61012052610200516013016104ea90612681565b6102c052610200516014016104fe90612681565b6101e0526102005160150161051290612681565b6101a0526102005160160154608052604051806101405252610300806101405160200152610140510160e0519061054891612607565b610140518082039060400152610100519061056291612607565b60c051610140516060015261014051808203906080015261058291612607565b610140518082039060a0015261059791612607565b610140518082039060c001526105ac91612607565b610140518082039060e001526105c191612607565b610140518082039061010001526105d791612607565b610140518082039061012001526105ed91612607565b6101405180820390610140015261060391612607565b6101405180820390610160015261061991612607565b6101405180820390610180015261062f91612607565b61014051808203906101a0015261064591612607565b61014051808203906101c0015261065b91612607565b61014051808203906101e0015261067191612607565b61014051808203906102000152610280519061068c91612607565b610140518082039061022001526101c051906106a791612607565b6101405180820390610240015261012051906106c291612607565b610140518082039061026001526102c051906106dd91612607565b610140518082039061028001526101e051906106f891612607565b61014051808203906102a001526101a0519061071391612607565b60805160ff161515610140516102c0015260805160081c60ff161515610140516102e001526101405180910390f35b346100a15760203660031901126100a1576004356001600160a01b03818116918290036100a15760005490811633036107c257811561078b576001600160a01b03191617600055005b60405162461bcd60e51b815260206004820152600f60248201526e496e76616c6964206164647265737360881b6044820152606490fd5b60405162461bcd60e51b815260206004820152602660248201527f4f6e6c79207468652061646d696e2063616e20706572666f726d20746869732060448201526530b1ba34b7b760d11b6064820152608490fd5b346100a15760203660031901126100a1576004356001600160a01b038116908190036100a15780600052600160205260ff60166040600020015460081c16156108aa57600052600160205261089860406000206108a6610884600c61087d60028501612681565b9301612681565b604051938493604085526040850190612607565b908382036020850152612607565b0390f35b60405162461bcd60e51b8152602060048201526016602482015275155cd95c881a5cc81b9bdd081c9959da5cdd195c995960521b6044820152606490fd5b346100a1576102c03660031901126100a1576004356001600160401b0381116100a1576109199036906004016125b1565b6102e0526024356001600160401b0381116100a15761093c9036906004016125b1565b610180526064356001600160401b0381116100a15761095f9036906004016125b1565b6102a0526084356001600160401b0381116100a1576109829036906004016125b1565b60a4356001600160401b0381116100a1576109a19036906004016125b1565b60c4356001600160401b0381116100a1576109c09036906004016125b1565b60e4356001600160401b0381116100a1576109df9036906004016125b1565b610104356001600160401b0381116100a1576109ff9036906004016125b1565b610124356001600160401b0381116100a157610a1f9036906004016125b1565b6001600160401b0361014435116100a157610a4036610144356004016125b1565b6001600160401b0361016435116100a157610a6136610164356004016125b1565b610160526001600160401b0361018435116100a157610a8636610184356004016125b1565b906001600160401b036101a435116100a157610aa8366101a4356004016125b1565b926001600160401b036101c435116100a157610aca366101c4356004016125b1565b946001600160401b036101e435116100a157610aec366101e4356004016125b1565b966001600160401b0361020435116100a157610b0e36610204356004016125b1565b986001600160401b0361022435116100a157610b3036610224356004016125b1565b9a6001600160401b0361024435116100a157610b5236610244356004016125b1565b610260526001600160401b0361026435116100a157610b7736610264356004016125b1565b60a0526001600160401b0361028435116100a157610b9b36610284356004016125b1565b610240526102a4359c8d801515036100a15733600052600160205260ff60166040600020015460081c166123c657610180515115612381576044351561234457610bea61016051511515612727565b6040518061022052806103008101106001600160401b036103008301111761027a5761030081016040523390526102e051602061022051015261018051604061022051015260443560606102205101526102a051608061022051015260a061022051015260c061022051015260e0610220510152610100610220510152610120610220510152610140610220510152610160610220510152610160516101806102205101526101a06102205101526101c06102205101526101e0610220510152610200610220510152610220805101526102406102205101526102605161026061022051015260a051610280610220510152610240516102a061022051015215156102c061022051015260016102e0610220510152336000526001602052604060002060206102205160018060a01b038151166bffffffffffffffffffffffff60a01b84541617835501518051906001600160401b03821161027a578190610d556001850154612647565b601f811161230f575b50602090601f831160011461229d57600092612292575b50508160011b916000199060031b1c19161760018201555b60406102205101518051906001600160401b03821161027a578190610db56002850154612647565b601f811161225d575b50602090601f83116001146121eb576000926121e0575b50508160011b916000199060031b1c19161760028201555b6080610220516060810151600384015501518051906001600160401b03821161027a578190610e1f6004850154612647565b601f81116121ab575b50602090601f83116001146121395760009261212e575b50508160011b916000199060031b1c19161760048201555b60a06102205101518051906001600160401b03821161027a578190610e7f6005850154612647565b601f81116120f9575b50602090601f83116001146120875760009261207c575b50508160011b916000199060031b1c19161760058201555b60c06102205101518051906001600160401b03821161027a578190610edf6006850154612647565b601f8111612047575b50602090601f8311600114611fd557600092611fca575b50508160011b916000199060031b1c19161760068201555b60e06102205101518051906001600160401b03821161027a578190610f3f6007850154612647565b601f8111611f95575b50602090601f8311600114611f2357600092611f18575b50508160011b916000199060031b1c19161760078201555b6101006102205101518051906001600160401b03821161027a578190610fa06008850154612647565b601f8111611ee3575b50602090601f8311600114611e7157600092611e66575b50508160011b916000199060031b1c19161760088201555b6101206102205101518051906001600160401b03821161027a5781906110016009850154612647565b601f8111611e31575b50602090601f8311600114611dbf57600092611db4575b50508160011b916000199060031b1c19161760098201555b6101406102205101518051906001600160401b03821161027a578190611062600a850154612647565b601f8111611d7f575b50602090601f8311600114611d0d57600092611d02575b50508160011b916000199060031b1c191617600a8201555b6101606102205101518051906001600160401b03821161027a5781906110c3600b850154612647565b601f8111611ccd575b50602090601f8311600114611c5b57600092611c50575b50508160011b916000199060031b1c191617600b8201555b6101806102205101518051906001600160401b03821161027a578190611124600c850154612647565b601f8111611c1b575b50602090601f8311600114611ba957600092611b9e575b50508160011b916000199060031b1c191617600c8201555b6101a06102205101518051906001600160401b03821161027a578190611185600d850154612647565b601f8111611b69575b50602090601f8311600114611af757600092611aec575b50508160011b916000199060031b1c191617600d8201555b6101c06102205101518051906001600160401b03821161027a5781906111e6600e850154612647565b601f8111611ab7575b50602090601f8311600114611a4557600092611a3a575b50508160011b916000199060031b1c191617600e8201555b6101e06102205101518051906001600160401b03821161027a578190611247600f850154612647565b601f8111611a05575b50602090601f831160011461199357600092611988575b50508160011b916000199060031b1c191617600f8201555b6102006102205101518051906001600160401b03821161027a5781906112a86010850154612647565b601f8111611953575b50602090601f83116001146118e1576000926118d6575b50508160011b916000199060031b1c19161760108201555b610220805101518051906001600160401b03821161027a5781906113076011850154612647565b601f81116118a1575b50602090601f831160011461182f57600092611824575b50508160011b916000199060031b1c19161760118201555b6102406102205101518051906001600160401b03821161027a5781906113686012850154612647565b601f81116117ef575b50602090601f831160011461177d57600092611772575b50508160011b916000199060031b1c19161760128201555b6102606102205101518051906001600160401b03821161027a5781906113c96013850154612647565b601f811161173d575b50602090601f83116001146116cb576000926116c0575b50508160011b916000199060031b1c19161760138201555b6102806102205101518051906001600160401b03821161027a57819061142a6014850154612647565b601f811161168b575b50602090601f83116001146116195760009261160e575b50508160011b916000199060031b1c19161760148201555b60158101906102a0610220510151918251926001600160401b03841161027a5761148c8254612647565b601f81116115d1575b50602090601f851160011461156757601694916000918361155c575b50508160011b916000199060031b1c19161790555b01610220516102c081015115159060ff61ff006102e08554930151151560081b1692169061ffff191617179055604051606081527f509c70f523067009f7db7f46db6956d7af8b679323680dc3821a8bad001ac1e161153f61152e606084016102e051612607565b838103602085015261018051612607565b91808303604082015280611557339461016051612607565b0390a2005b0151905085806114b1565b90601f198516918360005260206000209260005b8181106115b9575091600193918760169894106115a0575b505050811b0190556114c6565b015160001960f88460031b161c19169055858080611593565b9293602060018192878601518155019501930161157b565b6115fe90836000526020600020601f870160051c81019160208810611604575b601f0160051c0190612773565b84611495565b90915081906115f1565b01519050838061144a565b9250601484016000526020600020906000935b601f1984168510611670576001945083601f19811610611657575b505050811b016014820155611462565b015160001960f88460031b161c19169055838080611647565b8181015183556020948501946001909301929091019061162c565b6116ba90601486016000526020600020601f850160051c8101916020861061160457601f0160051c0190612773565b84611433565b0151905083806113e9565b9250601384016000526020600020906000935b601f1984168510611722576001945083601f19811610611709575b505050811b016013820155611401565b015160001960f88460031b161c191690558380806116f9565b818101518355602094850194600190930192909101906116de565b61176c90601386016000526020600020601f850160051c8101916020861061160457601f0160051c0190612773565b846113d2565b015190508380611388565b9250601284016000526020600020906000935b601f19841685106117d4576001945083601f198116106117bb575b505050811b0160128201556113a0565b015160001960f88460031b161c191690558380806117ab565b81810151835560209485019460019093019290910190611790565b61181e90601286016000526020600020601f850160051c8101916020861061160457601f0160051c0190612773565b84611371565b015190508380611327565b9250601184016000526020600020906000935b601f1984168510611886576001945083601f1981161061186d575b505050811b01601182015561133f565b015160001960f88460031b161c1916905583808061185d565b81810151835560209485019460019093019290910190611842565b6118d090601186016000526020600020601f850160051c8101916020861061160457601f0160051c0190612773565b84611310565b0151905083806112c8565b9250601084016000526020600020906000935b601f1984168510611938576001945083601f1981161061191f575b505050811b0160108201556112e0565b015160001960f88460031b161c1916905583808061190f565b818101518355602094850194600190930192909101906118f4565b61198290601086016000526020600020601f850160051c8101916020861061160457601f0160051c0190612773565b846112b1565b015190508380611267565b9250600f84016000526020600020906000935b601f19841685106119ea576001945083601f198116106119d1575b505050811b01600f82015561127f565b015160001960f88460031b161c191690558380806119c1565b818101518355602094850194600190930192909101906119a6565b611a3490600f86016000526020600020601f850160051c8101916020861061160457601f0160051c0190612773565b84611250565b015190508380611206565b9250600e84016000526020600020906000935b601f1984168510611a9c576001945083601f19811610611a83575b505050811b01600e82015561121e565b015160001960f88460031b161c19169055838080611a73565b81810151835560209485019460019093019290910190611a58565b611ae690600e86016000526020600020601f850160051c8101916020861061160457601f0160051c0190612773565b846111ef565b0151905083806111a5565b9250600d84016000526020600020906000935b601f1984168510611b4e576001945083601f19811610611b35575b505050811b01600d8201556111bd565b015160001960f88460031b161c19169055838080611b25565b81810151835560209485019460019093019290910190611b0a565b611b9890600d86016000526020600020601f850160051c8101916020861061160457601f0160051c0190612773565b8461118e565b015190508380611144565b9250600c84016000526020600020906000935b601f1984168510611c00576001945083601f19811610611be7575b505050811b01600c82015561115c565b015160001960f88460031b161c19169055838080611bd7565b81810151835560209485019460019093019290910190611bbc565b611c4a90600c86016000526020600020601f850160051c8101916020861061160457601f0160051c0190612773565b8461112d565b0151905083806110e3565b9250600b84016000526020600020906000935b601f1984168510611cb2576001945083601f19811610611c99575b505050811b01600b8201556110fb565b015160001960f88460031b161c19169055838080611c89565b81810151835560209485019460019093019290910190611c6e565b611cfc90600b86016000526020600020601f850160051c8101916020861061160457601f0160051c0190612773565b846110cc565b015190508380611082565b9250600a84016000526020600020906000935b601f1984168510611d64576001945083601f19811610611d4b575b505050811b01600a82015561109a565b015160001960f88460031b161c19169055838080611d3b565b81810151835560209485019460019093019290910190611d20565b611dae90600a86016000526020600020601f850160051c8101916020861061160457601f0160051c0190612773565b8461106b565b015190508380611021565b9250600984016000526020600020906000935b601f1984168510611e16576001945083601f19811610611dfd575b505050811b016009820155611039565b015160001960f88460031b161c19169055838080611ded565b81810151835560209485019460019093019290910190611dd2565b611e6090600986016000526020600020601f850160051c8101916020861061160457601f0160051c0190612773565b8461100a565b015190508380610fc0565b9250600884016000526020600020906000935b601f1984168510611ec8576001945083601f19811610611eaf575b505050811b016008820155610fd8565b015160001960f88460031b161c19169055838080611e9f565b81810151835560209485019460019093019290910190611e84565b611f1290600886016000526020600020601f850160051c8101916020861061160457601f0160051c0190612773565b84610fa9565b015190508380610f5f565b9250600784016000526020600020906000935b601f1984168510611f7a576001945083601f19811610611f61575b505050811b016007820155610f77565b015160001960f88460031b161c19169055838080611f51565b81810151835560209485019460019093019290910190611f36565b611fc490600786016000526020600020601f850160051c8101916020861061160457601f0160051c0190612773565b84610f48565b015190508380610eff565b9250600684016000526020600020906000935b601f198416851061202c576001945083601f19811610612013575b505050811b016006820155610f17565b015160001960f88460031b161c19169055838080612003565b81810151835560209485019460019093019290910190611fe8565b61207690600686016000526020600020601f850160051c8101916020861061160457601f0160051c0190612773565b84610ee8565b015190508380610e9f565b9250600584016000526020600020906000935b601f19841685106120de576001945083601f198116106120c5575b505050811b016005820155610eb7565b015160001960f88460031b161c191690558380806120b5565b8181015183556020948501946001909301929091019061209a565b61212890600586016000526020600020601f850160051c8101916020861061160457601f0160051c0190612773565b84610e88565b015190508380610e3f565b9250600484016000526020600020906000935b601f1984168510612190576001945083601f19811610612177575b505050811b016004820155610e57565b015160001960f88460031b161c19169055838080612167565b8181015183556020948501946001909301929091019061214c565b6121da90600486016000526020600020601f850160051c8101916020861061160457601f0160051c0190612773565b84610e28565b015190508380610dd5565b9250600284016000526020600020906000935b601f1984168510612242576001945083601f19811610612229575b505050811b016002820155610ded565b015160001960f88460031b161c19169055838080612219565b818101518355602094850194600190930192909101906121fe565b61228c90600286016000526020600020601f850160051c8101916020861061160457601f0160051c0190612773565b84610dbe565b015190508380610d75565b9250600184016000526020600020906000935b601f19841685106122f4576001945083601f198116106122db575b505050811b016001820155610d8d565b015160001960f88460031b161c191690558380806122cb565b818101518355602094850194600190930192909101906122b0565b61233e90600186016000526020600020601f850160051c8101916020861061160457601f0160051c0190612773565b84610d5e565b60405162461bcd60e51b8152602060048201526015602482015274092dcecc2d8d2c840c8c2e8ca40decc40c4d2e4e8d605b1b6044820152606490fd5b60405162461bcd60e51b815260206004820152601b60248201527f46756c6c206e616d65206d757374206e6f7420626520656d70747900000000006044820152606490fd5b60405162461bcd60e51b815260206004820152601a60248201527f5573657220697320616c726561647920726567697374657265640000000000006044820152606490fd5b346100a15760003660031901126100a15733600052600160205261243c60ff60166040600020015460081c1661278a565b336000526001602052600060166040822082815561245c600182016127d6565b612468600282016127d6565b82600382015561247a600482016127d6565b612486600582016127d6565b612492600682016127d6565b61249e600782016127d6565b6124aa600882016127d6565b6124b6600982016127d6565b6124c2600a82016127d6565b6124ce600b82016127d6565b6124da600c82016127d6565b6124e6600d82016127d6565b6124f2600e82016127d6565b6124fe600f82016127d6565b61250a601082016127d6565b612516601182016127d6565b612522601282016127d6565b61252e601382016127d6565b61253a601482016127d6565b612546601582016127d6565b0155005b346100a15760203660031901126100a1576004356001600160a01b03811691908290036100a1576020916000526001825260ff60166040600020015460081c1615158152f35b90601f801991011681019081106001600160401b0382111761027a57604052565b81601f820112156100a1578035906001600160401b03821161027a57604051926125e5601f8401601f191660200185612590565b828452602083830101116100a157816000926020809301838601378301015290565b919082519283825260005b848110612633575050826000602080949584010152601f8019910116010190565b602081830181015184830182015201612612565b90600182811c92168015612677575b602083101461266157565b634e487b7160e01b600052602260045260246000fd5b91607f1691612656565b906040519182600082549261269584612647565b90818452600194858116908160001461270457506001146126c1575b50506126bf92500383612590565b565b9093915060005260209081600020936000915b8183106126ec5750506126bf935082010138806126b1565b855488840185015294850194879450918301916126d4565b9150506126bf94506020925060ff191682840152151560051b82010138806126b1565b1561272e57565b60405162461bcd60e51b815260206004820152601760248201527f456d61696c206d757374206e6f7420626520656d7074790000000000000000006044820152606490fd5b81811061277e575050565b60008155600101612773565b1561279157565b60405162461bcd60e51b815260206004820152601d60248201527f596f7520617265206e6f742061207265676973746572656420757365720000006044820152606490fd5b6127e08154612647565b90816127ea575050565b81601f600093116001146127fc575055565b90808391825261281b601f60208420940160051c840160018501612773565b555556fea26469706673582212204800373889f142f224e8b2566795d838a1315049f7a57c9d233520da099f495f64736f6c63430008120033",
					"opcodes": "PUSH1 0x80 DUP1 PUSH1 0x40 MSTORE CALLVALUE PUSH2 0x28 JUMPI PUSH1 0x0 DUP1 SLOAD PUSH1 0x1 PUSH1 0x1 PUSH1 0xA0 SHL SUB NOT AND CALLER OR SWAP1 SSTORE PUSH2 0x2855 SWAP1 DUP2 PUSH2 0x2E DUP3 CODECOPY RETURN JUMPDEST PUSH1 0x0 DUP1 REVERT INVALID PUSH2 0x300 DUP1 PUSH1 0x40 MSTORE PUSH1 0x4 CALLDATASIZE LT ISZERO PUSH2 0x14 JUMPI PUSH1 0x0 DUP1 REVERT JUMPDEST PUSH1 0x0 CALLDATALOAD PUSH1 0xE0 SHR SWAP1 DUP2 PUSH4 0x163F7522 EQ PUSH2 0x254A JUMPI POP DUP1 PUSH4 0x1BB71DB2 EQ PUSH2 0x240B JUMPI DUP1 PUSH4 0x1E2A1932 EQ PUSH2 0x8E8 JUMPI DUP1 PUSH4 0x6386C1C7 EQ PUSH2 0x816 JUMPI DUP1 PUSH4 0x75829DEF EQ PUSH2 0x742 JUMPI DUP1 PUSH4 0xA87430BA EQ PUSH2 0x36F JUMPI DUP1 PUSH4 0xDD4A2425 EQ PUSH2 0xA6 JUMPI PUSH4 0xF851A440 EQ PUSH2 0x78 JUMPI PUSH1 0x0 DUP1 REVERT JUMPDEST CALLVALUE PUSH2 0xA1 JUMPI PUSH1 0x0 CALLDATASIZE PUSH1 0x3 NOT ADD SLT PUSH2 0xA1 JUMPI PUSH1 0x0 SLOAD PUSH1 0x40 MLOAD PUSH1 0x1 PUSH1 0x1 PUSH1 0xA0 SHL SUB SWAP1 SWAP2 AND DUP2 MSTORE PUSH1 0x20 SWAP1 RETURN JUMPDEST PUSH1 0x0 DUP1 REVERT JUMPDEST CALLVALUE PUSH2 0xA1 JUMPI PUSH1 0x40 CALLDATASIZE PUSH1 0x3 NOT ADD SLT PUSH2 0xA1 JUMPI PUSH1 0x1 PUSH1 0x1 PUSH1 0x40 SHL SUB PUSH1 0x4 CALLDATALOAD DUP2 DUP2 GT PUSH2 0xA1 JUMPI PUSH2 0xD7 SWAP1 CALLDATASIZE SWAP1 PUSH1 0x4 ADD PUSH2 0x25B1 JUMP JUMPDEST PUSH1 0x24 CALLDATALOAD DUP3 DUP2 GT PUSH2 0xA1 JUMPI PUSH2 0xEF SWAP1 CALLDATASIZE SWAP1 PUSH1 0x4 ADD PUSH2 0x25B1 JUMP JUMPDEST SWAP2 CALLER PUSH1 0x0 MSTORE PUSH1 0x1 SWAP2 PUSH1 0x20 SWAP4 DUP4 DUP6 MSTORE PUSH2 0x114 PUSH1 0xFF PUSH1 0x16 PUSH1 0x40 PUSH1 0x0 KECCAK256 ADD SLOAD PUSH1 0x8 SHR AND PUSH2 0x278A JUMP JUMPDEST DUP2 MLOAD ISZERO PUSH2 0x331 JUMPI PUSH2 0x127 DUP2 MLOAD ISZERO ISZERO PUSH2 0x2727 JUMP JUMPDEST CALLER PUSH1 0x0 MSTORE DUP4 DUP6 MSTORE PUSH1 0x40 PUSH1 0x0 KECCAK256 PUSH1 0x2 DUP2 ADD DUP4 MLOAD DUP6 DUP2 GT PUSH2 0x27A JUMPI PUSH2 0x14A DUP3 SLOAD PUSH2 0x2647 JUMP JUMPDEST SWAP5 PUSH1 0x1F SWAP6 DUP7 DUP2 GT PUSH2 0x303 JUMPI JUMPDEST POP DUP9 SWAP1 DUP7 DUP4 GT PUSH1 0x1 EQ PUSH2 0x29B JUMPI PUSH1 0xC SWAP5 SWAP4 SWAP3 SWAP2 PUSH1 0x0 SWAP2 DUP4 PUSH2 0x290 JUMPI JUMPDEST POP POP PUSH1 0x0 NOT PUSH1 0x3 DUP4 SWAP1 SHL SHR NOT AND SWAP1 DUP9 SHL OR SWAP1 SSTORE JUMPDEST ADD SWAP5 DUP2 MLOAD SWAP4 DUP5 GT PUSH2 0x27A JUMPI PUSH2 0x19B DUP7 SLOAD PUSH2 0x2647 JUMP JUMPDEST DUP4 DUP2 GT PUSH2 0x242 JUMPI JUMPDEST POP DUP1 SWAP3 DUP5 GT PUSH1 0x1 EQ PUSH2 0x1DF JUMPI POP SWAP3 DUP3 SWAP4 SWAP2 DUP4 SWAP3 PUSH1 0x0 SWAP5 PUSH2 0x1D4 JUMPI JUMPDEST POP POP SHL SWAP2 PUSH1 0x0 NOT SWAP1 PUSH1 0x3 SHL SHR NOT AND OR SWAP1 SSTORE PUSH1 0x0 DUP1 RETURN JUMPDEST ADD MLOAD SWAP3 POP DUP6 DUP1 PUSH2 0x1BE JUMP JUMPDEST SWAP2 SWAP1 DUP4 PUSH1 0x1F NOT DUP2 AND DUP8 PUSH1 0x0 MSTORE DUP5 PUSH1 0x0 KECCAK256 SWAP5 PUSH1 0x0 SWAP1 JUMPDEST DUP9 DUP4 DUP4 LT PUSH2 0x228 JUMPI POP POP POP LT PUSH2 0x20F JUMPI JUMPDEST POP POP POP DUP2 SHL ADD SWAP1 SSTORE STOP JUMPDEST ADD MLOAD PUSH1 0x0 NOT PUSH1 0xF8 DUP5 PUSH1 0x3 SHL AND SHR NOT AND SWAP1 SSTORE DUP4 DUP1 DUP1 PUSH2 0x205 JUMP JUMPDEST DUP6 DUP8 ADD MLOAD DUP9 SSTORE SWAP1 SWAP7 ADD SWAP6 SWAP5 DUP6 ADD SWAP5 DUP8 SWAP4 POP SWAP1 DUP2 ADD SWAP1 PUSH2 0x1F4 JUMP JUMPDEST PUSH2 0x26B SWAP1 DUP8 PUSH1 0x0 MSTORE DUP3 PUSH1 0x0 KECCAK256 DUP6 DUP1 DUP9 ADD PUSH1 0x5 SHR DUP3 ADD SWAP3 DUP6 DUP10 LT PUSH2 0x271 JUMPI JUMPDEST ADD PUSH1 0x5 SHR ADD SWAP1 PUSH2 0x2773 JUMP JUMPDEST DUP7 PUSH2 0x1A3 JUMP JUMPDEST SWAP3 POP DUP2 SWAP3 PUSH2 0x260 JUMP JUMPDEST PUSH4 0x4E487B71 PUSH1 0xE0 SHL PUSH1 0x0 MSTORE PUSH1 0x41 PUSH1 0x4 MSTORE PUSH1 0x24 PUSH1 0x0 REVERT JUMPDEST ADD MLOAD SWAP1 POP DUP11 DUP1 PUSH2 0x172 JUMP JUMPDEST SWAP4 SWAP3 SWAP2 DUP9 SWAP2 PUSH1 0x1F NOT DUP3 AND SWAP1 DUP5 PUSH1 0x0 MSTORE DUP12 PUSH1 0x0 KECCAK256 SWAP2 PUSH1 0x0 JUMPDEST DUP14 DUP3 DUP3 LT PUSH2 0x2ED JUMPI POP POP SWAP7 DUP4 PUSH1 0xC SWAP9 LT PUSH2 0x2D4 JUMPI JUMPDEST POP POP POP DUP2 SHL ADD SWAP1 SSTORE PUSH2 0x186 JUMP JUMPDEST ADD MLOAD PUSH1 0x0 NOT PUSH1 0xF8 DUP5 PUSH1 0x3 SHL AND SHR NOT AND SWAP1 SSTORE DUP11 DUP1 DUP1 PUSH2 0x2C7 JUMP JUMPDEST DUP4 DUP11 ADD MLOAD DUP6 SSTORE DUP14 SWAP7 SWAP1 SWAP5 ADD SWAP4 SWAP3 DUP4 ADD SWAP3 ADD PUSH2 0x2B2 JUMP JUMPDEST PUSH2 0x32B SWAP1 DUP5 PUSH1 0x0 MSTORE DUP11 PUSH1 0x0 KECCAK256 DUP9 DUP1 DUP7 ADD PUSH1 0x5 SHR DUP3 ADD SWAP3 DUP14 DUP8 LT PUSH2 0x271 JUMPI ADD PUSH1 0x5 SHR ADD SWAP1 PUSH2 0x2773 JUMP JUMPDEST DUP10 PUSH2 0x156 JUMP JUMPDEST PUSH1 0x40 MLOAD PUSH3 0x461BCD PUSH1 0xE5 SHL DUP2 MSTORE PUSH1 0x4 DUP2 ADD DUP7 SWAP1 MSTORE PUSH1 0x16 PUSH1 0x24 DUP3 ADD MSTORE PUSH22 0x4E616D65206D757374206E6F7420626520656D707479 PUSH1 0x50 SHL PUSH1 0x44 DUP3 ADD MSTORE PUSH1 0x64 SWAP1 REVERT JUMPDEST CALLVALUE PUSH2 0xA1 JUMPI PUSH1 0x20 CALLDATASIZE PUSH1 0x3 NOT ADD SLT PUSH2 0xA1 JUMPI PUSH1 0x1 PUSH1 0x1 PUSH1 0xA0 SHL SUB PUSH1 0x4 CALLDATALOAD DUP2 DUP2 AND SWAP1 DUP2 SWAP1 SUB PUSH2 0xA1 JUMPI PUSH1 0x0 MSTORE PUSH1 0x1 PUSH1 0x20 MSTORE PUSH1 0x40 PUSH1 0x0 KECCAK256 SWAP1 DUP2 PUSH2 0x200 MSTORE DUP2 SLOAD AND SWAP1 PUSH1 0x1 ADD PUSH2 0x3B9 SWAP1 PUSH2 0x2681 JUMP JUMPDEST PUSH1 0xE0 MSTORE PUSH2 0x200 MLOAD PUSH1 0x2 ADD PUSH2 0x3CC SWAP1 PUSH2 0x2681 JUMP JUMPDEST PUSH2 0x100 MSTORE PUSH2 0x200 MLOAD PUSH1 0x3 DUP2 ADD SLOAD PUSH1 0xC0 MSTORE PUSH1 0x4 ADD PUSH2 0x3E8 SWAP1 PUSH2 0x2681 JUMP JUMPDEST PUSH2 0x200 MLOAD PUSH1 0x5 ADD PUSH2 0x3F8 SWAP1 PUSH2 0x2681 JUMP JUMPDEST PUSH2 0x200 MLOAD PUSH1 0x6 ADD PUSH2 0x408 SWAP1 PUSH2 0x2681 JUMP JUMPDEST PUSH2 0x200 MLOAD PUSH1 0x7 ADD PUSH2 0x418 SWAP1 PUSH2 0x2681 JUMP JUMPDEST PUSH2 0x200 MLOAD PUSH1 0x8 ADD PUSH2 0x428 SWAP1 PUSH2 0x2681 JUMP JUMPDEST PUSH2 0x200 MLOAD PUSH1 0x9 ADD PUSH2 0x438 SWAP1 PUSH2 0x2681 JUMP JUMPDEST PUSH2 0x200 MLOAD PUSH1 0xA ADD PUSH2 0x448 SWAP1 PUSH2 0x2681 JUMP JUMPDEST SWAP2 PUSH2 0x200 MLOAD PUSH1 0xB ADD PUSH2 0x459 SWAP1 PUSH2 0x2681 JUMP JUMPDEST SWAP4 PUSH2 0x200 MLOAD PUSH1 0xC ADD PUSH2 0x46A SWAP1 PUSH2 0x2681 JUMP JUMPDEST SWAP6 PUSH2 0x200 MLOAD PUSH1 0xD ADD PUSH2 0x47B SWAP1 PUSH2 0x2681 JUMP JUMPDEST SWAP8 PUSH2 0x200 MLOAD PUSH1 0xE ADD PUSH2 0x48C SWAP1 PUSH2 0x2681 JUMP JUMPDEST SWAP10 PUSH2 0x200 MLOAD PUSH1 0xF ADD PUSH2 0x49D SWAP1 PUSH2 0x2681 JUMP JUMPDEST SWAP12 PUSH2 0x200 MLOAD PUSH1 0x10 ADD PUSH2 0x4AE SWAP1 PUSH2 0x2681 JUMP JUMPDEST PUSH2 0x280 MSTORE PUSH2 0x200 MLOAD PUSH1 0x11 ADD PUSH2 0x4C2 SWAP1 PUSH2 0x2681 JUMP JUMPDEST PUSH2 0x1C0 MSTORE PUSH2 0x200 MLOAD PUSH1 0x12 ADD PUSH2 0x4D6 SWAP1 PUSH2 0x2681 JUMP JUMPDEST PUSH2 0x120 MSTORE PUSH2 0x200 MLOAD PUSH1 0x13 ADD PUSH2 0x4EA SWAP1 PUSH2 0x2681 JUMP JUMPDEST PUSH2 0x2C0 MSTORE PUSH2 0x200 MLOAD PUSH1 0x14 ADD PUSH2 0x4FE SWAP1 PUSH2 0x2681 JUMP JUMPDEST PUSH2 0x1E0 MSTORE PUSH2 0x200 MLOAD PUSH1 0x15 ADD PUSH2 0x512 SWAP1 PUSH2 0x2681 JUMP JUMPDEST PUSH2 0x1A0 MSTORE PUSH2 0x200 MLOAD PUSH1 0x16 ADD SLOAD PUSH1 0x80 MSTORE PUSH1 0x40 MLOAD DUP1 PUSH2 0x140 MSTORE MSTORE PUSH2 0x300 DUP1 PUSH2 0x140 MLOAD PUSH1 0x20 ADD MSTORE PUSH2 0x140 MLOAD ADD PUSH1 0xE0 MLOAD SWAP1 PUSH2 0x548 SWAP2 PUSH2 0x2607 JUMP JUMPDEST PUSH2 0x140 MLOAD DUP1 DUP3 SUB SWAP1 PUSH1 0x40 ADD MSTORE PUSH2 0x100 MLOAD SWAP1 PUSH2 0x562 SWAP2 PUSH2 0x2607 JUMP JUMPDEST PUSH1 0xC0 MLOAD PUSH2 0x140 MLOAD PUSH1 0x60 ADD MSTORE PUSH2 0x140 MLOAD DUP1 DUP3 SUB SWAP1 PUSH1 0x80 ADD MSTORE PUSH2 0x582 SWAP2 PUSH2 0x2607 JUMP JUMPDEST PUSH2 0x140 MLOAD DUP1 DUP3 SUB SWAP1 PUSH1 0xA0 ADD MSTORE PUSH2 0x597 SWAP2 PUSH2 0x2607 JUMP JUMPDEST PUSH2 0x140 MLOAD DUP1 DUP3 SUB SWAP1 PUSH1 0xC0 ADD MSTORE PUSH2 0x5AC SWAP2 PUSH2 0x2607 JUMP JUMPDEST PUSH2 0x140 MLOAD DUP1 DUP3 SUB SWAP1 PUSH1 0xE0 ADD MSTORE PUSH2 0x5C1 SWAP2 PUSH2 0x2607 JUMP JUMPDEST PUSH2 0x140 MLOAD DUP1 DUP3 SUB SWAP1 PUSH2 0x100 ADD MSTORE PUSH2 0x5D7 SWAP2 PUSH2 0x2607 JUMP JUMPDEST PUSH2 0x140 MLOAD DUP1 DUP3 SUB SWAP1 PUSH2 0x120 ADD MSTORE PUSH2 0x5ED SWAP2 PUSH2 0x2607 JUMP JUMPDEST PUSH2 0x140 MLOAD DUP1 DUP3 SUB SWAP1 PUSH2 0x140 ADD MSTORE PUSH2 0x603 SWAP2 PUSH2 0x2607 JUMP JUMPDEST PUSH2 0x140 MLOAD DUP1 DUP3 SUB SWAP1 PUSH2 0x160 ADD MSTORE PUSH2 0x619 SWAP2 PUSH2 0x2607 JUMP JUMPDEST PUSH2 0x140 MLOAD DUP1 DUP3 SUB SWAP1 PUSH2 0x180 ADD MSTORE PUSH2 0x62F SWAP2 PUSH2 0x2607 JUMP JUMPDEST PUSH2 0x140 MLOAD DUP1 DUP3 SUB SWAP1 PUSH2 0x1A0 ADD MSTORE PUSH2 0x645 SWAP2 PUSH2 0x2607 JUMP JUMPDEST PUSH2 0x140 MLOAD DUP1 DUP3 SUB SWAP1 PUSH2 0x1C0 ADD MSTORE PUSH2 0x65B SWAP2 PUSH2 0x2607 JUMP JUMPDEST PUSH2 0x140 MLOAD DUP1 DUP3 SUB SWAP1 PUSH2 0x1E0 ADD MSTORE PUSH2 0x671 SWAP2 PUSH2 0x2607 JUMP JUMPDEST PUSH2 0x140 MLOAD DUP1 DUP3 SUB SWAP1 PUSH2 0x200 ADD MSTORE PUSH2 0x280 MLOAD SWAP1 PUSH2 0x68C SWAP2 PUSH2 0x2607 JUMP JUMPDEST PUSH2 0x140 MLOAD DUP1 DUP3 SUB SWAP1 PUSH2 0x220 ADD MSTORE PUSH2 0x1C0 MLOAD SWAP1 PUSH2 0x6A7 SWAP2 PUSH2 0x2607 JUMP JUMPDEST PUSH2 0x140 MLOAD DUP1 DUP3 SUB SWAP1 PUSH2 0x240 ADD MSTORE PUSH2 0x120 MLOAD SWAP1 PUSH2 0x6C2 SWAP2 PUSH2 0x2607 JUMP JUMPDEST PUSH2 0x140 MLOAD DUP1 DUP3 SUB SWAP1 PUSH2 0x260 ADD MSTORE PUSH2 0x2C0 MLOAD SWAP1 PUSH2 0x6DD SWAP2 PUSH2 0x2607 JUMP JUMPDEST PUSH2 0x140 MLOAD DUP1 DUP3 SUB SWAP1 PUSH2 0x280 ADD MSTORE PUSH2 0x1E0 MLOAD SWAP1 PUSH2 0x6F8 SWAP2 PUSH2 0x2607 JUMP JUMPDEST PUSH2 0x140 MLOAD DUP1 DUP3 SUB SWAP1 PUSH2 0x2A0 ADD MSTORE PUSH2 0x1A0 MLOAD SWAP1 PUSH2 0x713 SWAP2 PUSH2 0x2607 JUMP JUMPDEST PUSH1 0x80 MLOAD PUSH1 0xFF AND ISZERO ISZERO PUSH2 0x140 MLOAD PUSH2 0x2C0 ADD MSTORE PUSH1 0x80 MLOAD PUSH1 0x8 SHR PUSH1 0xFF AND ISZERO ISZERO PUSH2 0x140 MLOAD PUSH2 0x2E0 ADD MSTORE PUSH2 0x140 MLOAD DUP1 SWAP2 SUB SWAP1 RETURN JUMPDEST CALLVALUE PUSH2 0xA1 JUMPI PUSH1 0x20 CALLDATASIZE PUSH1 0x3 NOT ADD SLT PUSH2 0xA1 JUMPI PUSH1 0x4 CALLDATALOAD PUSH1 0x1 PUSH1 0x1 PUSH1 0xA0 SHL SUB DUP2 DUP2 AND SWAP2 DUP3 SWAP1 SUB PUSH2 0xA1 JUMPI PUSH1 0x0 SLOAD SWAP1 DUP2 AND CALLER SUB PUSH2 0x7C2 JUMPI DUP2 ISZERO PUSH2 0x78B JUMPI PUSH1 0x1 PUSH1 0x1 PUSH1 0xA0 SHL SUB NOT AND OR PUSH1 0x0 SSTORE STOP JUMPDEST PUSH1 0x40 MLOAD PUSH3 0x461BCD PUSH1 0xE5 SHL DUP2 MSTORE PUSH1 0x20 PUSH1 0x4 DUP3 ADD MSTORE PUSH1 0xF PUSH1 0x24 DUP3 ADD MSTORE PUSH15 0x496E76616C69642061646472657373 PUSH1 0x88 SHL PUSH1 0x44 DUP3 ADD MSTORE PUSH1 0x64 SWAP1 REVERT JUMPDEST PUSH1 0x40 MLOAD PUSH3 0x461BCD PUSH1 0xE5 SHL DUP2 MSTORE PUSH1 0x20 PUSH1 0x4 DUP3 ADD MSTORE PUSH1 0x26 PUSH1 0x24 DUP3 ADD MSTORE PUSH32 0x4F6E6C79207468652061646D696E2063616E20706572666F726D207468697320 PUSH1 0x44 DUP3 ADD MSTORE PUSH6 0x30B1BA34B7B7 PUSH1 0xD1 SHL PUSH1 0x64 DUP3 ADD MSTORE PUSH1 0x84 SWAP1 REVERT JUMPDEST CALLVALUE PUSH2 0xA1 JUMPI PUSH1 0x20 CALLDATASIZE PUSH1 0x3 NOT ADD SLT PUSH2 0xA1 JUMPI PUSH1 0x4 CALLDATALOAD PUSH1 0x1 PUSH1 0x1 PUSH1 0xA0 SHL SUB DUP2 AND SWAP1 DUP2 SWAP1 SUB PUSH2 0xA1 JUMPI DUP1 PUSH1 0x0 MSTORE PUSH1 0x1 PUSH1 0x20 MSTORE PUSH1 0xFF PUSH1 0x16 PUSH1 0x40 PUSH1 0x0 KECCAK256 ADD SLOAD PUSH1 0x8 SHR AND ISZERO PUSH2 0x8AA JUMPI PUSH1 0x0 MSTORE PUSH1 0x1 PUSH1 0x20 MSTORE PUSH2 0x898 PUSH1 0x40 PUSH1 0x0 KECCAK256 PUSH2 0x8A6 PUSH2 0x884 PUSH1 0xC PUSH2 0x87D PUSH1 0x2 DUP6 ADD PUSH2 0x2681 JUMP JUMPDEST SWAP4 ADD PUSH2 0x2681 JUMP JUMPDEST PUSH1 0x40 MLOAD SWAP4 DUP5 SWAP4 PUSH1 0x40 DUP6 MSTORE PUSH1 0x40 DUP6 ADD SWAP1 PUSH2 0x2607 JUMP JUMPDEST SWAP1 DUP4 DUP3 SUB PUSH1 0x20 DUP6 ADD MSTORE PUSH2 0x2607 JUMP JUMPDEST SUB SWAP1 RETURN JUMPDEST PUSH1 0x40 MLOAD PUSH3 0x461BCD PUSH1 0xE5 SHL DUP2 MSTORE PUSH1 0x20 PUSH1 0x4 DUP3 ADD MSTORE PUSH1 0x16 PUSH1 0x24 DUP3 ADD MSTORE PUSH22 0x155CD95C881A5CC81B9BDD081C9959DA5CDD195C9959 PUSH1 0x52 SHL PUSH1 0x44 DUP3 ADD MSTORE PUSH1 0x64 SWAP1 REVERT JUMPDEST CALLVALUE PUSH2 0xA1 JUMPI PUSH2 0x2C0 CALLDATASIZE PUSH1 0x3 NOT ADD SLT PUSH2 0xA1 JUMPI PUSH1 0x4 CALLDATALOAD PUSH1 0x1 PUSH1 0x1 PUSH1 0x40 SHL SUB DUP2 GT PUSH2 0xA1 JUMPI PUSH2 0x919 SWAP1 CALLDATASIZE SWAP1 PUSH1 0x4 ADD PUSH2 0x25B1 JUMP JUMPDEST PUSH2 0x2E0 MSTORE PUSH1 0x24 CALLDATALOAD PUSH1 0x1 PUSH1 0x1 PUSH1 0x40 SHL SUB DUP2 GT PUSH2 0xA1 JUMPI PUSH2 0x93C SWAP1 CALLDATASIZE SWAP1 PUSH1 0x4 ADD PUSH2 0x25B1 JUMP JUMPDEST PUSH2 0x180 MSTORE PUSH1 0x64 CALLDATALOAD PUSH1 0x1 PUSH1 0x1 PUSH1 0x40 SHL SUB DUP2 GT PUSH2 0xA1 JUMPI PUSH2 0x95F SWAP1 CALLDATASIZE SWAP1 PUSH1 0x4 ADD PUSH2 0x25B1 JUMP JUMPDEST PUSH2 0x2A0 MSTORE PUSH1 0x84 CALLDATALOAD PUSH1 0x1 PUSH1 0x1 PUSH1 0x40 SHL SUB DUP2 GT PUSH2 0xA1 JUMPI PUSH2 0x982 SWAP1 CALLDATASIZE SWAP1 PUSH1 0x4 ADD PUSH2 0x25B1 JUMP JUMPDEST PUSH1 0xA4 CALLDATALOAD PUSH1 0x1 PUSH1 0x1 PUSH1 0x40 SHL SUB DUP2 GT PUSH2 0xA1 JUMPI PUSH2 0x9A1 SWAP1 CALLDATASIZE SWAP1 PUSH1 0x4 ADD PUSH2 0x25B1 JUMP JUMPDEST PUSH1 0xC4 CALLDATALOAD PUSH1 0x1 PUSH1 0x1 PUSH1 0x40 SHL SUB DUP2 GT PUSH2 0xA1 JUMPI PUSH2 0x9C0 SWAP1 CALLDATASIZE SWAP1 PUSH1 0x4 ADD PUSH2 0x25B1 JUMP JUMPDEST PUSH1 0xE4 CALLDATALOAD PUSH1 0x1 PUSH1 0x1 PUSH1 0x40 SHL SUB DUP2 GT PUSH2 0xA1 JUMPI PUSH2 0x9DF SWAP1 CALLDATASIZE SWAP1 PUSH1 0x4 ADD PUSH2 0x25B1 JUMP JUMPDEST PUSH2 0x104 CALLDATALOAD PUSH1 0x1 PUSH1 0x1 PUSH1 0x40 SHL SUB DUP2 GT PUSH2 0xA1 JUMPI PUSH2 0x9FF SWAP1 CALLDATASIZE SWAP1 PUSH1 0x4 ADD PUSH2 0x25B1 JUMP JUMPDEST PUSH2 0x124 CALLDATALOAD PUSH1 0x1 PUSH1 0x1 PUSH1 0x40 SHL SUB DUP2 GT PUSH2 0xA1 JUMPI PUSH2 0xA1F SWAP1 CALLDATASIZE SWAP1 PUSH1 0x4 ADD PUSH2 0x25B1 JUMP JUMPDEST PUSH1 0x1 PUSH1 0x1 PUSH1 0x40 SHL SUB PUSH2 0x144 CALLDATALOAD GT PUSH2 0xA1 JUMPI PUSH2 0xA40 CALLDATASIZE PUSH2 0x144 CALLDATALOAD PUSH1 0x4 ADD PUSH2 0x25B1 JUMP JUMPDEST PUSH1 0x1 PUSH1 0x1 PUSH1 0x40 SHL SUB PUSH2 0x164 CALLDATALOAD GT PUSH2 0xA1 JUMPI PUSH2 0xA61 CALLDATASIZE PUSH2 0x164 CALLDATALOAD PUSH1 0x4 ADD PUSH2 0x25B1 JUMP JUMPDEST PUSH2 0x160 MSTORE PUSH1 0x1 PUSH1 0x1 PUSH1 0x40 SHL SUB PUSH2 0x184 CALLDATALOAD GT PUSH2 0xA1 JUMPI PUSH2 0xA86 CALLDATASIZE PUSH2 0x184 CALLDATALOAD PUSH1 0x4 ADD PUSH2 0x25B1 JUMP JUMPDEST SWAP1 PUSH1 0x1 PUSH1 0x1 PUSH1 0x40 SHL SUB PUSH2 0x1A4 CALLDATALOAD GT PUSH2 0xA1 JUMPI PUSH2 0xAA8 CALLDATASIZE PUSH2 0x1A4 CALLDATALOAD PUSH1 0x4 ADD PUSH2 0x25B1 JUMP JUMPDEST SWAP3 PUSH1 0x1 PUSH1 0x1 PUSH1 0x40 SHL SUB PUSH2 0x1C4 CALLDATALOAD GT PUSH2 0xA1 JUMPI PUSH2 0xACA CALLDATASIZE PUSH2 0x1C4 CALLDATALOAD PUSH1 0x4 ADD PUSH2 0x25B1 JUMP JUMPDEST SWAP5 PUSH1 0x1 PUSH1 0x1 PUSH1 0x40 SHL SUB PUSH2 0x1E4 CALLDATALOAD GT PUSH2 0xA1 JUMPI PUSH2 0xAEC CALLDATASIZE PUSH2 0x1E4 CALLDATALOAD PUSH1 0x4 ADD PUSH2 0x25B1 JUMP JUMPDEST SWAP7 PUSH1 0x1 PUSH1 0x1 PUSH1 0x40 SHL SUB PUSH2 0x204 CALLDATALOAD GT PUSH2 0xA1 JUMPI PUSH2 0xB0E CALLDATASIZE PUSH2 0x204 CALLDATALOAD PUSH1 0x4 ADD PUSH2 0x25B1 JUMP JUMPDEST SWAP9 PUSH1 0x1 PUSH1 0x1 PUSH1 0x40 SHL SUB PUSH2 0x224 CALLDATALOAD GT PUSH2 0xA1 JUMPI PUSH2 0xB30 CALLDATASIZE PUSH2 0x224 CALLDATALOAD PUSH1 0x4 ADD PUSH2 0x25B1 JUMP JUMPDEST SWAP11 PUSH1 0x1 PUSH1 0x1 PUSH1 0x40 SHL SUB PUSH2 0x244 CALLDATALOAD GT PUSH2 0xA1 JUMPI PUSH2 0xB52 CALLDATASIZE PUSH2 0x244 CALLDATALOAD PUSH1 0x4 ADD PUSH2 0x25B1 JUMP JUMPDEST PUSH2 0x260 MSTORE PUSH1 0x1 PUSH1 0x1 PUSH1 0x40 SHL SUB PUSH2 0x264 CALLDATALOAD GT PUSH2 0xA1 JUMPI PUSH2 0xB77 CALLDATASIZE PUSH2 0x264 CALLDATALOAD PUSH1 0x4 ADD PUSH2 0x25B1 JUMP JUMPDEST PUSH1 0xA0 MSTORE PUSH1 0x1 PUSH1 0x1 PUSH1 0x40 SHL SUB PUSH2 0x284 CALLDATALOAD GT PUSH2 0xA1 JUMPI PUSH2 0xB9B CALLDATASIZE PUSH2 0x284 CALLDATALOAD PUSH1 0x4 ADD PUSH2 0x25B1 JUMP JUMPDEST PUSH2 0x240 MSTORE PUSH2 0x2A4 CALLDATALOAD SWAP13 DUP14 DUP1 ISZERO ISZERO SUB PUSH2 0xA1 JUMPI CALLER PUSH1 0x0 MSTORE PUSH1 0x1 PUSH1 0x20 MSTORE PUSH1 0xFF PUSH1 0x16 PUSH1 0x40 PUSH1 0x0 KECCAK256 ADD SLOAD PUSH1 0x8 SHR AND PUSH2 0x23C6 JUMPI PUSH2 0x180 MLOAD MLOAD ISZERO PUSH2 0x2381 JUMPI PUSH1 0x44 CALLDATALOAD ISZERO PUSH2 0x2344 JUMPI PUSH2 0xBEA PUSH2 0x160 MLOAD MLOAD ISZERO ISZERO PUSH2 0x2727 JUMP JUMPDEST PUSH1 0x40 MLOAD DUP1 PUSH2 0x220 MSTORE DUP1 PUSH2 0x300 DUP2 ADD LT PUSH1 0x1 PUSH1 0x1 PUSH1 0x40 SHL SUB PUSH2 0x300 DUP4 ADD GT OR PUSH2 0x27A JUMPI PUSH2 0x300 DUP2 ADD PUSH1 0x40 MSTORE CALLER SWAP1 MSTORE PUSH2 0x2E0 MLOAD PUSH1 0x20 PUSH2 0x220 MLOAD ADD MSTORE PUSH2 0x180 MLOAD PUSH1 0x40 PUSH2 0x220 MLOAD ADD MSTORE PUSH1 0x44 CALLDATALOAD PUSH1 0x60 PUSH2 0x220 MLOAD ADD MSTORE PUSH2 0x2A0 MLOAD PUSH1 0x80 PUSH2 0x220 MLOAD ADD MSTORE PUSH1 0xA0 PUSH2 0x220 MLOAD ADD MSTORE PUSH1 0xC0 PUSH2 0x220 MLOAD ADD MSTORE PUSH1 0xE0 PUSH2 0x220 MLOAD ADD MSTORE PUSH2 0x100 PUSH2 0x220 MLOAD ADD MSTORE PUSH2 0x120 PUSH2 0x220 MLOAD ADD MSTORE PUSH2 0x140 PUSH2 0x220 MLOAD ADD MSTORE PUSH2 0x160 PUSH2 0x220 MLOAD ADD MSTORE PUSH2 0x160 MLOAD PUSH2 0x180 PUSH2 0x220 MLOAD ADD MSTORE PUSH2 0x1A0 PUSH2 0x220 MLOAD ADD MSTORE PUSH2 0x1C0 PUSH2 0x220 MLOAD ADD MSTORE PUSH2 0x1E0 PUSH2 0x220 MLOAD ADD MSTORE PUSH2 0x200 PUSH2 0x220 MLOAD ADD MSTORE PUSH2 0x220 DUP1 MLOAD ADD MSTORE PUSH2 0x240 PUSH2 0x220 MLOAD ADD MSTORE PUSH2 0x260 MLOAD PUSH2 0x260 PUSH2 0x220 MLOAD ADD MSTORE PUSH1 0xA0 MLOAD PUSH2 0x280 PUSH2 0x220 MLOAD ADD MSTORE PUSH2 0x240 MLOAD PUSH2 0x2A0 PUSH2 0x220 MLOAD ADD MSTORE ISZERO ISZERO PUSH2 0x2C0 PUSH2 0x220 MLOAD ADD MSTORE PUSH1 0x1 PUSH2 0x2E0 PUSH2 0x220 MLOAD ADD MSTORE CALLER PUSH1 0x0 MSTORE PUSH1 0x1 PUSH1 0x20 MSTORE PUSH1 0x40 PUSH1 0x0 KECCAK256 PUSH1 0x20 PUSH2 0x220 MLOAD PUSH1 0x1 DUP1 PUSH1 0xA0 SHL SUB DUP2 MLOAD AND PUSH12 0xFFFFFFFFFFFFFFFFFFFFFFFF PUSH1 0xA0 SHL DUP5 SLOAD AND OR DUP4 SSTORE ADD MLOAD DUP1 MLOAD SWAP1 PUSH1 0x1 PUSH1 0x1 PUSH1 0x40 SHL SUB DUP3 GT PUSH2 0x27A JUMPI DUP2 SWAP1 PUSH2 0xD55 PUSH1 0x1 DUP6 ADD SLOAD PUSH2 0x2647 JUMP JUMPDEST PUSH1 0x1F DUP2 GT PUSH2 0x230F JUMPI JUMPDEST POP PUSH1 0x20 SWAP1 PUSH1 0x1F DUP4 GT PUSH1 0x1 EQ PUSH2 0x229D JUMPI PUSH1 0x0 SWAP3 PUSH2 0x2292 JUMPI JUMPDEST POP POP DUP2 PUSH1 0x1 SHL SWAP2 PUSH1 0x0 NOT SWAP1 PUSH1 0x3 SHL SHR NOT AND OR PUSH1 0x1 DUP3 ADD SSTORE JUMPDEST PUSH1 0x40 PUSH2 0x220 MLOAD ADD MLOAD DUP1 MLOAD SWAP1 PUSH1 0x1 PUSH1 0x1 PUSH1 0x40 SHL SUB DUP3 GT PUSH2 0x27A JUMPI DUP2 SWAP1 PUSH2 0xDB5 PUSH1 0x2 DUP6 ADD SLOAD PUSH2 0x2647 JUMP JUMPDEST PUSH1 0x1F DUP2 GT PUSH2 0x225D JUMPI JUMPDEST POP PUSH1 0x20 SWAP1 PUSH1 0x1F DUP4 GT PUSH1 0x1 EQ PUSH2 0x21EB JUMPI PUSH1 0x0 SWAP3 PUSH2 0x21E0 JUMPI JUMPDEST POP POP DUP2 PUSH1 0x1 SHL SWAP2 PUSH1 0x0 NOT SWAP1 PUSH1 0x3 SHL SHR NOT AND OR PUSH1 0x2 DUP3 ADD SSTORE JUMPDEST PUSH1 0x80 PUSH2 0x220 MLOAD PUSH1 0x60 DUP2 ADD MLOAD PUSH1 0x3 DUP5 ADD SSTORE ADD MLOAD DUP1 MLOAD SWAP1 PUSH1 0x1 PUSH1 0x1 PUSH1 0x40 SHL SUB DUP3 GT PUSH2 0x27A JUMPI DUP2 SWAP1 PUSH2 0xE1F PUSH1 0x4 DUP6 ADD SLOAD PUSH2 0x2647 JUMP JUMPDEST PUSH1 0x1F DUP2 GT PUSH2 0x21AB JUMPI JUMPDEST POP PUSH1 0x20 SWAP1 PUSH1 0x1F DUP4 GT PUSH1 0x1 EQ PUSH2 0x2139 JUMPI PUSH1 0x0 SWAP3 PUSH2 0x212E JUMPI JUMPDEST POP POP DUP2 PUSH1 0x1 SHL SWAP2 PUSH1 0x0 NOT SWAP1 PUSH1 0x3 SHL SHR NOT AND OR PUSH1 0x4 DUP3 ADD SSTORE JUMPDEST PUSH1 0xA0 PUSH2 0x220 MLOAD ADD MLOAD DUP1 MLOAD SWAP1 PUSH1 0x1 PUSH1 0x1 PUSH1 0x40 SHL SUB DUP3 GT PUSH2 0x27A JUMPI DUP2 SWAP1 PUSH2 0xE7F PUSH1 0x5 DUP6 ADD SLOAD PUSH2 0x2647 JUMP JUMPDEST PUSH1 0x1F DUP2 GT PUSH2 0x20F9 JUMPI JUMPDEST POP PUSH1 0x20 SWAP1 PUSH1 0x1F DUP4 GT PUSH1 0x1 EQ PUSH2 0x2087 JUMPI PUSH1 0x0 SWAP3 PUSH2 0x207C JUMPI JUMPDEST POP POP DUP2 PUSH1 0x1 SHL SWAP2 PUSH1 0x0 NOT SWAP1 PUSH1 0x3 SHL SHR NOT AND OR PUSH1 0x5 DUP3 ADD SSTORE JUMPDEST PUSH1 0xC0 PUSH2 0x220 MLOAD ADD MLOAD DUP1 MLOAD SWAP1 PUSH1 0x1 PUSH1 0x1 PUSH1 0x40 SHL SUB DUP3 GT PUSH2 0x27A JUMPI DUP2 SWAP1 PUSH2 0xEDF PUSH1 0x6 DUP6 ADD SLOAD PUSH2 0x2647 JUMP JUMPDEST PUSH1 0x1F DUP2 GT PUSH2 0x2047 JUMPI JUMPDEST POP PUSH1 0x20 SWAP1 PUSH1 0x1F DUP4 GT PUSH1 0x1 EQ PUSH2 0x1FD5 JUMPI PUSH1 0x0 SWAP3 PUSH2 0x1FCA JUMPI JUMPDEST POP POP DUP2 PUSH1 0x1 SHL SWAP2 PUSH1 0x0 NOT SWAP1 PUSH1 0x3 SHL SHR NOT AND OR PUSH1 0x6 DUP3 ADD SSTORE JUMPDEST PUSH1 0xE0 PUSH2 0x220 MLOAD ADD MLOAD DUP1 MLOAD SWAP1 PUSH1 0x1 PUSH1 0x1 PUSH1 0x40 SHL SUB DUP3 GT PUSH2 0x27A JUMPI DUP2 SWAP1 PUSH2 0xF3F PUSH1 0x7 DUP6 ADD SLOAD PUSH2 0x2647 JUMP JUMPDEST PUSH1 0x1F DUP2 GT PUSH2 0x1F95 JUMPI JUMPDEST POP PUSH1 0x20 SWAP1 PUSH1 0x1F DUP4 GT PUSH1 0x1 EQ PUSH2 0x1F23 JUMPI PUSH1 0x0 SWAP3 PUSH2 0x1F18 JUMPI JUMPDEST POP POP DUP2 PUSH1 0x1 SHL SWAP2 PUSH1 0x0 NOT SWAP1 PUSH1 0x3 SHL SHR NOT AND OR PUSH1 0x7 DUP3 ADD SSTORE JUMPDEST PUSH2 0x100 PUSH2 0x220 MLOAD ADD MLOAD DUP1 MLOAD SWAP1 PUSH1 0x1 PUSH1 0x1 PUSH1 0x40 SHL SUB DUP3 GT PUSH2 0x27A JUMPI DUP2 SWAP1 PUSH2 0xFA0 PUSH1 0x8 DUP6 ADD SLOAD PUSH2 0x2647 JUMP JUMPDEST PUSH1 0x1F DUP2 GT PUSH2 0x1EE3 JUMPI JUMPDEST POP PUSH1 0x20 SWAP1 PUSH1 0x1F DUP4 GT PUSH1 0x1 EQ PUSH2 0x1E71 JUMPI PUSH1 0x0 SWAP3 PUSH2 0x1E66 JUMPI JUMPDEST POP POP DUP2 PUSH1 0x1 SHL SWAP2 PUSH1 0x0 NOT SWAP1 PUSH1 0x3 SHL SHR NOT AND OR PUSH1 0x8 DUP3 ADD SSTORE JUMPDEST PUSH2 0x120 PUSH2 0x220 MLOAD ADD MLOAD DUP1 MLOAD SWAP1 PUSH1 0x1 PUSH1 0x1 PUSH1 0x40 SHL SUB DUP3 GT PUSH2 0x27A JUMPI DUP2 SWAP1 PUSH2 0x1001 PUSH1 0x9 DUP6 ADD SLOAD PUSH2 0x2647 JUMP JUMPDEST PUSH1 0x1F DUP2 GT PUSH2 0x1E31 JUMPI JUMPDEST POP PUSH1 0x20 SWAP1 PUSH1 0x1F DUP4 GT PUSH1 0x1 EQ PUSH2 0x1DBF JUMPI PUSH1 0x0 SWAP3 PUSH2 0x1DB4 JUMPI JUMPDEST POP POP DUP2 PUSH1 0x1 SHL SWAP2 PUSH1 0x0 NOT SWAP1 PUSH1 0x3 SHL SHR NOT AND OR PUSH1 0x9 DUP3 ADD SSTORE JUMPDEST PUSH2 0x140 PUSH2 0x220 MLOAD ADD MLOAD DUP1 MLOAD SWAP1 PUSH1 0x1 PUSH1 0x1 PUSH1 0x40 SHL SUB DUP3 GT PUSH2 0x27A JUMPI DUP2 SWAP1 PUSH2 0x1062 PUSH1 0xA DUP6 ADD SLOAD PUSH2 0x2647 JUMP JUMPDEST PUSH1 0x1F DUP2 GT PUSH2 0x1D7F JUMPI JUMPDEST POP PUSH1 0x20 SWAP1 PUSH1 0x1F DUP4 GT PUSH1 0x1 EQ PUSH2 0x1D0D JUMPI PUSH1 0x0 SWAP3 PUSH2 0x1D02 JUMPI JUMPDEST POP POP DUP2 PUSH1 0x1 SHL SWAP2 PUSH1 0x0 NOT SWAP1 PUSH1 0x3 SHL SHR NOT AND OR PUSH1 0xA DUP3 ADD SSTORE JUMPDEST PUSH2 0x160 PUSH2 0x220 MLOAD ADD MLOAD DUP1 MLOAD SWAP1 PUSH1 0x1 PUSH1 0x1 PUSH1 0x40 SHL SUB DUP3 GT PUSH2 0x27A JUMPI DUP2 SWAP1 PUSH2 0x10C3 PUSH1 0xB DUP6 ADD SLOAD PUSH2 0x2647 JUMP JUMPDEST PUSH1 0x1F DUP2 GT PUSH2 0x1CCD JUMPI JUMPDEST POP PUSH1 0x20 SWAP1 PUSH1 0x1F DUP4 GT PUSH1 0x1 EQ PUSH2 0x1C5B JUMPI PUSH1 0x0 SWAP3 PUSH2 0x1C50 JUMPI JUMPDEST POP POP DUP2 PUSH1 0x1 SHL SWAP2 PUSH1 0x0 NOT SWAP1 PUSH1 0x3 SHL SHR NOT AND OR PUSH1 0xB DUP3 ADD SSTORE JUMPDEST PUSH2 0x180 PUSH2 0x220 MLOAD ADD MLOAD DUP1 MLOAD SWAP1 PUSH1 0x1 PUSH1 0x1 PUSH1 0x40 SHL SUB DUP3 GT PUSH2 0x27A JUMPI DUP2 SWAP1 PUSH2 0x1124 PUSH1 0xC DUP6 ADD SLOAD PUSH2 0x2647 JUMP JUMPDEST PUSH1 0x1F DUP2 GT PUSH2 0x1C1B JUMPI JUMPDEST POP PUSH1 0x20 SWAP1 PUSH1 0x1F DUP4 GT PUSH1 0x1 EQ PUSH2 0x1BA9 JUMPI PUSH1 0x0 SWAP3 PUSH2 0x1B9E JUMPI JUMPDEST POP POP DUP2 PUSH1 0x1 SHL SWAP2 PUSH1 0x0 NOT SWAP1 PUSH1 0x3 SHL SHR NOT AND OR PUSH1 0xC DUP3 ADD SSTORE JUMPDEST PUSH2 0x1A0 PUSH2 0x220 MLOAD ADD MLOAD DUP1 MLOAD SWAP1 PUSH1 0x1 PUSH1 0x1 PUSH1 0x40 SHL SUB DUP3 GT PUSH2 0x27A JUMPI DUP2 SWAP1 PUSH2 0x1185 PUSH1 0xD DUP6 ADD SLOAD PUSH2 0x2647 JUMP JUMPDEST PUSH1 0x1F DUP2 GT PUSH2 0x1B69 JUMPI JUMPDEST POP PUSH1 0x20 SWAP1 PUSH1 0x1F DUP4 GT PUSH1 0x1 EQ PUSH2 0x1AF7 JUMPI PUSH1 0x0 SWAP3 PUSH2 0x1AEC JUMPI JUMPDEST POP POP DUP2 PUSH1 0x1 SHL SWAP2 PUSH1 0x0 NOT SWAP1 PUSH1 0x3 SHL SHR NOT AND OR PUSH1 0xD DUP3 ADD SSTORE JUMPDEST PUSH2 0x1C0 PUSH2 0x220 MLOAD ADD MLOAD DUP1 MLOAD SWAP1 PUSH1 0x1 PUSH1 0x1 PUSH1 0x40 SHL SUB DUP3 GT PUSH2 0x27A JUMPI DUP2 SWAP1 PUSH2 0x11E6 PUSH1 0xE DUP6 ADD SLOAD PUSH2 0x2647 JUMP JUMPDEST PUSH1 0x1F DUP2 GT PUSH2 0x1AB7 JUMPI JUMPDEST POP PUSH1 0x20 SWAP1 PUSH1 0x1F DUP4 GT PUSH1 0x1 EQ PUSH2 0x1A45 JUMPI PUSH1 0x0 SWAP3 PUSH2 0x1A3A JUMPI JUMPDEST POP POP DUP2 PUSH1 0x1 SHL SWAP2 PUSH1 0x0 NOT SWAP1 PUSH1 0x3 SHL SHR NOT AND OR PUSH1 0xE DUP3 ADD SSTORE JUMPDEST PUSH2 0x1E0 PUSH2 0x220 MLOAD ADD MLOAD DUP1 MLOAD SWAP1 PUSH1 0x1 PUSH1 0x1 PUSH1 0x40 SHL SUB DUP3 GT PUSH2 0x27A JUMPI DUP2 SWAP1 PUSH2 0x1247 PUSH1 0xF DUP6 ADD SLOAD PUSH2 0x2647 JUMP JUMPDEST PUSH1 0x1F DUP2 GT PUSH2 0x1A05 JUMPI JUMPDEST POP PUSH1 0x20 SWAP1 PUSH1 0x1F DUP4 GT PUSH1 0x1 EQ PUSH2 0x1993 JUMPI PUSH1 0x0 SWAP3 PUSH2 0x1988 JUMPI JUMPDEST POP POP DUP2 PUSH1 0x1 SHL SWAP2 PUSH1 0x0 NOT SWAP1 PUSH1 0x3 SHL SHR NOT AND OR PUSH1 0xF DUP3 ADD SSTORE JUMPDEST PUSH2 0x200 PUSH2 0x220 MLOAD ADD MLOAD DUP1 MLOAD SWAP1 PUSH1 0x1 PUSH1 0x1 PUSH1 0x40 SHL SUB DUP3 GT PUSH2 0x27A JUMPI DUP2 SWAP1 PUSH2 0x12A8 PUSH1 0x10 DUP6 ADD SLOAD PUSH2 0x2647 JUMP JUMPDEST PUSH1 0x1F DUP2 GT PUSH2 0x1953 JUMPI JUMPDEST POP PUSH1 0x20 SWAP1 PUSH1 0x1F DUP4 GT PUSH1 0x1 EQ PUSH2 0x18E1 JUMPI PUSH1 0x0 SWAP3 PUSH2 0x18D6 JUMPI JUMPDEST POP POP DUP2 PUSH1 0x1 SHL SWAP2 PUSH1 0x0 NOT SWAP1 PUSH1 0x3 SHL SHR NOT AND OR PUSH1 0x10 DUP3 ADD SSTORE JUMPDEST PUSH2 0x220 DUP1 MLOAD ADD MLOAD DUP1 MLOAD SWAP1 PUSH1 0x1 PUSH1 0x1 PUSH1 0x40 SHL SUB DUP3 GT PUSH2 0x27A JUMPI DUP2 SWAP1 PUSH2 0x1307 PUSH1 0x11 DUP6 ADD SLOAD PUSH2 0x2647 JUMP JUMPDEST PUSH1 0x1F DUP2 GT PUSH2 0x18A1 JUMPI JUMPDEST POP PUSH1 0x20 SWAP1 PUSH1 0x1F DUP4 GT PUSH1 0x1 EQ PUSH2 0x182F JUMPI PUSH1 0x0 SWAP3 PUSH2 0x1824 JUMPI JUMPDEST POP POP DUP2 PUSH1 0x1 SHL SWAP2 PUSH1 0x0 NOT SWAP1 PUSH1 0x3 SHL SHR NOT AND OR PUSH1 0x11 DUP3 ADD SSTORE JUMPDEST PUSH2 0x240 PUSH2 0x220 MLOAD ADD MLOAD DUP1 MLOAD SWAP1 PUSH1 0x1 PUSH1 0x1 PUSH1 0x40 SHL SUB DUP3 GT PUSH2 0x27A JUMPI DUP2 SWAP1 PUSH2 0x1368 PUSH1 0x12 DUP6 ADD SLOAD PUSH2 0x2647 JUMP JUMPDEST PUSH1 0x1F DUP2 GT PUSH2 0x17EF JUMPI JUMPDEST POP PUSH1 0x20 SWAP1 PUSH1 0x1F DUP4 GT PUSH1 0x1 EQ PUSH2 0x177D JUMPI PUSH1 0x0 SWAP3 PUSH2 0x1772 JUMPI JUMPDEST POP POP DUP2 PUSH1 0x1 SHL SWAP2 PUSH1 0x0 NOT SWAP1 PUSH1 0x3 SHL SHR NOT AND OR PUSH1 0x12 DUP3 ADD SSTORE JUMPDEST PUSH2 0x260 PUSH2 0x220 MLOAD ADD MLOAD DUP1 MLOAD SWAP1 PUSH1 0x1 PUSH1 0x1 PUSH1 0x40 SHL SUB DUP3 GT PUSH2 0x27A JUMPI DUP2 SWAP1 PUSH2 0x13C9 PUSH1 0x13 DUP6 ADD SLOAD PUSH2 0x2647 JUMP JUMPDEST PUSH1 0x1F DUP2 GT PUSH2 0x173D JUMPI JUMPDEST POP PUSH1 0x20 SWAP1 PUSH1 0x1F DUP4 GT PUSH1 0x1 EQ PUSH2 0x16CB JUMPI PUSH1 0x0 SWAP3 PUSH2 0x16C0 JUMPI JUMPDEST POP POP DUP2 PUSH1 0x1 SHL SWAP2 PUSH1 0x0 NOT SWAP1 PUSH1 0x3 SHL SHR NOT AND OR PUSH1 0x13 DUP3 ADD SSTORE JUMPDEST PUSH2 0x280 PUSH2 0x220 MLOAD ADD MLOAD DUP1 MLOAD SWAP1 PUSH1 0x1 PUSH1 0x1 PUSH1 0x40 SHL SUB DUP3 GT PUSH2 0x27A JUMPI DUP2 SWAP1 PUSH2 0x142A PUSH1 0x14 DUP6 ADD SLOAD PUSH2 0x2647 JUMP JUMPDEST PUSH1 0x1F DUP2 GT PUSH2 0x168B JUMPI JUMPDEST POP PUSH1 0x20 SWAP1 PUSH1 0x1F DUP4 GT PUSH1 0x1 EQ PUSH2 0x1619 JUMPI PUSH1 0x0 SWAP3 PUSH2 0x160E JUMPI JUMPDEST POP POP DUP2 PUSH1 0x1 SHL SWAP2 PUSH1 0x0 NOT SWAP1 PUSH1 0x3 SHL SHR NOT AND OR PUSH1 0x14 DUP3 ADD SSTORE JUMPDEST PUSH1 0x15 DUP2 ADD SWAP1 PUSH2 0x2A0 PUSH2 0x220 MLOAD ADD MLOAD SWAP2 DUP3 MLOAD SWAP3 PUSH1 0x1 PUSH1 0x1 PUSH1 0x40 SHL SUB DUP5 GT PUSH2 0x27A JUMPI PUSH2 0x148C DUP3 SLOAD PUSH2 0x2647 JUMP JUMPDEST PUSH1 0x1F DUP2 GT PUSH2 0x15D1 JUMPI JUMPDEST POP PUSH1 0x20 SWAP1 PUSH1 0x1F DUP6 GT PUSH1 0x1 EQ PUSH2 0x1567 JUMPI PUSH1 0x16 SWAP5 SWAP2 PUSH1 0x0 SWAP2 DUP4 PUSH2 0x155C JUMPI JUMPDEST POP POP DUP2 PUSH1 0x1 SHL SWAP2 PUSH1 0x0 NOT SWAP1 PUSH1 0x3 SHL SHR NOT AND OR SWAP1 SSTORE JUMPDEST ADD PUSH2 0x220 MLOAD PUSH2 0x2C0 DUP2 ADD MLOAD ISZERO ISZERO SWAP1 PUSH1 0xFF PUSH2 0xFF00 PUSH2 0x2E0 DUP6 SLOAD SWAP4 ADD MLOAD ISZERO ISZERO PUSH1 0x8 SHL AND SWAP3 AND SWAP1 PUSH2 0xFFFF NOT AND OR OR SWAP1 SSTORE PUSH1 0x40 MLOAD PUSH1 0x60 DUP2 MSTORE PUSH32 0x509C70F523067009F7DB7F46DB6956D7AF8B679323680DC3821A8BAD001AC1E1 PUSH2 0x153F PUSH2 0x152E PUSH1 0x60 DUP5 ADD PUSH2 0x2E0 MLOAD PUSH2 0x2607 JUMP JUMPDEST DUP4 DUP2 SUB PUSH1 0x20 DUP6 ADD MSTORE PUSH2 0x180 MLOAD PUSH2 0x2607 JUMP JUMPDEST SWAP2 DUP1 DUP4 SUB PUSH1 0x40 DUP3 ADD MSTORE DUP1 PUSH2 0x1557 CALLER SWAP5 PUSH2 0x160 MLOAD PUSH2 0x2607 JUMP JUMPDEST SUB SWAP1 LOG2 STOP JUMPDEST ADD MLOAD SWAP1 POP DUP6 DUP1 PUSH2 0x14B1 JUMP JUMPDEST SWAP1 PUSH1 0x1F NOT DUP6 AND SWAP2 DUP4 PUSH1 0x0 MSTORE PUSH1 0x20 PUSH1 0x0 KECCAK256 SWAP3 PUSH1 0x0 JUMPDEST DUP2 DUP2 LT PUSH2 0x15B9 JUMPI POP SWAP2 PUSH1 0x1 SWAP4 SWAP2 DUP8 PUSH1 0x16 SWAP9 SWAP5 LT PUSH2 0x15A0 JUMPI JUMPDEST POP POP POP DUP2 SHL ADD SWAP1 SSTORE PUSH2 0x14C6 JUMP JUMPDEST ADD MLOAD PUSH1 0x0 NOT PUSH1 0xF8 DUP5 PUSH1 0x3 SHL AND SHR NOT AND SWAP1 SSTORE DUP6 DUP1 DUP1 PUSH2 0x1593 JUMP JUMPDEST SWAP3 SWAP4 PUSH1 0x20 PUSH1 0x1 DUP2 SWAP3 DUP8 DUP7 ADD MLOAD DUP2 SSTORE ADD SWAP6 ADD SWAP4 ADD PUSH2 0x157B JUMP JUMPDEST PUSH2 0x15FE SWAP1 DUP4 PUSH1 0x0 MSTORE PUSH1 0x20 PUSH1 0x0 KECCAK256 PUSH1 0x1F DUP8 ADD PUSH1 0x5 SHR DUP2 ADD SWAP2 PUSH1 0x20 DUP9 LT PUSH2 0x1604 JUMPI JUMPDEST PUSH1 0x1F ADD PUSH1 0x5 SHR ADD SWAP1 PUSH2 0x2773 JUMP JUMPDEST DUP5 PUSH2 0x1495 JUMP JUMPDEST SWAP1 SWAP2 POP DUP2 SWAP1 PUSH2 0x15F1 JUMP JUMPDEST ADD MLOAD SWAP1 POP DUP4 DUP1 PUSH2 0x144A JUMP JUMPDEST SWAP3 POP PUSH1 0x14 DUP5 ADD PUSH1 0x0 MSTORE PUSH1 0x20 PUSH1 0x0 KECCAK256 SWAP1 PUSH1 0x0 SWAP4 JUMPDEST PUSH1 0x1F NOT DUP5 AND DUP6 LT PUSH2 0x1670 JUMPI PUSH1 0x1 SWAP5 POP DUP4 PUSH1 0x1F NOT DUP2 AND LT PUSH2 0x1657 JUMPI JUMPDEST POP POP POP DUP2 SHL ADD PUSH1 0x14 DUP3 ADD SSTORE PUSH2 0x1462 JUMP JUMPDEST ADD MLOAD PUSH1 0x0 NOT PUSH1 0xF8 DUP5 PUSH1 0x3 SHL AND SHR NOT AND SWAP1 SSTORE DUP4 DUP1 DUP1 PUSH2 0x1647 JUMP JUMPDEST DUP2 DUP2 ADD MLOAD DUP4 SSTORE PUSH1 0x20 SWAP5 DUP6 ADD SWAP5 PUSH1 0x1 SWAP1 SWAP4 ADD SWAP3 SWAP1 SWAP2 ADD SWAP1 PUSH2 0x162C JUMP JUMPDEST PUSH2 0x16BA SWAP1 PUSH1 0x14 DUP7 ADD PUSH1 0x0 MSTORE PUSH1 0x20 PUSH1 0x0 KECCAK256 PUSH1 0x1F DUP6 ADD PUSH1 0x5 SHR DUP2 ADD SWAP2 PUSH1 0x20 DUP7 LT PUSH2 0x1604 JUMPI PUSH1 0x1F ADD PUSH1 0x5 SHR ADD SWAP1 PUSH2 0x2773 JUMP JUMPDEST DUP5 PUSH2 0x1433 JUMP JUMPDEST ADD MLOAD SWAP1 POP DUP4 DUP1 PUSH2 0x13E9 JUMP JUMPDEST SWAP3 POP PUSH1 0x13 DUP5 ADD PUSH1 0x0 MSTORE PUSH1 0x20 PUSH1 0x0 KECCAK256 SWAP1 PUSH1 0x0 SWAP4 JUMPDEST PUSH1 0x1F NOT DUP5 AND DUP6 LT PUSH2 0x1722 JUMPI PUSH1 0x1 SWAP5 POP DUP4 PUSH1 0x1F NOT DUP2 AND LT PUSH2 0x1709 JUMPI JUMPDEST POP POP POP DUP2 SHL ADD PUSH1 0x13 DUP3 ADD SSTORE PUSH2 0x1401 JUMP JUMPDEST ADD MLOAD PUSH1 0x0 NOT PUSH1 0xF8 DUP5 PUSH1 0x3 SHL AND SHR NOT AND SWAP1 SSTORE DUP4 DUP1 DUP1 PUSH2 0x16F9 JUMP JUMPDEST DUP2 DUP2 ADD MLOAD DUP4 SSTORE PUSH1 0x20 SWAP5 DUP6 ADD SWAP5 PUSH1 0x1 SWAP1 SWAP4 ADD SWAP3 SWAP1 SWAP2 ADD SWAP1 PUSH2 0x16DE JUMP JUMPDEST PUSH2 0x176C SWAP1 PUSH1 0x13 DUP7 ADD PUSH1 0x0 MSTORE PUSH1 0x20 PUSH1 0x0 KECCAK256 PUSH1 0x1F DUP6 ADD PUSH1 0x5 SHR DUP2 ADD SWAP2 PUSH1 0x20 DUP7 LT PUSH2 0x1604 JUMPI PUSH1 0x1F ADD PUSH1 0x5 SHR ADD SWAP1 PUSH2 0x2773 JUMP JUMPDEST DUP5 PUSH2 0x13D2 JUMP JUMPDEST ADD MLOAD SWAP1 POP DUP4 DUP1 PUSH2 0x1388 JUMP JUMPDEST SWAP3 POP PUSH1 0x12 DUP5 ADD PUSH1 0x0 MSTORE PUSH1 0x20 PUSH1 0x0 KECCAK256 SWAP1 PUSH1 0x0 SWAP4 JUMPDEST PUSH1 0x1F NOT DUP5 AND DUP6 LT PUSH2 0x17D4 JUMPI PUSH1 0x1 SWAP5 POP DUP4 PUSH1 0x1F NOT DUP2 AND LT PUSH2 0x17BB JUMPI JUMPDEST POP POP POP DUP2 SHL ADD PUSH1 0x12 DUP3 ADD SSTORE PUSH2 0x13A0 JUMP JUMPDEST ADD MLOAD PUSH1 0x0 NOT PUSH1 0xF8 DUP5 PUSH1 0x3 SHL AND SHR NOT AND SWAP1 SSTORE DUP4 DUP1 DUP1 PUSH2 0x17AB JUMP JUMPDEST DUP2 DUP2 ADD MLOAD DUP4 SSTORE PUSH1 0x20 SWAP5 DUP6 ADD SWAP5 PUSH1 0x1 SWAP1 SWAP4 ADD SWAP3 SWAP1 SWAP2 ADD SWAP1 PUSH2 0x1790 JUMP JUMPDEST PUSH2 0x181E SWAP1 PUSH1 0x12 DUP7 ADD PUSH1 0x0 MSTORE PUSH1 0x20 PUSH1 0x0 KECCAK256 PUSH1 0x1F DUP6 ADD PUSH1 0x5 SHR DUP2 ADD SWAP2 PUSH1 0x20 DUP7 LT PUSH2 0x1604 JUMPI PUSH1 0x1F ADD PUSH1 0x5 SHR ADD SWAP1 PUSH2 0x2773 JUMP JUMPDEST DUP5 PUSH2 0x1371 JUMP JUMPDEST ADD MLOAD SWAP1 POP DUP4 DUP1 PUSH2 0x1327 JUMP JUMPDEST SWAP3 POP PUSH1 0x11 DUP5 ADD PUSH1 0x0 MSTORE PUSH1 0x20 PUSH1 0x0 KECCAK256 SWAP1 PUSH1 0x0 SWAP4 JUMPDEST PUSH1 0x1F NOT DUP5 AND DUP6 LT PUSH2 0x1886 JUMPI PUSH1 0x1 SWAP5 POP DUP4 PUSH1 0x1F NOT DUP2 AND LT PUSH2 0x186D JUMPI JUMPDEST POP POP POP DUP2 SHL ADD PUSH1 0x11 DUP3 ADD SSTORE PUSH2 0x133F JUMP JUMPDEST ADD MLOAD PUSH1 0x0 NOT PUSH1 0xF8 DUP5 PUSH1 0x3 SHL AND SHR NOT AND SWAP1 SSTORE DUP4 DUP1 DUP1 PUSH2 0x185D JUMP JUMPDEST DUP2 DUP2 ADD MLOAD DUP4 SSTORE PUSH1 0x20 SWAP5 DUP6 ADD SWAP5 PUSH1 0x1 SWAP1 SWAP4 ADD SWAP3 SWAP1 SWAP2 ADD SWAP1 PUSH2 0x1842 JUMP JUMPDEST PUSH2 0x18D0 SWAP1 PUSH1 0x11 DUP7 ADD PUSH1 0x0 MSTORE PUSH1 0x20 PUSH1 0x0 KECCAK256 PUSH1 0x1F DUP6 ADD PUSH1 0x5 SHR DUP2 ADD SWAP2 PUSH1 0x20 DUP7 LT PUSH2 0x1604 JUMPI PUSH1 0x1F ADD PUSH1 0x5 SHR ADD SWAP1 PUSH2 0x2773 JUMP JUMPDEST DUP5 PUSH2 0x1310 JUMP JUMPDEST ADD MLOAD SWAP1 POP DUP4 DUP1 PUSH2 0x12C8 JUMP JUMPDEST SWAP3 POP PUSH1 0x10 DUP5 ADD PUSH1 0x0 MSTORE PUSH1 0x20 PUSH1 0x0 KECCAK256 SWAP1 PUSH1 0x0 SWAP4 JUMPDEST PUSH1 0x1F NOT DUP5 AND DUP6 LT PUSH2 0x1938 JUMPI PUSH1 0x1 SWAP5 POP DUP4 PUSH1 0x1F NOT DUP2 AND LT PUSH2 0x191F JUMPI JUMPDEST POP POP POP DUP2 SHL ADD PUSH1 0x10 DUP3 ADD SSTORE PUSH2 0x12E0 JUMP JUMPDEST ADD MLOAD PUSH1 0x0 NOT PUSH1 0xF8 DUP5 PUSH1 0x3 SHL AND SHR NOT AND SWAP1 SSTORE DUP4 DUP1 DUP1 PUSH2 0x190F JUMP JUMPDEST DUP2 DUP2 ADD MLOAD DUP4 SSTORE PUSH1 0x20 SWAP5 DUP6 ADD SWAP5 PUSH1 0x1 SWAP1 SWAP4 ADD SWAP3 SWAP1 SWAP2 ADD SWAP1 PUSH2 0x18F4 JUMP JUMPDEST PUSH2 0x1982 SWAP1 PUSH1 0x10 DUP7 ADD PUSH1 0x0 MSTORE PUSH1 0x20 PUSH1 0x0 KECCAK256 PUSH1 0x1F DUP6 ADD PUSH1 0x5 SHR DUP2 ADD SWAP2 PUSH1 0x20 DUP7 LT PUSH2 0x1604 JUMPI PUSH1 0x1F ADD PUSH1 0x5 SHR ADD SWAP1 PUSH2 0x2773 JUMP JUMPDEST DUP5 PUSH2 0x12B1 JUMP JUMPDEST ADD MLOAD SWAP1 POP DUP4 DUP1 PUSH2 0x1267 JUMP JUMPDEST SWAP3 POP PUSH1 0xF DUP5 ADD PUSH1 0x0 MSTORE PUSH1 0x20 PUSH1 0x0 KECCAK256 SWAP1 PUSH1 0x0 SWAP4 JUMPDEST PUSH1 0x1F NOT DUP5 AND DUP6 LT PUSH2 0x19EA JUMPI PUSH1 0x1 SWAP5 POP DUP4 PUSH1 0x1F NOT DUP2 AND LT PUSH2 0x19D1 JUMPI JUMPDEST POP POP POP DUP2 SHL ADD PUSH1 0xF DUP3 ADD SSTORE PUSH2 0x127F JUMP JUMPDEST ADD MLOAD PUSH1 0x0 NOT PUSH1 0xF8 DUP5 PUSH1 0x3 SHL AND SHR NOT AND SWAP1 SSTORE DUP4 DUP1 DUP1 PUSH2 0x19C1 JUMP JUMPDEST DUP2 DUP2 ADD MLOAD DUP4 SSTORE PUSH1 0x20 SWAP5 DUP6 ADD SWAP5 PUSH1 0x1 SWAP1 SWAP4 ADD SWAP3 SWAP1 SWAP2 ADD SWAP1 PUSH2 0x19A6 JUMP JUMPDEST PUSH2 0x1A34 SWAP1 PUSH1 0xF DUP7 ADD PUSH1 0x0 MSTORE PUSH1 0x20 PUSH1 0x0 KECCAK256 PUSH1 0x1F DUP6 ADD PUSH1 0x5 SHR DUP2 ADD SWAP2 PUSH1 0x20 DUP7 LT PUSH2 0x1604 JUMPI PUSH1 0x1F ADD PUSH1 0x5 SHR ADD SWAP1 PUSH2 0x2773 JUMP JUMPDEST DUP5 PUSH2 0x1250 JUMP JUMPDEST ADD MLOAD SWAP1 POP DUP4 DUP1 PUSH2 0x1206 JUMP JUMPDEST SWAP3 POP PUSH1 0xE DUP5 ADD PUSH1 0x0 MSTORE PUSH1 0x20 PUSH1 0x0 KECCAK256 SWAP1 PUSH1 0x0 SWAP4 JUMPDEST PUSH1 0x1F NOT DUP5 AND DUP6 LT PUSH2 0x1A9C JUMPI PUSH1 0x1 SWAP5 POP DUP4 PUSH1 0x1F NOT DUP2 AND LT PUSH2 0x1A83 JUMPI JUMPDEST POP POP POP DUP2 SHL ADD PUSH1 0xE DUP3 ADD SSTORE PUSH2 0x121E JUMP JUMPDEST ADD MLOAD PUSH1 0x0 NOT PUSH1 0xF8 DUP5 PUSH1 0x3 SHL AND SHR NOT AND SWAP1 SSTORE DUP4 DUP1 DUP1 PUSH2 0x1A73 JUMP JUMPDEST DUP2 DUP2 ADD MLOAD DUP4 SSTORE PUSH1 0x20 SWAP5 DUP6 ADD SWAP5 PUSH1 0x1 SWAP1 SWAP4 ADD SWAP3 SWAP1 SWAP2 ADD SWAP1 PUSH2 0x1A58 JUMP JUMPDEST PUSH2 0x1AE6 SWAP1 PUSH1 0xE DUP7 ADD PUSH1 0x0 MSTORE PUSH1 0x20 PUSH1 0x0 KECCAK256 PUSH1 0x1F DUP6 ADD PUSH1 0x5 SHR DUP2 ADD SWAP2 PUSH1 0x20 DUP7 LT PUSH2 0x1604 JUMPI PUSH1 0x1F ADD PUSH1 0x5 SHR ADD SWAP1 PUSH2 0x2773 JUMP JUMPDEST DUP5 PUSH2 0x11EF JUMP JUMPDEST ADD MLOAD SWAP1 POP DUP4 DUP1 PUSH2 0x11A5 JUMP JUMPDEST SWAP3 POP PUSH1 0xD DUP5 ADD PUSH1 0x0 MSTORE PUSH1 0x20 PUSH1 0x0 KECCAK256 SWAP1 PUSH1 0x0 SWAP4 JUMPDEST PUSH1 0x1F NOT DUP5 AND DUP6 LT PUSH2 0x1B4E JUMPI PUSH1 0x1 SWAP5 POP DUP4 PUSH1 0x1F NOT DUP2 AND LT PUSH2 0x1B35 JUMPI JUMPDEST POP POP POP DUP2 SHL ADD PUSH1 0xD DUP3 ADD SSTORE PUSH2 0x11BD JUMP JUMPDEST ADD MLOAD PUSH1 0x0 NOT PUSH1 0xF8 DUP5 PUSH1 0x3 SHL AND SHR NOT AND SWAP1 SSTORE DUP4 DUP1 DUP1 PUSH2 0x1B25 JUMP JUMPDEST DUP2 DUP2 ADD MLOAD DUP4 SSTORE PUSH1 0x20 SWAP5 DUP6 ADD SWAP5 PUSH1 0x1 SWAP1 SWAP4 ADD SWAP3 SWAP1 SWAP2 ADD SWAP1 PUSH2 0x1B0A JUMP JUMPDEST PUSH2 0x1B98 SWAP1 PUSH1 0xD DUP7 ADD PUSH1 0x0 MSTORE PUSH1 0x20 PUSH1 0x0 KECCAK256 PUSH1 0x1F DUP6 ADD PUSH1 0x5 SHR DUP2 ADD SWAP2 PUSH1 0x20 DUP7 LT PUSH2 0x1604 JUMPI PUSH1 0x1F ADD PUSH1 0x5 SHR ADD SWAP1 PUSH2 0x2773 JUMP JUMPDEST DUP5 PUSH2 0x118E JUMP JUMPDEST ADD MLOAD SWAP1 POP DUP4 DUP1 PUSH2 0x1144 JUMP JUMPDEST SWAP3 POP PUSH1 0xC DUP5 ADD PUSH1 0x0 MSTORE PUSH1 0x20 PUSH1 0x0 KECCAK256 SWAP1 PUSH1 0x0 SWAP4 JUMPDEST PUSH1 0x1F NOT DUP5 AND DUP6 LT PUSH2 0x1C00 JUMPI PUSH1 0x1 SWAP5 POP DUP4 PUSH1 0x1F NOT DUP2 AND LT PUSH2 0x1BE7 JUMPI JUMPDEST POP POP POP DUP2 SHL ADD PUSH1 0xC DUP3 ADD SSTORE PUSH2 0x115C JUMP JUMPDEST ADD MLOAD PUSH1 0x0 NOT PUSH1 0xF8 DUP5 PUSH1 0x3 SHL AND SHR NOT AND SWAP1 SSTORE DUP4 DUP1 DUP1 PUSH2 0x1BD7 JUMP JUMPDEST DUP2 DUP2 ADD MLOAD DUP4 SSTORE PUSH1 0x20 SWAP5 DUP6 ADD SWAP5 PUSH1 0x1 SWAP1 SWAP4 ADD SWAP3 SWAP1 SWAP2 ADD SWAP1 PUSH2 0x1BBC JUMP JUMPDEST PUSH2 0x1C4A SWAP1 PUSH1 0xC DUP7 ADD PUSH1 0x0 MSTORE PUSH1 0x20 PUSH1 0x0 KECCAK256 PUSH1 0x1F DUP6 ADD PUSH1 0x5 SHR DUP2 ADD SWAP2 PUSH1 0x20 DUP7 LT PUSH2 0x1604 JUMPI PUSH1 0x1F ADD PUSH1 0x5 SHR ADD SWAP1 PUSH2 0x2773 JUMP JUMPDEST DUP5 PUSH2 0x112D JUMP JUMPDEST ADD MLOAD SWAP1 POP DUP4 DUP1 PUSH2 0x10E3 JUMP JUMPDEST SWAP3 POP PUSH1 0xB DUP5 ADD PUSH1 0x0 MSTORE PUSH1 0x20 PUSH1 0x0 KECCAK256 SWAP1 PUSH1 0x0 SWAP4 JUMPDEST PUSH1 0x1F NOT DUP5 AND DUP6 LT PUSH2 0x1CB2 JUMPI PUSH1 0x1 SWAP5 POP DUP4 PUSH1 0x1F NOT DUP2 AND LT PUSH2 0x1C99 JUMPI JUMPDEST POP POP POP DUP2 SHL ADD PUSH1 0xB DUP3 ADD SSTORE PUSH2 0x10FB JUMP JUMPDEST ADD MLOAD PUSH1 0x0 NOT PUSH1 0xF8 DUP5 PUSH1 0x3 SHL AND SHR NOT AND SWAP1 SSTORE DUP4 DUP1 DUP1 PUSH2 0x1C89 JUMP JUMPDEST DUP2 DUP2 ADD MLOAD DUP4 SSTORE PUSH1 0x20 SWAP5 DUP6 ADD SWAP5 PUSH1 0x1 SWAP1 SWAP4 ADD SWAP3 SWAP1 SWAP2 ADD SWAP1 PUSH2 0x1C6E JUMP JUMPDEST PUSH2 0x1CFC SWAP1 PUSH1 0xB DUP7 ADD PUSH1 0x0 MSTORE PUSH1 0x20 PUSH1 0x0 KECCAK256 PUSH1 0x1F DUP6 ADD PUSH1 0x5 SHR DUP2 ADD SWAP2 PUSH1 0x20 DUP7 LT PUSH2 0x1604 JUMPI PUSH1 0x1F ADD PUSH1 0x5 SHR ADD SWAP1 PUSH2 0x2773 JUMP JUMPDEST DUP5 PUSH2 0x10CC JUMP JUMPDEST ADD MLOAD SWAP1 POP DUP4 DUP1 PUSH2 0x1082 JUMP JUMPDEST SWAP3 POP PUSH1 0xA DUP5 ADD PUSH1 0x0 MSTORE PUSH1 0x20 PUSH1 0x0 KECCAK256 SWAP1 PUSH1 0x0 SWAP4 JUMPDEST PUSH1 0x1F NOT DUP5 AND DUP6 LT PUSH2 0x1D64 JUMPI PUSH1 0x1 SWAP5 POP DUP4 PUSH1 0x1F NOT DUP2 AND LT PUSH2 0x1D4B JUMPI JUMPDEST POP POP POP DUP2 SHL ADD PUSH1 0xA DUP3 ADD SSTORE PUSH2 0x109A JUMP JUMPDEST ADD MLOAD PUSH1 0x0 NOT PUSH1 0xF8 DUP5 PUSH1 0x3 SHL AND SHR NOT AND SWAP1 SSTORE DUP4 DUP1 DUP1 PUSH2 0x1D3B JUMP JUMPDEST DUP2 DUP2 ADD MLOAD DUP4 SSTORE PUSH1 0x20 SWAP5 DUP6 ADD SWAP5 PUSH1 0x1 SWAP1 SWAP4 ADD SWAP3 SWAP1 SWAP2 ADD SWAP1 PUSH2 0x1D20 JUMP JUMPDEST PUSH2 0x1DAE SWAP1 PUSH1 0xA DUP7 ADD PUSH1 0x0 MSTORE PUSH1 0x20 PUSH1 0x0 KECCAK256 PUSH1 0x1F DUP6 ADD PUSH1 0x5 SHR DUP2 ADD SWAP2 PUSH1 0x20 DUP7 LT PUSH2 0x1604 JUMPI PUSH1 0x1F ADD PUSH1 0x5 SHR ADD SWAP1 PUSH2 0x2773 JUMP JUMPDEST DUP5 PUSH2 0x106B JUMP JUMPDEST ADD MLOAD SWAP1 POP DUP4 DUP1 PUSH2 0x1021 JUMP JUMPDEST SWAP3 POP PUSH1 0x9 DUP5 ADD PUSH1 0x0 MSTORE PUSH1 0x20 PUSH1 0x0 KECCAK256 SWAP1 PUSH1 0x0 SWAP4 JUMPDEST PUSH1 0x1F NOT DUP5 AND DUP6 LT PUSH2 0x1E16 JUMPI PUSH1 0x1 SWAP5 POP DUP4 PUSH1 0x1F NOT DUP2 AND LT PUSH2 0x1DFD JUMPI JUMPDEST POP POP POP DUP2 SHL ADD PUSH1 0x9 DUP3 ADD SSTORE PUSH2 0x1039 JUMP JUMPDEST ADD MLOAD PUSH1 0x0 NOT PUSH1 0xF8 DUP5 PUSH1 0x3 SHL AND SHR NOT AND SWAP1 SSTORE DUP4 DUP1 DUP1 PUSH2 0x1DED JUMP JUMPDEST DUP2 DUP2 ADD MLOAD DUP4 SSTORE PUSH1 0x20 SWAP5 DUP6 ADD SWAP5 PUSH1 0x1 SWAP1 SWAP4 ADD SWAP3 SWAP1 SWAP2 ADD SWAP1 PUSH2 0x1DD2 JUMP JUMPDEST PUSH2 0x1E60 SWAP1 PUSH1 0x9 DUP7 ADD PUSH1 0x0 MSTORE PUSH1 0x20 PUSH1 0x0 KECCAK256 PUSH1 0x1F DUP6 ADD PUSH1 0x5 SHR DUP2 ADD SWAP2 PUSH1 0x20 DUP7 LT PUSH2 0x1604 JUMPI PUSH1 0x1F ADD PUSH1 0x5 SHR ADD SWAP1 PUSH2 0x2773 JUMP JUMPDEST DUP5 PUSH2 0x100A JUMP JUMPDEST ADD MLOAD SWAP1 POP DUP4 DUP1 PUSH2 0xFC0 JUMP JUMPDEST SWAP3 POP PUSH1 0x8 DUP5 ADD PUSH1 0x0 MSTORE PUSH1 0x20 PUSH1 0x0 KECCAK256 SWAP1 PUSH1 0x0 SWAP4 JUMPDEST PUSH1 0x1F NOT DUP5 AND DUP6 LT PUSH2 0x1EC8 JUMPI PUSH1 0x1 SWAP5 POP DUP4 PUSH1 0x1F NOT DUP2 AND LT PUSH2 0x1EAF JUMPI JUMPDEST POP POP POP DUP2 SHL ADD PUSH1 0x8 DUP3 ADD SSTORE PUSH2 0xFD8 JUMP JUMPDEST ADD MLOAD PUSH1 0x0 NOT PUSH1 0xF8 DUP5 PUSH1 0x3 SHL AND SHR NOT AND SWAP1 SSTORE DUP4 DUP1 DUP1 PUSH2 0x1E9F JUMP JUMPDEST DUP2 DUP2 ADD MLOAD DUP4 SSTORE PUSH1 0x20 SWAP5 DUP6 ADD SWAP5 PUSH1 0x1 SWAP1 SWAP4 ADD SWAP3 SWAP1 SWAP2 ADD SWAP1 PUSH2 0x1E84 JUMP JUMPDEST PUSH2 0x1F12 SWAP1 PUSH1 0x8 DUP7 ADD PUSH1 0x0 MSTORE PUSH1 0x20 PUSH1 0x0 KECCAK256 PUSH1 0x1F DUP6 ADD PUSH1 0x5 SHR DUP2 ADD SWAP2 PUSH1 0x20 DUP7 LT PUSH2 0x1604 JUMPI PUSH1 0x1F ADD PUSH1 0x5 SHR ADD SWAP1 PUSH2 0x2773 JUMP JUMPDEST DUP5 PUSH2 0xFA9 JUMP JUMPDEST ADD MLOAD SWAP1 POP DUP4 DUP1 PUSH2 0xF5F JUMP JUMPDEST SWAP3 POP PUSH1 0x7 DUP5 ADD PUSH1 0x0 MSTORE PUSH1 0x20 PUSH1 0x0 KECCAK256 SWAP1 PUSH1 0x0 SWAP4 JUMPDEST PUSH1 0x1F NOT DUP5 AND DUP6 LT PUSH2 0x1F7A JUMPI PUSH1 0x1 SWAP5 POP DUP4 PUSH1 0x1F NOT DUP2 AND LT PUSH2 0x1F61 JUMPI JUMPDEST POP POP POP DUP2 SHL ADD PUSH1 0x7 DUP3 ADD SSTORE PUSH2 0xF77 JUMP JUMPDEST ADD MLOAD PUSH1 0x0 NOT PUSH1 0xF8 DUP5 PUSH1 0x3 SHL AND SHR NOT AND SWAP1 SSTORE DUP4 DUP1 DUP1 PUSH2 0x1F51 JUMP JUMPDEST DUP2 DUP2 ADD MLOAD DUP4 SSTORE PUSH1 0x20 SWAP5 DUP6 ADD SWAP5 PUSH1 0x1 SWAP1 SWAP4 ADD SWAP3 SWAP1 SWAP2 ADD SWAP1 PUSH2 0x1F36 JUMP JUMPDEST PUSH2 0x1FC4 SWAP1 PUSH1 0x7 DUP7 ADD PUSH1 0x0 MSTORE PUSH1 0x20 PUSH1 0x0 KECCAK256 PUSH1 0x1F DUP6 ADD PUSH1 0x5 SHR DUP2 ADD SWAP2 PUSH1 0x20 DUP7 LT PUSH2 0x1604 JUMPI PUSH1 0x1F ADD PUSH1 0x5 SHR ADD SWAP1 PUSH2 0x2773 JUMP JUMPDEST DUP5 PUSH2 0xF48 JUMP JUMPDEST ADD MLOAD SWAP1 POP DUP4 DUP1 PUSH2 0xEFF JUMP JUMPDEST SWAP3 POP PUSH1 0x6 DUP5 ADD PUSH1 0x0 MSTORE PUSH1 0x20 PUSH1 0x0 KECCAK256 SWAP1 PUSH1 0x0 SWAP4 JUMPDEST PUSH1 0x1F NOT DUP5 AND DUP6 LT PUSH2 0x202C JUMPI PUSH1 0x1 SWAP5 POP DUP4 PUSH1 0x1F NOT DUP2 AND LT PUSH2 0x2013 JUMPI JUMPDEST POP POP POP DUP2 SHL ADD PUSH1 0x6 DUP3 ADD SSTORE PUSH2 0xF17 JUMP JUMPDEST ADD MLOAD PUSH1 0x0 NOT PUSH1 0xF8 DUP5 PUSH1 0x3 SHL AND SHR NOT AND SWAP1 SSTORE DUP4 DUP1 DUP1 PUSH2 0x2003 JUMP JUMPDEST DUP2 DUP2 ADD MLOAD DUP4 SSTORE PUSH1 0x20 SWAP5 DUP6 ADD SWAP5 PUSH1 0x1 SWAP1 SWAP4 ADD SWAP3 SWAP1 SWAP2 ADD SWAP1 PUSH2 0x1FE8 JUMP JUMPDEST PUSH2 0x2076 SWAP1 PUSH1 0x6 DUP7 ADD PUSH1 0x0 MSTORE PUSH1 0x20 PUSH1 0x0 KECCAK256 PUSH1 0x1F DUP6 ADD PUSH1 0x5 SHR DUP2 ADD SWAP2 PUSH1 0x20 DUP7 LT PUSH2 0x1604 JUMPI PUSH1 0x1F ADD PUSH1 0x5 SHR ADD SWAP1 PUSH2 0x2773 JUMP JUMPDEST DUP5 PUSH2 0xEE8 JUMP JUMPDEST ADD MLOAD SWAP1 POP DUP4 DUP1 PUSH2 0xE9F JUMP JUMPDEST SWAP3 POP PUSH1 0x5 DUP5 ADD PUSH1 0x0 MSTORE PUSH1 0x20 PUSH1 0x0 KECCAK256 SWAP1 PUSH1 0x0 SWAP4 JUMPDEST PUSH1 0x1F NOT DUP5 AND DUP6 LT PUSH2 0x20DE JUMPI PUSH1 0x1 SWAP5 POP DUP4 PUSH1 0x1F NOT DUP2 AND LT PUSH2 0x20C5 JUMPI JUMPDEST POP POP POP DUP2 SHL ADD PUSH1 0x5 DUP3 ADD SSTORE PUSH2 0xEB7 JUMP JUMPDEST ADD MLOAD PUSH1 0x0 NOT PUSH1 0xF8 DUP5 PUSH1 0x3 SHL AND SHR NOT AND SWAP1 SSTORE DUP4 DUP1 DUP1 PUSH2 0x20B5 JUMP JUMPDEST DUP2 DUP2 ADD MLOAD DUP4 SSTORE PUSH1 0x20 SWAP5 DUP6 ADD SWAP5 PUSH1 0x1 SWAP1 SWAP4 ADD SWAP3 SWAP1 SWAP2 ADD SWAP1 PUSH2 0x209A JUMP JUMPDEST PUSH2 0x2128 SWAP1 PUSH1 0x5 DUP7 ADD PUSH1 0x0 MSTORE PUSH1 0x20 PUSH1 0x0 KECCAK256 PUSH1 0x1F DUP6 ADD PUSH1 0x5 SHR DUP2 ADD SWAP2 PUSH1 0x20 DUP7 LT PUSH2 0x1604 JUMPI PUSH1 0x1F ADD PUSH1 0x5 SHR ADD SWAP1 PUSH2 0x2773 JUMP JUMPDEST DUP5 PUSH2 0xE88 JUMP JUMPDEST ADD MLOAD SWAP1 POP DUP4 DUP1 PUSH2 0xE3F JUMP JUMPDEST SWAP3 POP PUSH1 0x4 DUP5 ADD PUSH1 0x0 MSTORE PUSH1 0x20 PUSH1 0x0 KECCAK256 SWAP1 PUSH1 0x0 SWAP4 JUMPDEST PUSH1 0x1F NOT DUP5 AND DUP6 LT PUSH2 0x2190 JUMPI PUSH1 0x1 SWAP5 POP DUP4 PUSH1 0x1F NOT DUP2 AND LT PUSH2 0x2177 JUMPI JUMPDEST POP POP POP DUP2 SHL ADD PUSH1 0x4 DUP3 ADD SSTORE PUSH2 0xE57 JUMP JUMPDEST ADD MLOAD PUSH1 0x0 NOT PUSH1 0xF8 DUP5 PUSH1 0x3 SHL AND SHR NOT AND SWAP1 SSTORE DUP4 DUP1 DUP1 PUSH2 0x2167 JUMP JUMPDEST DUP2 DUP2 ADD MLOAD DUP4 SSTORE PUSH1 0x20 SWAP5 DUP6 ADD SWAP5 PUSH1 0x1 SWAP1 SWAP4 ADD SWAP3 SWAP1 SWAP2 ADD SWAP1 PUSH2 0x214C JUMP JUMPDEST PUSH2 0x21DA SWAP1 PUSH1 0x4 DUP7 ADD PUSH1 0x0 MSTORE PUSH1 0x20 PUSH1 0x0 KECCAK256 PUSH1 0x1F DUP6 ADD PUSH1 0x5 SHR DUP2 ADD SWAP2 PUSH1 0x20 DUP7 LT PUSH2 0x1604 JUMPI PUSH1 0x1F ADD PUSH1 0x5 SHR ADD SWAP1 PUSH2 0x2773 JUMP JUMPDEST DUP5 PUSH2 0xE28 JUMP JUMPDEST ADD MLOAD SWAP1 POP DUP4 DUP1 PUSH2 0xDD5 JUMP JUMPDEST SWAP3 POP PUSH1 0x2 DUP5 ADD PUSH1 0x0 MSTORE PUSH1 0x20 PUSH1 0x0 KECCAK256 SWAP1 PUSH1 0x0 SWAP4 JUMPDEST PUSH1 0x1F NOT DUP5 AND DUP6 LT PUSH2 0x2242 JUMPI PUSH1 0x1 SWAP5 POP DUP4 PUSH1 0x1F NOT DUP2 AND LT PUSH2 0x2229 JUMPI JUMPDEST POP POP POP DUP2 SHL ADD PUSH1 0x2 DUP3 ADD SSTORE PUSH2 0xDED JUMP JUMPDEST ADD MLOAD PUSH1 0x0 NOT PUSH1 0xF8 DUP5 PUSH1 0x3 SHL AND SHR NOT AND SWAP1 SSTORE DUP4 DUP1 DUP1 PUSH2 0x2219 JUMP JUMPDEST DUP2 DUP2 ADD MLOAD DUP4 SSTORE PUSH1 0x20 SWAP5 DUP6 ADD SWAP5 PUSH1 0x1 SWAP1 SWAP4 ADD SWAP3 SWAP1 SWAP2 ADD SWAP1 PUSH2 0x21FE JUMP JUMPDEST PUSH2 0x228C SWAP1 PUSH1 0x2 DUP7 ADD PUSH1 0x0 MSTORE PUSH1 0x20 PUSH1 0x0 KECCAK256 PUSH1 0x1F DUP6 ADD PUSH1 0x5 SHR DUP2 ADD SWAP2 PUSH1 0x20 DUP7 LT PUSH2 0x1604 JUMPI PUSH1 0x1F ADD PUSH1 0x5 SHR ADD SWAP1 PUSH2 0x2773 JUMP JUMPDEST DUP5 PUSH2 0xDBE JUMP JUMPDEST ADD MLOAD SWAP1 POP DUP4 DUP1 PUSH2 0xD75 JUMP JUMPDEST SWAP3 POP PUSH1 0x1 DUP5 ADD PUSH1 0x0 MSTORE PUSH1 0x20 PUSH1 0x0 KECCAK256 SWAP1 PUSH1 0x0 SWAP4 JUMPDEST PUSH1 0x1F NOT DUP5 AND DUP6 LT PUSH2 0x22F4 JUMPI PUSH1 0x1 SWAP5 POP DUP4 PUSH1 0x1F NOT DUP2 AND LT PUSH2 0x22DB JUMPI JUMPDEST POP POP POP DUP2 SHL ADD PUSH1 0x1 DUP3 ADD SSTORE PUSH2 0xD8D JUMP JUMPDEST ADD MLOAD PUSH1 0x0 NOT PUSH1 0xF8 DUP5 PUSH1 0x3 SHL AND SHR NOT AND SWAP1 SSTORE DUP4 DUP1 DUP1 PUSH2 0x22CB JUMP JUMPDEST DUP2 DUP2 ADD MLOAD DUP4 SSTORE PUSH1 0x20 SWAP5 DUP6 ADD SWAP5 PUSH1 0x1 SWAP1 SWAP4 ADD SWAP3 SWAP1 SWAP2 ADD SWAP1 PUSH2 0x22B0 JUMP JUMPDEST PUSH2 0x233E SWAP1 PUSH1 0x1 DUP7 ADD PUSH1 0x0 MSTORE PUSH1 0x20 PUSH1 0x0 KECCAK256 PUSH1 0x1F DUP6 ADD PUSH1 0x5 SHR DUP2 ADD SWAP2 PUSH1 0x20 DUP7 LT PUSH2 0x1604 JUMPI PUSH1 0x1F ADD PUSH1 0x5 SHR ADD SWAP1 PUSH2 0x2773 JUMP JUMPDEST DUP5 PUSH2 0xD5E JUMP JUMPDEST PUSH1 0x40 MLOAD PUSH3 0x461BCD PUSH1 0xE5 SHL DUP2 MSTORE PUSH1 0x20 PUSH1 0x4 DUP3 ADD MSTORE PUSH1 0x15 PUSH1 0x24 DUP3 ADD MSTORE PUSH21 0x92DCECC2D8D2C840C8C2E8CA40DECC40C4D2E4E8D PUSH1 0x5B SHL PUSH1 0x44 DUP3 ADD MSTORE PUSH1 0x64 SWAP1 REVERT JUMPDEST PUSH1 0x40 MLOAD PUSH3 0x461BCD PUSH1 0xE5 SHL DUP2 MSTORE PUSH1 0x20 PUSH1 0x4 DUP3 ADD MSTORE PUSH1 0x1B PUSH1 0x24 DUP3 ADD MSTORE PUSH32 0x46756C6C206E616D65206D757374206E6F7420626520656D7074790000000000 PUSH1 0x44 DUP3 ADD MSTORE PUSH1 0x64 SWAP1 REVERT JUMPDEST PUSH1 0x40 MLOAD PUSH3 0x461BCD PUSH1 0xE5 SHL DUP2 MSTORE PUSH1 0x20 PUSH1 0x4 DUP3 ADD MSTORE PUSH1 0x1A PUSH1 0x24 DUP3 ADD MSTORE PUSH32 0x5573657220697320616C72656164792072656769737465726564000000000000 PUSH1 0x44 DUP3 ADD MSTORE PUSH1 0x64 SWAP1 REVERT JUMPDEST CALLVALUE PUSH2 0xA1 JUMPI PUSH1 0x0 CALLDATASIZE PUSH1 0x3 NOT ADD SLT PUSH2 0xA1 JUMPI CALLER PUSH1 0x0 MSTORE PUSH1 0x1 PUSH1 0x20 MSTORE PUSH2 0x243C PUSH1 0xFF PUSH1 0x16 PUSH1 0x40 PUSH1 0x0 KECCAK256 ADD SLOAD PUSH1 0x8 SHR AND PUSH2 0x278A JUMP JUMPDEST CALLER PUSH1 0x0 MSTORE PUSH1 0x1 PUSH1 0x20 MSTORE PUSH1 0x0 PUSH1 0x16 PUSH1 0x40 DUP3 KECCAK256 DUP3 DUP2 SSTORE PUSH2 0x245C PUSH1 0x1 DUP3 ADD PUSH2 0x27D6 JUMP JUMPDEST PUSH2 0x2468 PUSH1 0x2 DUP3 ADD PUSH2 0x27D6 JUMP JUMPDEST DUP3 PUSH1 0x3 DUP3 ADD SSTORE PUSH2 0x247A PUSH1 0x4 DUP3 ADD PUSH2 0x27D6 JUMP JUMPDEST PUSH2 0x2486 PUSH1 0x5 DUP3 ADD PUSH2 0x27D6 JUMP JUMPDEST PUSH2 0x2492 PUSH1 0x6 DUP3 ADD PUSH2 0x27D6 JUMP JUMPDEST PUSH2 0x249E PUSH1 0x7 DUP3 ADD PUSH2 0x27D6 JUMP JUMPDEST PUSH2 0x24AA PUSH1 0x8 DUP3 ADD PUSH2 0x27D6 JUMP JUMPDEST PUSH2 0x24B6 PUSH1 0x9 DUP3 ADD PUSH2 0x27D6 JUMP JUMPDEST PUSH2 0x24C2 PUSH1 0xA DUP3 ADD PUSH2 0x27D6 JUMP JUMPDEST PUSH2 0x24CE PUSH1 0xB DUP3 ADD PUSH2 0x27D6 JUMP JUMPDEST PUSH2 0x24DA PUSH1 0xC DUP3 ADD PUSH2 0x27D6 JUMP JUMPDEST PUSH2 0x24E6 PUSH1 0xD DUP3 ADD PUSH2 0x27D6 JUMP JUMPDEST PUSH2 0x24F2 PUSH1 0xE DUP3 ADD PUSH2 0x27D6 JUMP JUMPDEST PUSH2 0x24FE PUSH1 0xF DUP3 ADD PUSH2 0x27D6 JUMP JUMPDEST PUSH2 0x250A PUSH1 0x10 DUP3 ADD PUSH2 0x27D6 JUMP JUMPDEST PUSH2 0x2516 PUSH1 0x11 DUP3 ADD PUSH2 0x27D6 JUMP JUMPDEST PUSH2 0x2522 PUSH1 0x12 DUP3 ADD PUSH2 0x27D6 JUMP JUMPDEST PUSH2 0x252E PUSH1 0x13 DUP3 ADD PUSH2 0x27D6 JUMP JUMPDEST PUSH2 0x253A PUSH1 0x14 DUP3 ADD PUSH2 0x27D6 JUMP JUMPDEST PUSH2 0x2546 PUSH1 0x15 DUP3 ADD PUSH2 0x27D6 JUMP JUMPDEST ADD SSTORE STOP JUMPDEST CALLVALUE PUSH2 0xA1 JUMPI PUSH1 0x20 CALLDATASIZE PUSH1 0x3 NOT ADD SLT PUSH2 0xA1 JUMPI PUSH1 0x4 CALLDATALOAD PUSH1 0x1 PUSH1 0x1 PUSH1 0xA0 SHL SUB DUP2 AND SWAP2 SWAP1 DUP3 SWAP1 SUB PUSH2 0xA1 JUMPI PUSH1 0x20 SWAP2 PUSH1 0x0 MSTORE PUSH1 0x1 DUP3 MSTORE PUSH1 0xFF PUSH1 0x16 PUSH1 0x40 PUSH1 0x0 KECCAK256 ADD SLOAD PUSH1 0x8 SHR AND ISZERO ISZERO DUP2 MSTORE RETURN JUMPDEST SWAP1 PUSH1 0x1F DUP1 NOT SWAP2 ADD AND DUP2 ADD SWAP1 DUP2 LT PUSH1 0x1 PUSH1 0x1 PUSH1 0x40 SHL SUB DUP3 GT OR PUSH2 0x27A JUMPI PUSH1 0x40 MSTORE JUMP JUMPDEST DUP2 PUSH1 0x1F DUP3 ADD SLT ISZERO PUSH2 0xA1 JUMPI DUP1 CALLDATALOAD SWAP1 PUSH1 0x1 PUSH1 0x1 PUSH1 0x40 SHL SUB DUP3 GT PUSH2 0x27A JUMPI PUSH1 0x40 MLOAD SWAP3 PUSH2 0x25E5 PUSH1 0x1F DUP5 ADD PUSH1 0x1F NOT AND PUSH1 0x20 ADD DUP6 PUSH2 0x2590 JUMP JUMPDEST DUP3 DUP5 MSTORE PUSH1 0x20 DUP4 DUP4 ADD ADD GT PUSH2 0xA1 JUMPI DUP2 PUSH1 0x0 SWAP3 PUSH1 0x20 DUP1 SWAP4 ADD DUP4 DUP7 ADD CALLDATACOPY DUP4 ADD ADD MSTORE SWAP1 JUMP JUMPDEST SWAP2 SWAP1 DUP3 MLOAD SWAP3 DUP4 DUP3 MSTORE PUSH1 0x0 JUMPDEST DUP5 DUP2 LT PUSH2 0x2633 JUMPI POP POP DUP3 PUSH1 0x0 PUSH1 0x20 DUP1 SWAP5 SWAP6 DUP5 ADD ADD MSTORE PUSH1 0x1F DUP1 NOT SWAP2 ADD AND ADD ADD SWAP1 JUMP JUMPDEST PUSH1 0x20 DUP2 DUP4 ADD DUP2 ADD MLOAD DUP5 DUP4 ADD DUP3 ADD MSTORE ADD PUSH2 0x2612 JUMP JUMPDEST SWAP1 PUSH1 0x1 DUP3 DUP2 SHR SWAP3 AND DUP1 ISZERO PUSH2 0x2677 JUMPI JUMPDEST PUSH1 0x20 DUP4 LT EQ PUSH2 0x2661 JUMPI JUMP JUMPDEST PUSH4 0x4E487B71 PUSH1 0xE0 SHL PUSH1 0x0 MSTORE PUSH1 0x22 PUSH1 0x4 MSTORE PUSH1 0x24 PUSH1 0x0 REVERT JUMPDEST SWAP2 PUSH1 0x7F AND SWAP2 PUSH2 0x2656 JUMP JUMPDEST SWAP1 PUSH1 0x40 MLOAD SWAP2 DUP3 PUSH1 0x0 DUP3 SLOAD SWAP3 PUSH2 0x2695 DUP5 PUSH2 0x2647 JUMP JUMPDEST SWAP1 DUP2 DUP5 MSTORE PUSH1 0x1 SWAP5 DUP6 DUP2 AND SWAP1 DUP2 PUSH1 0x0 EQ PUSH2 0x2704 JUMPI POP PUSH1 0x1 EQ PUSH2 0x26C1 JUMPI JUMPDEST POP POP PUSH2 0x26BF SWAP3 POP SUB DUP4 PUSH2 0x2590 JUMP JUMPDEST JUMP JUMPDEST SWAP1 SWAP4 SWAP2 POP PUSH1 0x0 MSTORE PUSH1 0x20 SWAP1 DUP2 PUSH1 0x0 KECCAK256 SWAP4 PUSH1 0x0 SWAP2 JUMPDEST DUP2 DUP4 LT PUSH2 0x26EC JUMPI POP POP PUSH2 0x26BF SWAP4 POP DUP3 ADD ADD CODESIZE DUP1 PUSH2 0x26B1 JUMP JUMPDEST DUP6 SLOAD DUP9 DUP5 ADD DUP6 ADD MSTORE SWAP5 DUP6 ADD SWAP5 DUP8 SWAP5 POP SWAP2 DUP4 ADD SWAP2 PUSH2 0x26D4 JUMP JUMPDEST SWAP2 POP POP PUSH2 0x26BF SWAP5 POP PUSH1 0x20 SWAP3 POP PUSH1 0xFF NOT AND DUP3 DUP5 ADD MSTORE ISZERO ISZERO PUSH1 0x5 SHL DUP3 ADD ADD CODESIZE DUP1 PUSH2 0x26B1 JUMP JUMPDEST ISZERO PUSH2 0x272E JUMPI JUMP JUMPDEST PUSH1 0x40 MLOAD PUSH3 0x461BCD PUSH1 0xE5 SHL DUP2 MSTORE PUSH1 0x20 PUSH1 0x4 DUP3 ADD MSTORE PUSH1 0x17 PUSH1 0x24 DUP3 ADD MSTORE PUSH32 0x456D61696C206D757374206E6F7420626520656D707479000000000000000000 PUSH1 0x44 DUP3 ADD MSTORE PUSH1 0x64 SWAP1 REVERT JUMPDEST DUP2 DUP2 LT PUSH2 0x277E JUMPI POP POP JUMP JUMPDEST PUSH1 0x0 DUP2 SSTORE PUSH1 0x1 ADD PUSH2 0x2773 JUMP JUMPDEST ISZERO PUSH2 0x2791 JUMPI JUMP JUMPDEST PUSH1 0x40 MLOAD PUSH3 0x461BCD PUSH1 0xE5 SHL DUP2 MSTORE PUSH1 0x20 PUSH1 0x4 DUP3 ADD MSTORE PUSH1 0x1D PUSH1 0x24 DUP3 ADD MSTORE PUSH32 0x596F7520617265206E6F74206120726567697374657265642075736572000000 PUSH1 0x44 DUP3 ADD MSTORE PUSH1 0x64 SWAP1 REVERT JUMPDEST PUSH2 0x27E0 DUP2 SLOAD PUSH2 0x2647 JUMP JUMPDEST SWAP1 DUP2 PUSH2 0x27EA JUMPI POP POP JUMP JUMPDEST DUP2 PUSH1 0x1F PUSH1 0x0 SWAP4 GT PUSH1 0x1 EQ PUSH2 0x27FC JUMPI POP SSTORE JUMP JUMPDEST SWAP1 DUP1 DUP4 SWAP2 DUP3 MSTORE PUSH2 0x281B PUSH1 0x1F PUSH1 0x20 DUP5 KECCAK256 SWAP5 ADD PUSH1 0x5 SHR DUP5 ADD PUSH1 0x1 DUP6 ADD PUSH2 0x2773 JUMP JUMPDEST SSTORE SSTORE JUMP INVALID LOG2 PUSH5 0x6970667358 0x22 SLT KECCAK256 BASEFEE STOP CALLDATACOPY CODESIZE DUP10 CALL TIMESTAMP CALLCODE 0x24 0xE8 0xB2 JUMP PUSH8 0x95D838A1315049F7 0xA5 PUSH29 0x9D233520DA099F495F64736F6C63430008120033000000000000000000 "
				},
				"gasEstimates": {
					"creation": {
						"codeDepositCost": "2065000",
						"executionCost": "26438",
						"totalCost": "2091438"
					},
					"external": {
						"admin()": "2494",
						"getUserInfo(address)": "infinite",
						"isUserRegistered(address)": "2450",
						"registerUser(string,string,uint256,string,string,string,string,string,string,string,string,string,string,string,string,string,string,string,string,string,string,bool)": "infinite",
						"transferAdmin(address)": "24550",
						"unregisterUser()": "infinite",
						"updateUser(string,string)": "infinite",
						"users(address)": "infinite"
					}
				},
				"methodIdentifiers": {
					"admin()": "f851a440",
					"getUserInfo(address)": "6386c1c7",
					"isUserRegistered(address)": "163f7522",
					"registerUser(string,string,uint256,string,string,string,string,string,string,string,string,string,string,string,string,string,string,string,string,string,string,bool)": "1e2a1932",
					"transferAdmin(address)": "75829def",
					"unregisterUser()": "1bb71db2",
					"updateUser(string,string)": "dd4a2425",
					"users(address)": "a87430ba"
				}
			},
			"storageLayout": {
				"storage": [
					{
						"astId": 52,
						"contract": "userRegistration.sol:userRegistration",
						"label": "admin",
						"offset": 0,
						"slot": "0",
						"type": "t_address"
					},
					{
						"astId": 57,
						"contract": "userRegistration.sol:userRegistration",
						"label": "users",
						"offset": 0,
						"slot": "1",
						"type": "t_mapping(t_address,t_struct(User)50_storage)"
					}
				],
				"types": {
					"t_address": {
						"encoding": "inplace",
						"label": "address",
						"numberOfBytes": "20"
					},
					"t_bool": {
						"encoding": "inplace",
						"label": "bool",
						"numberOfBytes": "1"
					},
					"t_mapping(t_address,t_struct(User)50_storage)": {
						"encoding": "mapping",
						"key": "t_address",
						"label": "mapping(address => struct userRegistration.User)",
						"numberOfBytes": "32",
						"value": "t_struct(User)50_storage"
					},
					"t_string_storage": {
						"encoding": "bytes",
						"label": "string",
						"numberOfBytes": "32"
					},
					"t_struct(User)50_storage": {
						"encoding": "inplace",
						"label": "struct userRegistration.User",
						"members": [
							{
								"astId": 3,
								"contract": "userRegistration.sol:userRegistration",
								"label": "userAddress",
								"offset": 0,
								"slot": "0",
								"type": "t_address"
							},
							{
								"astId": 5,
								"contract": "userRegistration.sol:userRegistration",
								"label": "userID",
								"offset": 0,
								"slot": "1",
								"type": "t_string_storage"
							},
							{
								"astId": 7,
								"contract": "userRegistration.sol:userRegistration",
								"label": "fullName",
								"offset": 0,
								"slot": "2",
								"type": "t_string_storage"
							},
							{
								"astId": 9,
								"contract": "userRegistration.sol:userRegistration",
								"label": "dateOfBirth",
								"offset": 0,
								"slot": "3",
								"type": "t_uint256"
							},
							{
								"astId": 11,
								"contract": "userRegistration.sol:userRegistration",
								"label": "gender",
								"offset": 0,
								"slot": "4",
								"type": "t_string_storage"
							},
							{
								"astId": 13,
								"contract": "userRegistration.sol:userRegistration",
								"label": "userType",
								"offset": 0,
								"slot": "5",
								"type": "t_string_storage"
							},
							{
								"astId": 15,
								"contract": "userRegistration.sol:userRegistration",
								"label": "orgAddress",
								"offset": 0,
								"slot": "6",
								"type": "t_string_storage"
							},
							{
								"astId": 17,
								"contract": "userRegistration.sol:userRegistration",
								"label": "instituteRole",
								"offset": 0,
								"slot": "7",
								"type": "t_string_storage"
							},
							{
								"astId": 19,
								"contract": "userRegistration.sol:userRegistration",
								"label": "KYCstatus",
								"offset": 0,
								"slot": "8",
								"type": "t_string_storage"
							},
							{
								"astId": 21,
								"contract": "userRegistration.sol:userRegistration",
								"label": "userStatus",
								"offset": 0,
								"slot": "9",
								"type": "t_string_storage"
							},
							{
								"astId": 23,
								"contract": "userRegistration.sol:userRegistration",
								"label": "addressLine",
								"offset": 0,
								"slot": "10",
								"type": "t_string_storage"
							},
							{
								"astId": 25,
								"contract": "userRegistration.sol:userRegistration",
								"label": "phoneNumber",
								"offset": 0,
								"slot": "11",
								"type": "t_string_storage"
							},
							{
								"astId": 27,
								"contract": "userRegistration.sol:userRegistration",
								"label": "email",
								"offset": 0,
								"slot": "12",
								"type": "t_string_storage"
							},
							{
								"astId": 29,
								"contract": "userRegistration.sol:userRegistration",
								"label": "country",
								"offset": 0,
								"slot": "13",
								"type": "t_string_storage"
							},
							{
								"astId": 31,
								"contract": "userRegistration.sol:userRegistration",
								"label": "nationality",
								"offset": 0,
								"slot": "14",
								"type": "t_string_storage"
							},
							{
								"astId": 33,
								"contract": "userRegistration.sol:userRegistration",
								"label": "nid",
								"offset": 0,
								"slot": "15",
								"type": "t_string_storage"
							},
							{
								"astId": 35,
								"contract": "userRegistration.sol:userRegistration",
								"label": "maritalStatus",
								"offset": 0,
								"slot": "16",
								"type": "t_string_storage"
							},
							{
								"astId": 37,
								"contract": "userRegistration.sol:userRegistration",
								"label": "educationLevel",
								"offset": 0,
								"slot": "17",
								"type": "t_string_storage"
							},
							{
								"astId": 39,
								"contract": "userRegistration.sol:userRegistration",
								"label": "incomeLevel",
								"offset": 0,
								"slot": "18",
								"type": "t_string_storage"
							},
							{
								"astId": 41,
								"contract": "userRegistration.sol:userRegistration",
								"label": "employmentStatus",
								"offset": 0,
								"slot": "19",
								"type": "t_string_storage"
							},
							{
								"astId": 43,
								"contract": "userRegistration.sol:userRegistration",
								"label": "taxStatus",
								"offset": 0,
								"slot": "20",
								"type": "t_string_storage"
							},
							{
								"astId": 45,
								"contract": "userRegistration.sol:userRegistration",
								"label": "communicationPref",
								"offset": 0,
								"slot": "21",
								"type": "t_string_storage"
							},
							{
								"astId": 47,
								"contract": "userRegistration.sol:userRegistration",
								"label": "consentPermission",
								"offset": 0,
								"slot": "22",
								"type": "t_bool"
							},
							{
								"astId": 49,
								"contract": "userRegistration.sol:userRegistration",
								"label": "isRegistered",
								"offset": 1,
								"slot": "22",
								"type": "t_bool"
							}
						],
						"numberOfBytes": "736"
					},
					"t_uint256": {
						"encoding": "inplace",
						"label": "uint256",
						"numberOfBytes": "32"
					}
				}
			},
			"userdoc": {
				"kind": "user",
				"methods": {},
				"version": 1
			}
		}
	}
}