{
	"KYC.sol": {
		"KYC": {
			"abi": [
				{
					"inputs": [
						{
							"internalType": "address",
							"name": "_addUserReg",
							"type": "address"
						}
					],
					"stateMutability": "nonpayable",
					"type": "constructor"
				},
				{
					"inputs": [
						{
							"internalType": "address",
							"name": "_userAddress",
							"type": "address"
						}
					],
					"name": "approveKYC",
					"outputs": [],
					"stateMutability": "nonpayable",
					"type": "function"
				},
				{
					"inputs": [
						{
							"internalType": "address",
							"name": "_userAddress",
							"type": "address"
						}
					],
					"name": "getKYCStatus",
					"outputs": [
						{
							"internalType": "enum KYC.KYCStatus",
							"name": "",
							"type": "uint8"
						}
					],
					"stateMutability": "view",
					"type": "function"
				},
				{
					"inputs": [
						{
							"internalType": "address",
							"name": "",
							"type": "address"
						}
					],
					"name": "kycRequests",
					"outputs": [
						{
							"internalType": "address",
							"name": "userAddress",
							"type": "address"
						},
						{
							"internalType": "string",
							"name": "userName",
							"type": "string"
						},
						{
							"internalType": "string",
							"name": "identificationDocument",
							"type": "string"
						},
						{
							"internalType": "enum KYC.KYCStatus",
							"name": "status",
							"type": "uint8"
						}
					],
					"stateMutability": "view",
					"type": "function"
				},
				{
					"inputs": [],
					"name": "owner",
					"outputs": [
						{
							"internalType": "address",
							"name": "",
							"type": "address"
						}
					],
					"stateMutability": "view",
					"type": "function"
				},
				{
					"inputs": [
						{
							"internalType": "address",
							"name": "_userAddress",
							"type": "address"
						}
					],
					"name": "rejectKYC",
					"outputs": [],
					"stateMutability": "nonpayable",
					"type": "function"
				},
				{
					"inputs": [
						{
							"internalType": "string",
							"name": "_userName",
							"type": "string"
						},
						{
							"internalType": "string",
							"name": "_identificationDocument",
							"type": "string"
						}
					],
					"name": "submitKYCRequest",
					"outputs": [],
					"stateMutability": "nonpayable",
					"type": "function"
				}
			],
			"devdoc": {
				"kind": "dev",
				"methods": {},
				"version": 1
			},
			"evm": {
				"assembly": "    /* \"KYC.sol\":96:1876  contract KYC {... */\n  0x80\n  jumpi(tag_7, callvalue)\n  0x1f\n  bytecodeSize\n  codesize\n  dup2\n  swap1\n  sub\n  swap2\n  dup3\n  add\n  not(0x1f)\n  and\n  dup4\n  add\n  swap2\n  sub(shl(0x40, 0x01), 0x01)\n  dup4\n  gt\n  dup5\n  dup5\n  lt\n  or\n  tag_3\n  jumpi\n  dup1\n  dup5\n  swap3\n  0x20\n  swap5\n  0x40\n  mstore\n  dup4\n  codecopy\n  dup2\n  add\n  sub\n  slt\n  tag_7\n  jumpi\n  mload\n  sub(shl(0xa0, 0x01), 0x01)\n  dup2\n  and\n  swap1\n  dup2\n  swap1\n  sub\n  tag_7\n  jumpi\n  0x01\n  dup1\n  0xa0\n  shl\n  sub\n  not\n    /* \"KYC.sol\":825:835  msg.sender */\n  caller\n    /* \"KYC.sol\":96:1876  contract KYC {... */\n  dup2\n  sload(0x00)\n  and\n  or\n  0x00\n  sstore\n  sload(0x01)\n  and\n  or\n  0x01\n  sstore\n  mload(0x40)\n  dataSize(sub_0)\n  swap1\n  dup2\n  dataOffset(sub_0)\n  dup3\n  codecopy\n  return\ntag_7:\n  0x00\n  dup1\n  revert\ntag_3:\n  mstore(0x00, shl(0xe0, 0x4e487b71))\n  mstore(0x04, 0x41)\n  revert(0x00, 0x24)\nstop\n\nsub_0: assembly {\n        /* \"KYC.sol\":96:1876  contract KYC {... */\n      0x80\n      0x40\n      dup2\n      dup2\n      mstore\n      0x04\n      dup1\n      calldatasize\n      lt\n      iszero\n      tag_8\n      jumpi\n      0x00\n      dup1\n      revert\n    tag_8:\n      0x00\n      swap3\n      dup4\n      calldataload\n      0xe0\n      shr\n      swap1\n      dup2\n      0x0c8df0\n      eq\n      tag_10\n      jumpi\n      pop\n      dup1\n      0x06a01781\n      eq\n      tag_12\n      jumpi\n      dup1\n      0x0e27324d\n      eq\n      tag_14\n      jumpi\n      dup1\n      0x19171561\n      eq\n      tag_16\n      jumpi\n      dup1\n      0x8da5cb5b\n      eq\n      tag_18\n      jumpi\n      0xc42e5888\n      eq\n      tag_20\n      jumpi\n      0x00\n      dup1\n      revert\n    tag_20:\n      jumpi(tag_24, callvalue)\n      jumpi(tag_24, slt(add(not(0x03), calldatasize), 0x20))\n      sub(shl(0xa0, 0x01), 0x01)\n      swap2\n      swap1\n      calldataload\n      dup3\n      dup2\n      and\n      swap1\n      dup2\n      swap1\n      sub\n      tag_26\n      jumpi\n        /* \"KYC.sol\":498:568  require(msg.sender == owner, \"Only the owner can perform this action\") */\n      tag_28\n        /* \"KYC.sol\":96:1876  contract KYC {... */\n      0x03\n      swap4\n      dup6\n      sload\n      and\n        /* \"KYC.sol\":506:516  msg.sender */\n      caller\n        /* \"KYC.sol\":506:525  msg.sender == owner */\n      eq\n        /* \"KYC.sol\":498:568  require(msg.sender == owner, \"Only the owner can perform this action\") */\n      tag_7\n      jump\t// in\n    tag_28:\n        /* \"KYC.sol\":96:1876  contract KYC {... */\n      dup4\n      mstore\n        /* \"KYC.sol\":1699:1717  KYCStatus.Rejected */\n      0x02\n        /* \"KYC.sol\":96:1876  contract KYC {... */\n      0x20\n      mstore\n      dup3\n      keccak256\n        /* \"KYC.sol\":1664:1696  kycRequests[_userAddress].status */\n      add\n        /* \"KYC.sol\":1699:1717  KYCStatus.Rejected */\n      0x02\n        /* \"KYC.sol\":96:1876  contract KYC {... */\n      not(0xff)\n      dup3\n      sload\n      and\n      or\n      swap1\n      sstore\n      dup1\n      return\n    tag_26:\n      dup4\n      dup1\n      revert\n    tag_24:\n      dup3\n      dup1\n      revert\n    tag_18:\n      pop\n      pop\n      jumpi(tag_31, callvalue)\n      dup2\n      add(calldatasize, not(0x03))\n      slt\n      tag_31\n      jumpi\n      swap1\n      sload\n      swap1\n      mload\n      sub(shl(0xa0, 0x01), 0x01)\n      swap1\n      swap2\n      and\n      dup2\n      mstore\n      0x20\n      swap1\n      return\n    tag_31:\n      pop\n      dup1\n      revert\n    tag_16:\n      pop\n      dup3\n      swap1\n      jumpi(tag_31, callvalue)\n      jumpi(tag_31, slt(add(not(0x03), calldatasize), 0x20))\n      sub(shl(0xa0, 0x01), 0x01)\n      swap2\n      swap1\n      calldataload\n      dup3\n      dup2\n      and\n      swap1\n      dup2\n      swap1\n      sub\n      tag_31\n      jumpi\n      swap1\n      dup4\n      swap2\n      dup2\n      mstore\n        /* \"KYC.sol\":404:453  mapping(address => KYCRequest) public kycRequests */\n      0x02\n        /* \"KYC.sol\":96:1876  contract KYC {... */\n      0x20\n      mstore\n      keccak256\n      swap1\n      dup2\n      sload\n      and\n        /* \"KYC.sol\":404:453  mapping(address => KYCRequest) public kycRequests */\n      swap1\n        /* \"KYC.sol\":96:1876  contract KYC {... */\n      tag_39\n      tag_40\n        /* \"KYC.sol\":404:453  mapping(address => KYCRequest) public kycRequests */\n      tag_41\n        /* \"KYC.sol\":96:1876  contract KYC {... */\n      0x01\n        /* \"KYC.sol\":404:453  mapping(address => KYCRequest) public kycRequests */\n      dup5\n      add\n      tag_5\n      jump\t// in\n    tag_41:\n      swap5\n        /* \"KYC.sol\":96:1876  contract KYC {... */\n      0xff\n      0x03\n        /* \"KYC.sol\":404:453  mapping(address => KYCRequest) public kycRequests */\n      tag_42\n      0x02\n      dup8\n      add\n      tag_5\n      jump\t// in\n    tag_42:\n      swap6\n      add\n        /* \"KYC.sol\":96:1876  contract KYC {... */\n      sload\n      and\n      swap4\n      tag_43\n      dup3\n      mload\n      swap8\n      dup9\n      swap8\n      dup9\n      mstore\n      0x80\n      0x20\n      dup10\n      add\n      mstore\n      0x80\n      dup9\n      add\n      swap1\n      tag_6\n      jump\t// in\n    tag_43:\n      swap2\n      dup7\n      dup4\n      sub\n      swap1\n      dup8\n      add\n      mstore\n      tag_6\n      jump\t// in\n    tag_40:\n      swap2\n      0x60\n      dup5\n      add\n      swap1\n      tag_1\n      jump\t// in\n    tag_39:\n      sub\n      swap1\n      return\n    tag_14:\n      pop\n      jumpi(tag_24, callvalue)\n      jumpi(tag_24, slt(add(not(0x03), calldatasize), 0x20))\n      sub(shl(0xa0, 0x01), 0x01)\n      swap2\n      swap1\n      calldataload\n      dup3\n      dup2\n      and\n      swap1\n      dup2\n      swap1\n      sub\n      tag_26\n      jumpi\n        /* \"KYC.sol\":498:568  require(msg.sender == owner, \"Only the owner can perform this action\") */\n      tag_50\n        /* \"KYC.sol\":96:1876  contract KYC {... */\n      0x03\n      swap4\n      dup6\n      sload\n      and\n        /* \"KYC.sol\":506:516  msg.sender */\n      caller\n        /* \"KYC.sol\":506:525  msg.sender == owner */\n      eq\n        /* \"KYC.sol\":498:568  require(msg.sender == owner, \"Only the owner can perform this action\") */\n      tag_7\n      jump\t// in\n    tag_50:\n        /* \"KYC.sol\":96:1876  contract KYC {... */\n      dup4\n      mstore\n        /* \"KYC.sol\":1520:1531  kycRequests */\n      0x02\n        /* \"KYC.sol\":96:1876  contract KYC {... */\n      0x20\n      mstore\n      dup3\n      keccak256\n        /* \"KYC.sol\":1520:1552  kycRequests[_userAddress].status */\n      add\n        /* \"KYC.sol\":96:1876  contract KYC {... */\n      dup1\n      sload\n      not(0xff)\n      and\n      0x01\n      or\n      swap1\n      sstore\n      dup1\n      return\n    tag_12:\n      pop\n      swap2\n      swap1\n      jumpi(tag_31, callvalue)\n      dup1\n      add(calldatasize, not(0x03))\n      slt\n      tag_31\n      jumpi\n      0xffffffffffffffff\n      swap3\n      dup1\n      calldataload\n      dup5\n      dup2\n      gt\n      tag_26\n      jumpi\n      tag_57\n      swap1\n      calldatasize\n      swap1\n      dup4\n      add\n      tag_3\n      jump\t// in\n    tag_57:\n      0x24\n      swap1\n      dup2\n      calldataload\n      dup7\n      dup2\n      gt\n      tag_58\n      jumpi\n      tag_60\n      swap1\n      calldatasize\n      swap1\n      dup6\n      add\n      tag_3\n      jump\t// in\n    tag_60:\n      0x01\n      dup1\n      sload\n      dup7\n      mload\n      shl(0xe1, 0x0b1fba91)\n        /* \"KYC.sol\":648:687  addUserReg.isUserRegistered(msg.sender) */\n      dup2\n      mstore\n        /* \"KYC.sol\":676:686  msg.sender */\n      caller\n        /* \"KYC.sol\":648:687  addUserReg.isUserRegistered(msg.sender) */\n      dup8\n      dup3\n      add\n        /* \"KYC.sol\":96:1876  contract KYC {... */\n      mstore\n      sub(shl(0xa0, 0x01), 0x01)\n      swap5\n      swap2\n      0x20\n      swap2\n      swap1\n      dup3\n      swap1\n      dup3\n      swap1\n      dup10\n      swap1\n      dup3\n      swap1\n      dup11\n      and\n        /* \"KYC.sol\":648:687  addUserReg.isUserRegistered(msg.sender) */\n      gas\n      staticcall\n      swap1\n      dup2\n      iszero\n      tag_61\n      jumpi\n      dup11\n      swap2\n      tag_63\n      jumpi\n        /* \"KYC.sol\":96:1876  contract KYC {... */\n    tag_64:\n      pop\n      iszero\n      tag_65\n      jumpi\n        /* \"KYC.sol\":676:686  msg.sender */\n      caller\n        /* \"KYC.sol\":96:1876  contract KYC {... */\n      dup10\n      mstore\n        /* \"KYC.sol\":1101:1112  kycRequests */\n      0x02\n        /* \"KYC.sol\":96:1876  contract KYC {... */\n      dup2\n      mstore\n      dup5\n      dup9\n      dup11\n      keccak256\n      sload\n      and\n      tag_67\n      jumpi\n      dup8\n      mload\n      swap5\n      0x80\n      dup7\n      add\n      dup7\n      dup2\n      lt\n      dup13\n      dup3\n      gt\n      or\n      tag_71\n      jumpi\n      dup10\n      mstore\n        /* \"KYC.sol\":676:686  msg.sender */\n      caller\n        /* \"KYC.sol\":96:1876  contract KYC {... */\n      dup7\n      mstore\n        /* \"KYC.sol\":1231:1428  KYCRequest({... */\n      dup2\n      dup7\n      add\n        /* \"KYC.sol\":96:1876  contract KYC {... */\n      swap3\n      dup4\n      mstore\n        /* \"KYC.sol\":1231:1428  KYCRequest({... */\n      dup9\n      dup7\n      add\n        /* \"KYC.sol\":96:1876  contract KYC {... */\n      swap5\n      dup6\n      mstore\n        /* \"KYC.sol\":1231:1428  KYCRequest({... */\n      0x60\n      dup7\n      add\n        /* \"KYC.sol\":96:1876  contract KYC {... */\n      swap9\n      dup11\n      dup11\n      mstore\n        /* \"KYC.sol\":676:686  msg.sender */\n      caller\n        /* \"KYC.sol\":96:1876  contract KYC {... */\n      dup12\n      mstore\n        /* \"KYC.sol\":1101:1112  kycRequests */\n      0x02\n        /* \"KYC.sol\":96:1876  contract KYC {... */\n      dup4\n      mstore\n      dup11\n      keccak256\n      swap6\n      mload\n      and\n      shl(0xa0, 0xffffffffffffffffffffffff)\n      dup7\n      sload\n      and\n      or\n      dup6\n      sstore\n      dup3\n      dup6\n      add\n      swap2\n      mload\n      swap2\n      dup3\n      mload\n      dup12\n      dup2\n      gt\n      tag_71\n      jumpi\n      dup1\n      tag_73\n      dup4\n      sload\n      tag_4\n      jump\t// in\n    tag_73:\n      swap5\n      0x1f\n      swap6\n      dup7\n      dup2\n      gt\n      tag_74\n      jumpi\n    tag_75:\n      pop\n      dup5\n      swap1\n      dup14\n      dup8\n      dup5\n      gt\n      0x01\n      eq\n      tag_76\n      jumpi\n      swap3\n      tag_78\n      jumpi\n    tag_79:\n      pop\n      pop\n      not(0x00)\n      0x03\n      dup4\n      swap1\n      shl\n      shr\n      not\n      and\n      swap1\n      dup6\n      shl\n      or\n      swap1\n      sstore\n    tag_80:\n        /* \"KYC.sol\":1101:1112  kycRequests */\n      0x02\n        /* \"KYC.sol\":96:1876  contract KYC {... */\n      dup6\n      add\n      swap4\n      mload\n      swap1\n      dup2\n      mload\n      swap11\n      dup12\n      gt\n      tag_81\n      jumpi\n      dup11\n      tag_83\n      dup7\n      sload\n      tag_4\n      jump\t// in\n    tag_83:\n      dup5\n      dup2\n      gt\n      tag_84\n      jumpi\n    tag_85:\n      pop\n      pop\n      dup1\n      swap3\n      dup12\n      gt\n      0x01\n      eq\n      tag_86\n      jumpi\n      pop\n      swap9\n      dup1\n      swap3\n      dup2\n      swap3\n      dup11\n      swap12\n      0x03\n      swap9\n      swap10\n      swap11\n      swap12\n      swap5\n      tag_88\n      jumpi\n    tag_89:\n      pop\n      pop\n      shl\n      swap2\n      not(0x00)\n      swap1\n      dup7\n      shl\n      shr\n      not\n      and\n      or\n      swap1\n      sstore\n    tag_90:\n      add\n      swap3\n      mload\n      swap2\n      0x03\n      dup4\n      lt\n      iszero\n      tag_91\n      jumpi\n      pop\n      pop\n      0xff\n      dup1\n      not\n      dup4\n      sload\n      and\n      swap2\n      and\n      or\n      swap1\n      sstore\n      dup1\n      return\n    tag_91:\n      shl(0xe0, 0x4e487b71)\n      dup6\n      mstore\n      0x21\n      swap1\n      mstore\n      dup4\n      revert\n    tag_88:\n      add\n      mload\n      swap3\n      pop\n      codesize\n      dup1\n      jump(tag_89)\n    tag_86:\n      swap1\n      swap10\n      swap2\n      not(0x1f)\n      dup4\n      and\n      swap11\n      dup6\n      dup12\n      mstore\n      dup3\n      dup12\n      keccak256\n      swap3\n      dup12\n      swap1\n    tag_93:\n      dup14\n      dup3\n      lt\n      tag_94\n      jumpi\n      pop\n      pop\n      dup4\n      0x03\n      swap9\n      swap10\n      swap11\n      swap12\n      swap13\n      lt\n      tag_96\n      jumpi\n    tag_97:\n      pop\n      pop\n      pop\n      dup2\n      shl\n      add\n      swap1\n      sstore\n      jump(tag_90)\n    tag_96:\n      add\n      mload\n      not(0x00)\n      dup4\n      dup9\n      shl\n      0xf8\n      and\n      shr\n      not\n      and\n      swap1\n      sstore\n      codesize\n      dup1\n      dup1\n      jump(tag_97)\n    tag_94:\n      dup1\n      dup8\n      dup6\n      swap7\n      dup3\n      swap5\n      swap7\n      dup7\n      add\n      mload\n      dup2\n      sstore\n      add\n      swap6\n      add\n      swap4\n      add\n      swap1\n      jump(tag_93)\n    tag_84:\n      dup7\n      dup13\n      mstore\n      dup5\n      dup4\n      dup14\n      keccak256\n      swap2\n      dup5\n      dup3\n      dup6\n      add\n      0x05\n      shr\n      dup5\n      add\n      swap5\n      lt\n      tag_98\n      jumpi\n    tag_99:\n      add\n      0x05\n      shr\n      add\n      swap1\n      dup6\n      swap1\n    tag_100:\n      dup3\n      dup2\n      lt\n      tag_101\n      jumpi\n      pop\n      dup13\n      swap2\n      pop\n      jump(tag_85)\n    tag_101:\n      dup13\n      dup2\n      sstore\n      add\n      dup6\n      swap1\n      jump(tag_100)\n    tag_98:\n      swap3\n      pop\n      dup2\n      swap3\n      jump(tag_99)\n    tag_81:\n      shl(0xe0, 0x4e487b71)\n      dup11\n      mstore\n      0x41\n      dup9\n      mstore\n      dup7\n      dup11\n      revert\n    tag_78:\n      add\n      mload\n      swap1\n      pop\n      codesize\n      dup1\n      jump(tag_79)\n    tag_76:\n      swap2\n      swap1\n      dup9\n      swap5\n      pop\n      not(0x1f)\n      dup5\n      and\n      dup7\n      dup5\n      mstore\n      dup8\n      dup5\n      keccak256\n      swap4\n    tag_103:\n      dup9\n      dup3\n      dup3\n      lt\n      tag_104\n      jumpi\n      pop\n      pop\n      dup5\n      gt\n      tag_106\n      jumpi\n    tag_107:\n      pop\n      pop\n      pop\n      dup2\n      shl\n      add\n      swap1\n      sstore\n      jump(tag_80)\n    tag_106:\n      add\n      mload\n      not(0x00)\n      0xf8\n      dup5\n      0x03\n      shl\n      and\n      shr\n      not\n      and\n      swap1\n      sstore\n      codesize\n      dup1\n      dup1\n      jump(tag_107)\n    tag_104:\n      dup4\n      dup6\n      add\n      mload\n      dup7\n      sstore\n      dup12\n      swap8\n      swap1\n      swap6\n      add\n      swap5\n      swap4\n      dup5\n      add\n      swap4\n      add\n      jump(tag_103)\n    tag_74:\n      swap1\n      swap2\n      pop\n      dup4\n      dup14\n      mstore\n      dup5\n      dup14\n      keccak256\n      dup7\n      dup1\n      dup6\n      add\n      0x05\n      shr\n      dup3\n      add\n      swap3\n      dup8\n      dup7\n      lt\n      tag_108\n      jumpi\n    tag_109:\n      dup6\n      swap5\n      swap4\n      swap2\n      add\n      0x05\n      shr\n      swap1\n      swap2\n      add\n      swap1\n      dup9\n      swap1\n      dup16\n    tag_110:\n      dup4\n      dup3\n      lt\n      tag_111\n      jumpi\n      pop\n      pop\n      pop\n      jump(tag_75)\n    tag_111:\n      dup2\n      sstore\n      dup6\n      swap5\n      pop\n      dup10\n      swap2\n      add\n      dup16\n      jump(tag_110)\n    tag_108:\n      swap3\n      pop\n      dup2\n      swap3\n      jump(tag_109)\n    tag_71:\n      shl(0xe0, 0x4e487b71)\n      dup12\n      mstore\n      0x41\n      dup10\n      mstore\n      dup8\n      dup12\n      revert\n    tag_67:\n      dup7\n      0x1d\n      dup8\n      0x64\n      swap4\n      dup12\n      mload\n      swap4\n      shl(0xe5, 0x461bcd)\n      dup6\n      mstore\n      dup5\n      add\n      mstore\n      dup3\n      add\n      mstore\n      0x4b5943207265717565737420616c7265616479207375626d6974746564000000\n      0x44\n      dup3\n      add\n      mstore\n      revert\n    tag_65:\n      dup7\n      0x35\n      dup8\n      0x84\n      swap4\n      dup12\n      mload\n      swap4\n      shl(0xe5, 0x461bcd)\n      dup6\n      mstore\n      dup5\n      add\n      mstore\n      dup3\n      add\n      mstore\n      0x4f6e6c79207265676973746572656420757365722063616e2072657175657374\n      0x44\n      dup3\n      add\n      mstore\n      shl(0x58, 0x20766572696669636174696f6e20666f72204b5943)\n      0x64\n      dup3\n      add\n      mstore\n      revert\n        /* \"KYC.sol\":648:687  addUserReg.isUserRegistered(msg.sender) */\n    tag_63:\n      swap1\n      pop\n      dup2\n      dup2\n      dup2\n      returndatasize\n      dup4\n      gt\n      tag_113\n      jumpi\n    tag_114:\n      tag_115\n      dup2\n      dup4\n      tag_2\n      jump\t// in\n    tag_115:\n      dup2\n      add\n        /* \"KYC.sol\":96:1876  contract KYC {... */\n      sub\n      slt\n      tag_118\n      jumpi\n      mload\n      dup1\n      iszero\n      iszero\n      dup2\n      sub\n      tag_118\n      jumpi\n        /* \"KYC.sol\":648:687  addUserReg.isUserRegistered(msg.sender) */\n      codesize\n      jump(tag_64)\n        /* \"KYC.sol\":96:1876  contract KYC {... */\n    tag_118:\n      dup10\n      dup1\n      revert\n        /* \"KYC.sol\":648:687  addUserReg.isUserRegistered(msg.sender) */\n    tag_113:\n      pop\n      returndatasize\n      jump(tag_114)\n    tag_61:\n        /* \"KYC.sol\":96:1876  contract KYC {... */\n      dup10\n      mload\n      returndatasize\n      dup13\n      dup3\n      returndatacopy\n      returndatasize\n      swap1\n      revert\n    tag_58:\n      dup6\n      dup1\n      revert\n    tag_10:\n      swap3\n      swap2\n      swap1\n      pop\n      jumpi(tag_26, callvalue)\n      jumpi(tag_26, slt(add(not(0x03), calldatasize), 0x20))\n      calldataload\n      sub(shl(0xa0, 0x01), 0x01)\n      dup2\n      and\n      swap1\n      dup2\n      swap1\n      sub\n      tag_26\n      jumpi\n      0xff\n      0x03\n      tag_126\n      swap4\n      dup7\n      dup7\n      swap5\n      0x20\n      swap9\n      mstore\n        /* \"KYC.sol\":1833:1844  kycRequests */\n      0x02\n        /* \"KYC.sol\":96:1876  contract KYC {... */\n      dup9\n      mstore\n      keccak256\n        /* \"KYC.sol\":1833:1865  kycRequests[_userAddress].status */\n      add\n        /* \"KYC.sol\":96:1876  contract KYC {... */\n      sload\n      and\n      tag_1\n      jump\t// in\n    tag_126:\n      return\n    tag_1:\n      swap1\n      0x03\n      dup3\n      lt\n      iszero\n      tag_127\n      jumpi\n      mstore\n      jump\t// out\n    tag_127:\n      mstore(0x00, shl(0xe0, 0x4e487b71))\n      mstore(0x04, 0x21)\n      revert(0x00, 0x24)\n    tag_2:\n      swap1\n      0x1f\n      dup1\n      not\n      swap2\n      add\n      and\n      dup2\n      add\n      swap1\n      dup2\n      lt\n      0xffffffffffffffff\n      dup3\n      gt\n      or\n      tag_129\n      jumpi\n      0x40\n      mstore\n      jump\t// out\n    tag_129:\n      mstore(0x00, shl(0xe0, 0x4e487b71))\n      mstore(0x04, 0x41)\n      revert(0x00, 0x24)\n    tag_3:\n      dup2\n      0x1f\n      dup3\n      add\n      slt\n      iszero\n      tag_136\n      jumpi\n      dup1\n      calldataload\n      swap1\n      0xffffffffffffffff\n      dup3\n      gt\n      tag_129\n      jumpi\n      mload(0x40)\n      swap3\n      tag_135\n      0x1f\n      dup5\n      add\n      not(0x1f)\n      and\n      0x20\n      add\n      dup6\n      tag_2\n      jump\t// in\n    tag_135:\n      dup3\n      dup5\n      mstore\n      0x20\n      dup4\n      dup4\n      add\n      add\n      gt\n      tag_136\n      jumpi\n      dup2\n      0x00\n      swap3\n      0x20\n      dup1\n      swap4\n      add\n      dup4\n      dup7\n      add\n      calldatacopy\n      dup4\n      add\n      add\n      mstore\n      swap1\n      jump\t// out\n    tag_136:\n      0x00\n      dup1\n      revert\n    tag_4:\n      swap1\n      0x01\n      dup3\n      dup2\n      shr\n      swap3\n      and\n      dup1\n      iszero\n      tag_138\n      jumpi\n    tag_139:\n      0x20\n      dup4\n      lt\n      eq\n      tag_140\n      jumpi\n      jump\t// out\n    tag_140:\n      mstore(0x00, shl(0xe0, 0x4e487b71))\n      mstore(0x04, 0x22)\n      revert(0x00, 0x24)\n    tag_138:\n      swap2\n      0x7f\n      and\n      swap2\n      jump(tag_139)\n    tag_5:\n      swap1\n      mload(0x40)\n      swap2\n      dup3\n      0x00\n      dup3\n      sload\n      swap3\n      tag_142\n      dup5\n      tag_4\n      jump\t// in\n    tag_142:\n      swap1\n      dup2\n      dup5\n      mstore\n      0x01\n      swap5\n      dup6\n      dup2\n      and\n      swap1\n      dup2\n      0x00\n      eq\n      tag_143\n      jumpi\n      pop\n      0x01\n      eq\n      tag_145\n      jumpi\n    tag_146:\n      pop\n      pop\n      tag_147\n      swap3\n      pop\n      sub\n      dup4\n      tag_2\n      jump\t// in\n    tag_147:\n      jump\t// out\n    tag_145:\n      swap1\n      swap4\n      swap2\n      pop\n      0x00\n      mstore\n      0x20\n      swap1\n      dup2\n      0x00\n      keccak256\n      swap4\n      0x00\n      swap2\n    tag_148:\n      dup2\n      dup4\n      lt\n      tag_149\n      jumpi\n      pop\n      pop\n      tag_147\n      swap4\n      pop\n      dup3\n      add\n      add\n      codesize\n      dup1\n      jump(tag_146)\n    tag_149:\n      dup6\n      sload\n      dup9\n      dup5\n      add\n      dup6\n      add\n      mstore\n      swap5\n      dup6\n      add\n      swap5\n      dup8\n      swap5\n      pop\n      swap2\n      dup4\n      add\n      swap2\n      jump(tag_148)\n    tag_143:\n      swap2\n      pop\n      pop\n      tag_147\n      swap5\n      pop\n      0x20\n      swap3\n      pop\n      not(0xff)\n      and\n      dup3\n      dup5\n      add\n      mstore\n      iszero\n      iszero\n      0x05\n      shl\n      dup3\n      add\n      add\n      codesize\n      dup1\n      jump(tag_146)\n    tag_6:\n      swap2\n      swap1\n      dup3\n      mload\n      swap3\n      dup4\n      dup3\n      mstore\n      0x00\n    tag_151:\n      dup5\n      dup2\n      lt\n      tag_152\n      jumpi\n      pop\n      pop\n      dup3\n      0x00\n      0x20\n      dup1\n      swap5\n      swap6\n      dup5\n      add\n      add\n      mstore\n      0x1f\n      dup1\n      not\n      swap2\n      add\n      and\n      add\n      add\n      swap1\n      jump\t// out\n    tag_152:\n      0x20\n      dup2\n      dup4\n      add\n      dup2\n      add\n      mload\n      dup5\n      dup4\n      add\n      dup3\n      add\n      mstore\n      add\n      jump(tag_151)\n    tag_7:\n      iszero\n      tag_154\n      jumpi\n      jump\t// out\n    tag_154:\n      mload(0x40)\n      shl(0xe5, 0x461bcd)\n      dup2\n      mstore\n      0x20\n      0x04\n      dup3\n      add\n      mstore\n      0x26\n      0x24\n      dup3\n      add\n      mstore\n      0x4f6e6c7920746865206f776e65722063616e20706572666f726d207468697320\n      0x44\n      dup3\n      add\n      mstore\n      shl(0xd1, 0x30b1ba34b7b7)\n      0x64\n      dup3\n      add\n      mstore\n      0x84\n      swap1\n      revert\n\n    auxdata: 0xa264697066735822122078282979472c7e3c87802a99b3a78011a5010e7b5fcd4933dff6fcc98f46463e64736f6c63430008120033\n}\n",
				"bytecode": {
					"linkReferences": {},
					"object": "60803461007a57601f61095038819003918201601f19168301916001600160401b0383118484101761007f5780849260209460405283398101031261007a57516001600160a01b0381169081900361007a5760018060a01b03193381600054161760005560015416176001556040516108ba90816100968239f35b600080fd5b634e487b7160e01b600052604160045260246000fdfe6080604081815260048036101561001557600080fd5b600092833560e01c9081620c8df01461060c5750806306a01781146101d05780630e27324d1461018057806319171561146100e75780638da5cb5b146100bb5763c42e58881461006457600080fd5b346100b75760203660031901126100b7576001600160a01b03919035828116908190036100b35761009b6003938554163314610829565b83526002602052822001600260ff1982541617905580f35b8380fd5b8280fd5b5050346100e357816003193601126100e357905490516001600160a01b039091168152602090f35b5080fd5b508290346100e35760203660031901126100e3576001600160a01b03919035828116908190036100e3579083918152600260205220908154169061017c61017161013360018401610743565b9460ff600361014460028701610743565b9501541693610164825197889788526080602089015260808801906107e9565b91868303908701526107e9565b916060840190610652565b0390f35b50346100b75760203660031901126100b7576001600160a01b03919035828116908190036100b3576101b86003938554163314610829565b83526002602052822001805460ff1916600117905580f35b509190346100e357806003193601126100e35767ffffffffffffffff9280358481116100b35761020390369083016106ad565b60249081358681116106085761021c90369085016106ad565b600180548651630b1fba9160e11b815233878201526001600160a01b0394916020919082908290899082908a165afa9081156105fe578a916105c4575b5015610565573389526002815284888a20541661052457875194608086018681108c82111761051257895233865281860192835288860194855260608601988a8a52338b52600283528a209551166bffffffffffffffffffffffff60a01b86541617855582850191519182518b811161051257806102d78354610709565b94601f958681116104c1575b5084908d8784116001146104625792610457575b5050600019600383901b1c191690851b1790555b6002850193519081519a8b11610445578a6103268654610709565b848111610400575b505080928b1160011461039a575098809281928a9b600398999a9b9461038f575b50501b9160001990861b1c19161790555b01925191600383101561037e57505060ff8019835416911617905580f35b634e487b7160e01b85526021905283fd5b01519250388061034f565b909991601f1983169a858b52828b20928b905b8d82106103e957505083600398999a9b9c106103d1575b505050811b019055610360565b015160001983881b60f8161c191690553880806103c4565b8087859682949686015181550195019301906103ad565b868c5284838d20918482850160051c8401941061043c575b0160051c019085905b82811061043157508c915061032e565b8c8155018590610421565b92508192610418565b634e487b7160e01b8a5260418852868afd5b0151905038806102f7565b9190889450601f198416868452878420935b888282106104ab5750508411610492575b505050811b01905561030b565b015160001960f88460031b161c19169055388080610485565b8385015186558b97909501949384019301610474565b909150838d52848d208680850160051c820192878610610509575b859493910160051c9091019088908f5b8382106104fb575050506102e3565b81558594508991018f6104ec565b925081926104dc565b634e487b7160e01b8b5260418952878bfd5b86601d876064938b519362461bcd60e51b85528401528201527f4b5943207265717565737420616c7265616479207375626d69747465640000006044820152fd5b866035876084938b519362461bcd60e51b85528401528201527f4f6e6c79207265676973746572656420757365722063616e207265717565737460448201527420766572696669636174696f6e20666f72204b594360581b6064820152fd5b90508181813d83116105f7575b6105db8183610675565b810103126105f3575180151581036105f35738610259565b8980fd5b503d6105d1565b89513d8c823e3d90fd5b8580fd5b92919050346100b35760203660031901126100b357356001600160a01b038116908190036100b35760ff600361065093868694602098526002885220015416610652565bf35b90600382101561065f5752565b634e487b7160e01b600052602160045260246000fd5b90601f8019910116810190811067ffffffffffffffff82111761069757604052565b634e487b7160e01b600052604160045260246000fd5b81601f820112156107045780359067ffffffffffffffff821161069757604051926106e2601f8401601f191660200185610675565b8284526020838301011161070457816000926020809301838601378301015290565b600080fd5b90600182811c92168015610739575b602083101461072357565b634e487b7160e01b600052602260045260246000fd5b91607f1691610718565b906040519182600082549261075784610709565b9081845260019485811690816000146107c65750600114610783575b505061078192500383610675565b565b9093915060005260209081600020936000915b8183106107ae57505061078193508201013880610773565b85548884018501529485019487945091830191610796565b91505061078194506020925060ff191682840152151560051b8201013880610773565b919082519283825260005b848110610815575050826000602080949584010152601f8019910116010190565b6020818301810151848301820152016107f4565b1561083057565b60405162461bcd60e51b815260206004820152602660248201527f4f6e6c7920746865206f776e65722063616e20706572666f726d20746869732060448201526530b1ba34b7b760d11b6064820152608490fdfea264697066735822122078282979472c7e3c87802a99b3a78011a5010e7b5fcd4933dff6fcc98f46463e64736f6c63430008120033",
					"opcodes": "PUSH1 0x80 CALLVALUE PUSH2 0x7A JUMPI PUSH1 0x1F PUSH2 0x950 CODESIZE DUP2 SWAP1 SUB SWAP2 DUP3 ADD PUSH1 0x1F NOT AND DUP4 ADD SWAP2 PUSH1 0x1 PUSH1 0x1 PUSH1 0x40 SHL SUB DUP4 GT DUP5 DUP5 LT OR PUSH2 0x7F JUMPI DUP1 DUP5 SWAP3 PUSH1 0x20 SWAP5 PUSH1 0x40 MSTORE DUP4 CODECOPY DUP2 ADD SUB SLT PUSH2 0x7A JUMPI MLOAD PUSH1 0x1 PUSH1 0x1 PUSH1 0xA0 SHL SUB DUP2 AND SWAP1 DUP2 SWAP1 SUB PUSH2 0x7A JUMPI PUSH1 0x1 DUP1 PUSH1 0xA0 SHL SUB NOT CALLER DUP2 PUSH1 0x0 SLOAD AND OR PUSH1 0x0 SSTORE PUSH1 0x1 SLOAD AND OR PUSH1 0x1 SSTORE PUSH1 0x40 MLOAD PUSH2 0x8BA SWAP1 DUP2 PUSH2 0x96 DUP3 CODECOPY RETURN JUMPDEST PUSH1 0x0 DUP1 REVERT JUMPDEST PUSH4 0x4E487B71 PUSH1 0xE0 SHL PUSH1 0x0 MSTORE PUSH1 0x41 PUSH1 0x4 MSTORE PUSH1 0x24 PUSH1 0x0 REVERT INVALID PUSH1 0x80 PUSH1 0x40 DUP2 DUP2 MSTORE PUSH1 0x4 DUP1 CALLDATASIZE LT ISZERO PUSH2 0x15 JUMPI PUSH1 0x0 DUP1 REVERT JUMPDEST PUSH1 0x0 SWAP3 DUP4 CALLDATALOAD PUSH1 0xE0 SHR SWAP1 DUP2 PUSH3 0xC8DF0 EQ PUSH2 0x60C JUMPI POP DUP1 PUSH4 0x6A01781 EQ PUSH2 0x1D0 JUMPI DUP1 PUSH4 0xE27324D EQ PUSH2 0x180 JUMPI DUP1 PUSH4 0x19171561 EQ PUSH2 0xE7 JUMPI DUP1 PUSH4 0x8DA5CB5B EQ PUSH2 0xBB JUMPI PUSH4 0xC42E5888 EQ PUSH2 0x64 JUMPI PUSH1 0x0 DUP1 REVERT JUMPDEST CALLVALUE PUSH2 0xB7 JUMPI PUSH1 0x20 CALLDATASIZE PUSH1 0x3 NOT ADD SLT PUSH2 0xB7 JUMPI PUSH1 0x1 PUSH1 0x1 PUSH1 0xA0 SHL SUB SWAP2 SWAP1 CALLDATALOAD DUP3 DUP2 AND SWAP1 DUP2 SWAP1 SUB PUSH2 0xB3 JUMPI PUSH2 0x9B PUSH1 0x3 SWAP4 DUP6 SLOAD AND CALLER EQ PUSH2 0x829 JUMP JUMPDEST DUP4 MSTORE PUSH1 0x2 PUSH1 0x20 MSTORE DUP3 KECCAK256 ADD PUSH1 0x2 PUSH1 0xFF NOT DUP3 SLOAD AND OR SWAP1 SSTORE DUP1 RETURN JUMPDEST DUP4 DUP1 REVERT JUMPDEST DUP3 DUP1 REVERT JUMPDEST POP POP CALLVALUE PUSH2 0xE3 JUMPI DUP2 PUSH1 0x3 NOT CALLDATASIZE ADD SLT PUSH2 0xE3 JUMPI SWAP1 SLOAD SWAP1 MLOAD PUSH1 0x1 PUSH1 0x1 PUSH1 0xA0 SHL SUB SWAP1 SWAP2 AND DUP2 MSTORE PUSH1 0x20 SWAP1 RETURN JUMPDEST POP DUP1 REVERT JUMPDEST POP DUP3 SWAP1 CALLVALUE PUSH2 0xE3 JUMPI PUSH1 0x20 CALLDATASIZE PUSH1 0x3 NOT ADD SLT PUSH2 0xE3 JUMPI PUSH1 0x1 PUSH1 0x1 PUSH1 0xA0 SHL SUB SWAP2 SWAP1 CALLDATALOAD DUP3 DUP2 AND SWAP1 DUP2 SWAP1 SUB PUSH2 0xE3 JUMPI SWAP1 DUP4 SWAP2 DUP2 MSTORE PUSH1 0x2 PUSH1 0x20 MSTORE KECCAK256 SWAP1 DUP2 SLOAD AND SWAP1 PUSH2 0x17C PUSH2 0x171 PUSH2 0x133 PUSH1 0x1 DUP5 ADD PUSH2 0x743 JUMP JUMPDEST SWAP5 PUSH1 0xFF PUSH1 0x3 PUSH2 0x144 PUSH1 0x2 DUP8 ADD PUSH2 0x743 JUMP JUMPDEST SWAP6 ADD SLOAD AND SWAP4 PUSH2 0x164 DUP3 MLOAD SWAP8 DUP9 SWAP8 DUP9 MSTORE PUSH1 0x80 PUSH1 0x20 DUP10 ADD MSTORE PUSH1 0x80 DUP9 ADD SWAP1 PUSH2 0x7E9 JUMP JUMPDEST SWAP2 DUP7 DUP4 SUB SWAP1 DUP8 ADD MSTORE PUSH2 0x7E9 JUMP JUMPDEST SWAP2 PUSH1 0x60 DUP5 ADD SWAP1 PUSH2 0x652 JUMP JUMPDEST SUB SWAP1 RETURN JUMPDEST POP CALLVALUE PUSH2 0xB7 JUMPI PUSH1 0x20 CALLDATASIZE PUSH1 0x3 NOT ADD SLT PUSH2 0xB7 JUMPI PUSH1 0x1 PUSH1 0x1 PUSH1 0xA0 SHL SUB SWAP2 SWAP1 CALLDATALOAD DUP3 DUP2 AND SWAP1 DUP2 SWAP1 SUB PUSH2 0xB3 JUMPI PUSH2 0x1B8 PUSH1 0x3 SWAP4 DUP6 SLOAD AND CALLER EQ PUSH2 0x829 JUMP JUMPDEST DUP4 MSTORE PUSH1 0x2 PUSH1 0x20 MSTORE DUP3 KECCAK256 ADD DUP1 SLOAD PUSH1 0xFF NOT AND PUSH1 0x1 OR SWAP1 SSTORE DUP1 RETURN JUMPDEST POP SWAP2 SWAP1 CALLVALUE PUSH2 0xE3 JUMPI DUP1 PUSH1 0x3 NOT CALLDATASIZE ADD SLT PUSH2 0xE3 JUMPI PUSH8 0xFFFFFFFFFFFFFFFF SWAP3 DUP1 CALLDATALOAD DUP5 DUP2 GT PUSH2 0xB3 JUMPI PUSH2 0x203 SWAP1 CALLDATASIZE SWAP1 DUP4 ADD PUSH2 0x6AD JUMP JUMPDEST PUSH1 0x24 SWAP1 DUP2 CALLDATALOAD DUP7 DUP2 GT PUSH2 0x608 JUMPI PUSH2 0x21C SWAP1 CALLDATASIZE SWAP1 DUP6 ADD PUSH2 0x6AD JUMP JUMPDEST PUSH1 0x1 DUP1 SLOAD DUP7 MLOAD PUSH4 0xB1FBA91 PUSH1 0xE1 SHL DUP2 MSTORE CALLER DUP8 DUP3 ADD MSTORE PUSH1 0x1 PUSH1 0x1 PUSH1 0xA0 SHL SUB SWAP5 SWAP2 PUSH1 0x20 SWAP2 SWAP1 DUP3 SWAP1 DUP3 SWAP1 DUP10 SWAP1 DUP3 SWAP1 DUP11 AND GAS STATICCALL SWAP1 DUP2 ISZERO PUSH2 0x5FE JUMPI DUP11 SWAP2 PUSH2 0x5C4 JUMPI JUMPDEST POP ISZERO PUSH2 0x565 JUMPI CALLER DUP10 MSTORE PUSH1 0x2 DUP2 MSTORE DUP5 DUP9 DUP11 KECCAK256 SLOAD AND PUSH2 0x524 JUMPI DUP8 MLOAD SWAP5 PUSH1 0x80 DUP7 ADD DUP7 DUP2 LT DUP13 DUP3 GT OR PUSH2 0x512 JUMPI DUP10 MSTORE CALLER DUP7 MSTORE DUP2 DUP7 ADD SWAP3 DUP4 MSTORE DUP9 DUP7 ADD SWAP5 DUP6 MSTORE PUSH1 0x60 DUP7 ADD SWAP9 DUP11 DUP11 MSTORE CALLER DUP12 MSTORE PUSH1 0x2 DUP4 MSTORE DUP11 KECCAK256 SWAP6 MLOAD AND PUSH12 0xFFFFFFFFFFFFFFFFFFFFFFFF PUSH1 0xA0 SHL DUP7 SLOAD AND OR DUP6 SSTORE DUP3 DUP6 ADD SWAP2 MLOAD SWAP2 DUP3 MLOAD DUP12 DUP2 GT PUSH2 0x512 JUMPI DUP1 PUSH2 0x2D7 DUP4 SLOAD PUSH2 0x709 JUMP JUMPDEST SWAP5 PUSH1 0x1F SWAP6 DUP7 DUP2 GT PUSH2 0x4C1 JUMPI JUMPDEST POP DUP5 SWAP1 DUP14 DUP8 DUP5 GT PUSH1 0x1 EQ PUSH2 0x462 JUMPI SWAP3 PUSH2 0x457 JUMPI JUMPDEST POP POP PUSH1 0x0 NOT PUSH1 0x3 DUP4 SWAP1 SHL SHR NOT AND SWAP1 DUP6 SHL OR SWAP1 SSTORE JUMPDEST PUSH1 0x2 DUP6 ADD SWAP4 MLOAD SWAP1 DUP2 MLOAD SWAP11 DUP12 GT PUSH2 0x445 JUMPI DUP11 PUSH2 0x326 DUP7 SLOAD PUSH2 0x709 JUMP JUMPDEST DUP5 DUP2 GT PUSH2 0x400 JUMPI JUMPDEST POP POP DUP1 SWAP3 DUP12 GT PUSH1 0x1 EQ PUSH2 0x39A JUMPI POP SWAP9 DUP1 SWAP3 DUP2 SWAP3 DUP11 SWAP12 PUSH1 0x3 SWAP9 SWAP10 SWAP11 SWAP12 SWAP5 PUSH2 0x38F JUMPI JUMPDEST POP POP SHL SWAP2 PUSH1 0x0 NOT SWAP1 DUP7 SHL SHR NOT AND OR SWAP1 SSTORE JUMPDEST ADD SWAP3 MLOAD SWAP2 PUSH1 0x3 DUP4 LT ISZERO PUSH2 0x37E JUMPI POP POP PUSH1 0xFF DUP1 NOT DUP4 SLOAD AND SWAP2 AND OR SWAP1 SSTORE DUP1 RETURN JUMPDEST PUSH4 0x4E487B71 PUSH1 0xE0 SHL DUP6 MSTORE PUSH1 0x21 SWAP1 MSTORE DUP4 REVERT JUMPDEST ADD MLOAD SWAP3 POP CODESIZE DUP1 PUSH2 0x34F JUMP JUMPDEST SWAP1 SWAP10 SWAP2 PUSH1 0x1F NOT DUP4 AND SWAP11 DUP6 DUP12 MSTORE DUP3 DUP12 KECCAK256 SWAP3 DUP12 SWAP1 JUMPDEST DUP14 DUP3 LT PUSH2 0x3E9 JUMPI POP POP DUP4 PUSH1 0x3 SWAP9 SWAP10 SWAP11 SWAP12 SWAP13 LT PUSH2 0x3D1 JUMPI JUMPDEST POP POP POP DUP2 SHL ADD SWAP1 SSTORE PUSH2 0x360 JUMP JUMPDEST ADD MLOAD PUSH1 0x0 NOT DUP4 DUP9 SHL PUSH1 0xF8 AND SHR NOT AND SWAP1 SSTORE CODESIZE DUP1 DUP1 PUSH2 0x3C4 JUMP JUMPDEST DUP1 DUP8 DUP6 SWAP7 DUP3 SWAP5 SWAP7 DUP7 ADD MLOAD DUP2 SSTORE ADD SWAP6 ADD SWAP4 ADD SWAP1 PUSH2 0x3AD JUMP JUMPDEST DUP7 DUP13 MSTORE DUP5 DUP4 DUP14 KECCAK256 SWAP2 DUP5 DUP3 DUP6 ADD PUSH1 0x5 SHR DUP5 ADD SWAP5 LT PUSH2 0x43C JUMPI JUMPDEST ADD PUSH1 0x5 SHR ADD SWAP1 DUP6 SWAP1 JUMPDEST DUP3 DUP2 LT PUSH2 0x431 JUMPI POP DUP13 SWAP2 POP PUSH2 0x32E JUMP JUMPDEST DUP13 DUP2 SSTORE ADD DUP6 SWAP1 PUSH2 0x421 JUMP JUMPDEST SWAP3 POP DUP2 SWAP3 PUSH2 0x418 JUMP JUMPDEST PUSH4 0x4E487B71 PUSH1 0xE0 SHL DUP11 MSTORE PUSH1 0x41 DUP9 MSTORE DUP7 DUP11 REVERT JUMPDEST ADD MLOAD SWAP1 POP CODESIZE DUP1 PUSH2 0x2F7 JUMP JUMPDEST SWAP2 SWAP1 DUP9 SWAP5 POP PUSH1 0x1F NOT DUP5 AND DUP7 DUP5 MSTORE DUP8 DUP5 KECCAK256 SWAP4 JUMPDEST DUP9 DUP3 DUP3 LT PUSH2 0x4AB JUMPI POP POP DUP5 GT PUSH2 0x492 JUMPI JUMPDEST POP POP POP DUP2 SHL ADD SWAP1 SSTORE PUSH2 0x30B JUMP JUMPDEST ADD MLOAD PUSH1 0x0 NOT PUSH1 0xF8 DUP5 PUSH1 0x3 SHL AND SHR NOT AND SWAP1 SSTORE CODESIZE DUP1 DUP1 PUSH2 0x485 JUMP JUMPDEST DUP4 DUP6 ADD MLOAD DUP7 SSTORE DUP12 SWAP8 SWAP1 SWAP6 ADD SWAP5 SWAP4 DUP5 ADD SWAP4 ADD PUSH2 0x474 JUMP JUMPDEST SWAP1 SWAP2 POP DUP4 DUP14 MSTORE DUP5 DUP14 KECCAK256 DUP7 DUP1 DUP6 ADD PUSH1 0x5 SHR DUP3 ADD SWAP3 DUP8 DUP7 LT PUSH2 0x509 JUMPI JUMPDEST DUP6 SWAP5 SWAP4 SWAP2 ADD PUSH1 0x5 SHR SWAP1 SWAP2 ADD SWAP1 DUP9 SWAP1 DUP16 JUMPDEST DUP4 DUP3 LT PUSH2 0x4FB JUMPI POP POP POP PUSH2 0x2E3 JUMP JUMPDEST DUP2 SSTORE DUP6 SWAP5 POP DUP10 SWAP2 ADD DUP16 PUSH2 0x4EC JUMP JUMPDEST SWAP3 POP DUP2 SWAP3 PUSH2 0x4DC JUMP JUMPDEST PUSH4 0x4E487B71 PUSH1 0xE0 SHL DUP12 MSTORE PUSH1 0x41 DUP10 MSTORE DUP8 DUP12 REVERT JUMPDEST DUP7 PUSH1 0x1D DUP8 PUSH1 0x64 SWAP4 DUP12 MLOAD SWAP4 PUSH3 0x461BCD PUSH1 0xE5 SHL DUP6 MSTORE DUP5 ADD MSTORE DUP3 ADD MSTORE PUSH32 0x4B5943207265717565737420616C7265616479207375626D6974746564000000 PUSH1 0x44 DUP3 ADD MSTORE REVERT JUMPDEST DUP7 PUSH1 0x35 DUP8 PUSH1 0x84 SWAP4 DUP12 MLOAD SWAP4 PUSH3 0x461BCD PUSH1 0xE5 SHL DUP6 MSTORE DUP5 ADD MSTORE DUP3 ADD MSTORE PUSH32 0x4F6E6C79207265676973746572656420757365722063616E2072657175657374 PUSH1 0x44 DUP3 ADD MSTORE PUSH21 0x20766572696669636174696F6E20666F72204B5943 PUSH1 0x58 SHL PUSH1 0x64 DUP3 ADD MSTORE REVERT JUMPDEST SWAP1 POP DUP2 DUP2 DUP2 RETURNDATASIZE DUP4 GT PUSH2 0x5F7 JUMPI JUMPDEST PUSH2 0x5DB DUP2 DUP4 PUSH2 0x675 JUMP JUMPDEST DUP2 ADD SUB SLT PUSH2 0x5F3 JUMPI MLOAD DUP1 ISZERO ISZERO DUP2 SUB PUSH2 0x5F3 JUMPI CODESIZE PUSH2 0x259 JUMP JUMPDEST DUP10 DUP1 REVERT JUMPDEST POP RETURNDATASIZE PUSH2 0x5D1 JUMP JUMPDEST DUP10 MLOAD RETURNDATASIZE DUP13 DUP3 RETURNDATACOPY RETURNDATASIZE SWAP1 REVERT JUMPDEST DUP6 DUP1 REVERT JUMPDEST SWAP3 SWAP2 SWAP1 POP CALLVALUE PUSH2 0xB3 JUMPI PUSH1 0x20 CALLDATASIZE PUSH1 0x3 NOT ADD SLT PUSH2 0xB3 JUMPI CALLDATALOAD PUSH1 0x1 PUSH1 0x1 PUSH1 0xA0 SHL SUB DUP2 AND SWAP1 DUP2 SWAP1 SUB PUSH2 0xB3 JUMPI PUSH1 0xFF PUSH1 0x3 PUSH2 0x650 SWAP4 DUP7 DUP7 SWAP5 PUSH1 0x20 SWAP9 MSTORE PUSH1 0x2 DUP9 MSTORE KECCAK256 ADD SLOAD AND PUSH2 0x652 JUMP JUMPDEST RETURN JUMPDEST SWAP1 PUSH1 0x3 DUP3 LT ISZERO PUSH2 0x65F JUMPI MSTORE JUMP JUMPDEST PUSH4 0x4E487B71 PUSH1 0xE0 SHL PUSH1 0x0 MSTORE PUSH1 0x21 PUSH1 0x4 MSTORE PUSH1 0x24 PUSH1 0x0 REVERT JUMPDEST SWAP1 PUSH1 0x1F DUP1 NOT SWAP2 ADD AND DUP2 ADD SWAP1 DUP2 LT PUSH8 0xFFFFFFFFFFFFFFFF DUP3 GT OR PUSH2 0x697 JUMPI PUSH1 0x40 MSTORE JUMP JUMPDEST PUSH4 0x4E487B71 PUSH1 0xE0 SHL PUSH1 0x0 MSTORE PUSH1 0x41 PUSH1 0x4 MSTORE PUSH1 0x24 PUSH1 0x0 REVERT JUMPDEST DUP2 PUSH1 0x1F DUP3 ADD SLT ISZERO PUSH2 0x704 JUMPI DUP1 CALLDATALOAD SWAP1 PUSH8 0xFFFFFFFFFFFFFFFF DUP3 GT PUSH2 0x697 JUMPI PUSH1 0x40 MLOAD SWAP3 PUSH2 0x6E2 PUSH1 0x1F DUP5 ADD PUSH1 0x1F NOT AND PUSH1 0x20 ADD DUP6 PUSH2 0x675 JUMP JUMPDEST DUP3 DUP5 MSTORE PUSH1 0x20 DUP4 DUP4 ADD ADD GT PUSH2 0x704 JUMPI DUP2 PUSH1 0x0 SWAP3 PUSH1 0x20 DUP1 SWAP4 ADD DUP4 DUP7 ADD CALLDATACOPY DUP4 ADD ADD MSTORE SWAP1 JUMP JUMPDEST PUSH1 0x0 DUP1 REVERT JUMPDEST SWAP1 PUSH1 0x1 DUP3 DUP2 SHR SWAP3 AND DUP1 ISZERO PUSH2 0x739 JUMPI JUMPDEST PUSH1 0x20 DUP4 LT EQ PUSH2 0x723 JUMPI JUMP JUMPDEST PUSH4 0x4E487B71 PUSH1 0xE0 SHL PUSH1 0x0 MSTORE PUSH1 0x22 PUSH1 0x4 MSTORE PUSH1 0x24 PUSH1 0x0 REVERT JUMPDEST SWAP2 PUSH1 0x7F AND SWAP2 PUSH2 0x718 JUMP JUMPDEST SWAP1 PUSH1 0x40 MLOAD SWAP2 DUP3 PUSH1 0x0 DUP3 SLOAD SWAP3 PUSH2 0x757 DUP5 PUSH2 0x709 JUMP JUMPDEST SWAP1 DUP2 DUP5 MSTORE PUSH1 0x1 SWAP5 DUP6 DUP2 AND SWAP1 DUP2 PUSH1 0x0 EQ PUSH2 0x7C6 JUMPI POP PUSH1 0x1 EQ PUSH2 0x783 JUMPI JUMPDEST POP POP PUSH2 0x781 SWAP3 POP SUB DUP4 PUSH2 0x675 JUMP JUMPDEST JUMP JUMPDEST SWAP1 SWAP4 SWAP2 POP PUSH1 0x0 MSTORE PUSH1 0x20 SWAP1 DUP2 PUSH1 0x0 KECCAK256 SWAP4 PUSH1 0x0 SWAP2 JUMPDEST DUP2 DUP4 LT PUSH2 0x7AE JUMPI POP POP PUSH2 0x781 SWAP4 POP DUP3 ADD ADD CODESIZE DUP1 PUSH2 0x773 JUMP JUMPDEST DUP6 SLOAD DUP9 DUP5 ADD DUP6 ADD MSTORE SWAP5 DUP6 ADD SWAP5 DUP8 SWAP5 POP SWAP2 DUP4 ADD SWAP2 PUSH2 0x796 JUMP JUMPDEST SWAP2 POP POP PUSH2 0x781 SWAP5 POP PUSH1 0x20 SWAP3 POP PUSH1 0xFF NOT AND DUP3 DUP5 ADD MSTORE ISZERO ISZERO PUSH1 0x5 SHL DUP3 ADD ADD CODESIZE DUP1 PUSH2 0x773 JUMP JUMPDEST SWAP2 SWAP1 DUP3 MLOAD SWAP3 DUP4 DUP3 MSTORE PUSH1 0x0 JUMPDEST DUP5 DUP2 LT PUSH2 0x815 JUMPI POP POP DUP3 PUSH1 0x0 PUSH1 0x20 DUP1 SWAP5 SWAP6 DUP5 ADD ADD MSTORE PUSH1 0x1F DUP1 NOT SWAP2 ADD AND ADD ADD SWAP1 JUMP JUMPDEST PUSH1 0x20 DUP2 DUP4 ADD DUP2 ADD MLOAD DUP5 DUP4 ADD DUP3 ADD MSTORE ADD PUSH2 0x7F4 JUMP JUMPDEST ISZERO PUSH2 0x830 JUMPI JUMP JUMPDEST PUSH1 0x40 MLOAD PUSH3 0x461BCD PUSH1 0xE5 SHL DUP2 MSTORE PUSH1 0x20 PUSH1 0x4 DUP3 ADD MSTORE PUSH1 0x26 PUSH1 0x24 DUP3 ADD MSTORE PUSH32 0x4F6E6C7920746865206F776E65722063616E20706572666F726D207468697320 PUSH1 0x44 DUP3 ADD MSTORE PUSH6 0x30B1BA34B7B7 PUSH1 0xD1 SHL PUSH1 0x64 DUP3 ADD MSTORE PUSH1 0x84 SWAP1 REVERT INVALID LOG2 PUSH5 0x6970667358 0x22 SLT KECCAK256 PUSH25 0x282979472C7E3C87802A99B3A78011A5010E7B5FCD4933DFF6 0xFC 0xC9 DUP16 CHAINID CHAINID RETURNDATACOPY PUSH5 0x736F6C6343 STOP ADDMOD SLT STOP CALLER "
				},
				"gasEstimates": {
					"creation": {
						"codeDepositCost": "446800",
						"executionCost": "infinite",
						"totalCost": "infinite"
					},
					"external": {
						"approveKYC(address)": "26691",
						"getKYCStatus(address)": "2459",
						"kycRequests(address)": "infinite",
						"owner()": "2386",
						"rejectKYC(address)": "26752",
						"submitKYCRequest(string,string)": "infinite"
					}
				},
				"methodIdentifiers": {
					"approveKYC(address)": "0e27324d",
					"getKYCStatus(address)": "000c8df0",
					"kycRequests(address)": "19171561",
					"owner()": "8da5cb5b",
					"rejectKYC(address)": "c42e5888",
					"submitKYCRequest(string,string)": "06a01781"
				}
			},
			"storageLayout": {
				"storage": [
					{
						"astId": 4,
						"contract": "KYC.sol:KYC",
						"label": "owner",
						"offset": 0,
						"slot": "0",
						"type": "t_address"
					},
					{
						"astId": 7,
						"contract": "KYC.sol:KYC",
						"label": "addUserReg",
						"offset": 0,
						"slot": "1",
						"type": "t_contract(userRegistration)516"
					},
					{
						"astId": 26,
						"contract": "KYC.sol:KYC",
						"label": "kycRequests",
						"offset": 0,
						"slot": "2",
						"type": "t_mapping(t_address,t_struct(KYCRequest)21_storage)"
					}
				],
				"types": {
					"t_address": {
						"encoding": "inplace",
						"label": "address",
						"numberOfBytes": "20"
					},
					"t_contract(userRegistration)516": {
						"encoding": "inplace",
						"label": "contract userRegistration",
						"numberOfBytes": "20"
					},
					"t_enum(KYCStatus)11": {
						"encoding": "inplace",
						"label": "enum KYC.KYCStatus",
						"numberOfBytes": "1"
					},
					"t_mapping(t_address,t_struct(KYCRequest)21_storage)": {
						"encoding": "mapping",
						"key": "t_address",
						"label": "mapping(address => struct KYC.KYCRequest)",
						"numberOfBytes": "32",
						"value": "t_struct(KYCRequest)21_storage"
					},
					"t_string_storage": {
						"encoding": "bytes",
						"label": "string",
						"numberOfBytes": "32"
					},
					"t_struct(KYCRequest)21_storage": {
						"encoding": "inplace",
						"label": "struct KYC.KYCRequest",
						"members": [
							{
								"astId": 13,
								"contract": "KYC.sol:KYC",
								"label": "userAddress",
								"offset": 0,
								"slot": "0",
								"type": "t_address"
							},
							{
								"astId": 15,
								"contract": "KYC.sol:KYC",
								"label": "userName",
								"offset": 0,
								"slot": "1",
								"type": "t_string_storage"
							},
							{
								"astId": 17,
								"contract": "KYC.sol:KYC",
								"label": "identificationDocument",
								"offset": 0,
								"slot": "2",
								"type": "t_string_storage"
							},
							{
								"astId": 20,
								"contract": "KYC.sol:KYC",
								"label": "status",
								"offset": 0,
								"slot": "3",
								"type": "t_enum(KYCStatus)11"
							}
						],
						"numberOfBytes": "128"
					}
				}
			},
			"userdoc": {
				"kind": "user",
				"methods": {},
				"version": 1
			}
		}
	}
}